{
  "contractName": "Holder",
  "abi": [
    {
      "constant": false,
      "inputs": [
        {
          "name": "_owner",
          "type": "address"
        }
      ],
      "name": "removeOwner",
      "outputs": [],
      "payable": false,
      "stateMutability": "nonpayable",
      "type": "function"
    },
    {
      "constant": true,
      "inputs": [
        {
          "name": "_addr",
          "type": "address"
        }
      ],
      "name": "isOwner",
      "outputs": [
        {
          "name": "",
          "type": "bool"
        }
      ],
      "payable": false,
      "stateMutability": "view",
      "type": "function"
    },
    {
      "constant": true,
      "inputs": [],
      "name": "m_numOwners",
      "outputs": [
        {
          "name": "",
          "type": "uint256"
        }
      ],
      "payable": false,
      "stateMutability": "view",
      "type": "function"
    },
    {
      "constant": true,
      "inputs": [],
      "name": "amIOwner",
      "outputs": [
        {
          "name": "",
          "type": "bool"
        }
      ],
      "payable": false,
      "stateMutability": "view",
      "type": "function"
    },
    {
      "constant": false,
      "inputs": [
        {
          "name": "_owner",
          "type": "address"
        }
      ],
      "name": "addOwner",
      "outputs": [],
      "payable": false,
      "stateMutability": "nonpayable",
      "type": "function"
    },
    {
      "constant": true,
      "inputs": [],
      "name": "m_multiOwnedRequired",
      "outputs": [
        {
          "name": "",
          "type": "uint256"
        }
      ],
      "payable": false,
      "stateMutability": "view",
      "type": "function"
    },
    {
      "constant": true,
      "inputs": [],
      "name": "getOwners",
      "outputs": [
        {
          "name": "",
          "type": "address[]"
        }
      ],
      "payable": false,
      "stateMutability": "view",
      "type": "function"
    },
    {
      "constant": false,
      "inputs": [
        {
          "name": "_operation",
          "type": "bytes32"
        }
      ],
      "name": "revoke",
      "outputs": [],
      "payable": false,
      "stateMutability": "nonpayable",
      "type": "function"
    },
    {
      "constant": false,
      "inputs": [
        {
          "name": "_newRequired",
          "type": "uint256"
        }
      ],
      "name": "changeRequirement",
      "outputs": [],
      "payable": false,
      "stateMutability": "nonpayable",
      "type": "function"
    },
    {
      "constant": true,
      "inputs": [
        {
          "name": "_operation",
          "type": "bytes32"
        },
        {
          "name": "_owner",
          "type": "address"
        }
      ],
      "name": "hasConfirmed",
      "outputs": [
        {
          "name": "",
          "type": "bool"
        }
      ],
      "payable": false,
      "stateMutability": "view",
      "type": "function"
    },
    {
      "constant": true,
      "inputs": [
        {
          "name": "ownerIndex",
          "type": "uint256"
        }
      ],
      "name": "getOwner",
      "outputs": [
        {
          "name": "",
          "type": "address"
        }
      ],
      "payable": false,
      "stateMutability": "view",
      "type": "function"
    },
    {
      "constant": false,
      "inputs": [
        {
          "name": "_from",
          "type": "address"
        },
        {
          "name": "_to",
          "type": "address"
        }
      ],
      "name": "changeOwner",
      "outputs": [],
      "payable": false,
      "stateMutability": "nonpayable",
      "type": "function"
    },
    {
      "inputs": [
        {
          "name": "_owners",
          "type": "address[]"
        },
        {
          "name": "_required",
          "type": "uint256"
        },
        {
          "name": "_escrowAddress",
          "type": "address"
        }
      ],
      "payable": false,
      "stateMutability": "nonpayable",
      "type": "constructor"
    },
    {
      "payable": true,
      "stateMutability": "payable",
      "type": "fallback"
    },
    {
      "anonymous": false,
      "inputs": [
        {
          "indexed": false,
          "name": "owner",
          "type": "address"
        },
        {
          "indexed": false,
          "name": "operation",
          "type": "bytes32"
        }
      ],
      "name": "Confirmation",
      "type": "event"
    },
    {
      "anonymous": false,
      "inputs": [
        {
          "indexed": false,
          "name": "owner",
          "type": "address"
        },
        {
          "indexed": false,
          "name": "operation",
          "type": "bytes32"
        }
      ],
      "name": "Revoke",
      "type": "event"
    },
    {
      "anonymous": false,
      "inputs": [
        {
          "indexed": false,
          "name": "owner",
          "type": "address"
        },
        {
          "indexed": false,
          "name": "operation",
          "type": "bytes32"
        }
      ],
      "name": "FinalConfirmation",
      "type": "event"
    },
    {
      "anonymous": false,
      "inputs": [
        {
          "indexed": false,
          "name": "oldOwner",
          "type": "address"
        },
        {
          "indexed": false,
          "name": "newOwner",
          "type": "address"
        }
      ],
      "name": "OwnerChanged",
      "type": "event"
    },
    {
      "anonymous": false,
      "inputs": [
        {
          "indexed": false,
          "name": "newOwner",
          "type": "address"
        }
      ],
      "name": "OwnerAdded",
      "type": "event"
    },
    {
      "anonymous": false,
      "inputs": [
        {
          "indexed": false,
          "name": "oldOwner",
          "type": "address"
        }
      ],
      "name": "OwnerRemoved",
      "type": "event"
    },
    {
      "anonymous": false,
      "inputs": [
        {
          "indexed": false,
          "name": "newRequirement",
          "type": "uint256"
        }
      ],
      "name": "RequirementChanged",
      "type": "event"
    },
    {
      "constant": false,
      "inputs": [],
      "name": "escrowFirstStage",
      "outputs": [
        {
          "name": "success",
          "type": "bool"
        }
      ],
      "payable": false,
      "stateMutability": "nonpayable",
      "type": "function"
    },
    {
      "constant": false,
      "inputs": [],
      "name": "escrowSecondStage",
      "outputs": [
        {
          "name": "success",
          "type": "bool"
        }
      ],
      "payable": false,
      "stateMutability": "nonpayable",
      "type": "function"
    },
    {
      "constant": false,
      "inputs": [
        {
          "name": "_newAddress",
          "type": "address"
        }
      ],
      "name": "changeEscrowAddress",
      "outputs": [
        {
          "name": "success",
          "type": "bool"
        }
      ],
      "payable": false,
      "stateMutability": "nonpayable",
      "type": "function"
    }
  ],
  "bytecode": "0x606060405234156200001057600080fd5b6040516200127c3803806200127c833981016040528080518201919060200180519190602001805191508390508260008080845160008111801562000056575060fa8111155b15156200006257600080fd5b848651600082118015620000765750808211155b15156200008257600080fd5b8751600155600087815595505b87518610156200015757878681518110620000a657fe5b906020019060200201519450600160a060020a03851615801590620000e15750620000df8564010000000062000438620001a282021704565b155b1515620000ed57600080fd5b620001096001870164010000000062000d1d620001bf82021704565b93508460028561010081106200011b57fe5b018054600160a060020a031916600160a060020a039283161790558516600090815261010260205260409020849055600195909501946200008f565b6200016f64010000000062000c30620001df82021704565b50506101058054600160a060020a031916600160a060020a03989098169790971790965550620002319650505050505050565b600160a060020a0316600090815261010260205260408120541190565b60008115801590620001d2575060fa8211155b1515620001db57fe5b5090565b60015460009011620001ed57fe5b60015460fa901115620001fc57fe5b600254600160a060020a0316156200021057fe5b6000541580159062000226575060015460005411155b15156200022f57fe5b565b61103b80620002416000396000f3006060604052600436106100da5763ffffffff7c0100000000000000000000000000000000000000000000000000000000600035041663173825d981146100dc5780632f54bf6e146100fb57806338d5630b1461012e5780633e6494db1461014d5780634123cb6b146101605780634e4ab830146101855780637065cb4814610198578063787d64e4146101b7578063a0e67e2b146101ca578063b75c7dc614610230578063ba51a6df14610246578063bb8236eb1461025c578063c2cf73261461026f578063c41a360a14610291578063f00d4b5d146102c3575b005b34156100e757600080fd5b6100da600160a060020a03600435166102e8565b341561010657600080fd5b61011a600160a060020a0360043516610438565b604051901515815260200160405180910390f35b341561013957600080fd5b61011a600160a060020a0360043516610455565b341561015857600080fd5b61011a6104a5565b341561016b57600080fd5b610173610515565b60405190815260200160405180910390f35b341561019057600080fd5b61011a61051b565b34156101a357600080fd5b6100da600160a060020a0360043516610538565b34156101c257600080fd5b610173610655565b34156101d557600080fd5b6101dd61065b565b60405160208082528190810183818151815260200191508051906020019060200280838360005b8381101561021c578082015183820152602001610204565b505050509050019250505060405180910390f35b341561023b57600080fd5b6100da6004356106d3565b341561025157600080fd5b6100da60043561079c565b341561026757600080fd5b61011a61082d565b341561027a57600080fd5b61011a600435600160a060020a03602435166108ba565b341561029c57600080fd5b6102a760043561090f565b604051600160a060020a03909116815260200160405180910390f35b34156102ce57600080fd5b6100da600160a060020a0360043581169060243516610933565b6000816102f481610438565b15156102ff57600080fd5b6001805403600081118015610315575060fa8111155b151561032057600080fd5b60005460018054036000821180156103385750808211155b151561034357600080fd5b60003660405180838380828437820191505092505050604051809103902061036a81610a5f565b1561042f57610377610c30565b61037f610c7d565b600160a060020a038716600090815261010260205260409020546103a290610d1d565b9550600060028761010081106103b457fe5b018054600160a060020a031916600160a060020a039283161790558716600090815261010260205260408120556103e9610d37565b6103f1610c30565b7f58619076adf5bb0943d100ef88d52d7c3fd691b19d3a9071b555b651fbf418da87604051600160a060020a03909116815260200160405180910390a15b50505050505050565b600160a060020a0316600090815261010260205260408120541190565b6000803660405180838380828437820191505092505050604051809103902061047d81610a5f565b1561049f576101058054600160a060020a031916600160a060020a0385161790555b50919050565b600080366040518083838082843782019150509250505060405180910390206104cd81610a5f565b156105115761010554600160a060020a039081169030163180156108fc0290604051600060405180830381858888f19350505050151561050c57600080fd5b600191505b5090565b60015481565b600061052633610438565b151561053157600080fd5b5060015b90565b8061054281610438565b1561054c57600080fd5b600154600101600081118015610563575060fa8111155b151561056e57600080fd5b60003660405180838380828437820191505092505050604051809103902061059581610a5f565b1561064f576105a2610c30565b6105aa610c7d565b60018054810190819055849060029061010081106105c457fe5b018054600160a060020a031916600160a060020a03929092169190911790556001546105ef90610d1d565b600160a060020a03851660009081526101026020526040902055610611610c30565b7f994a936646fe87ffe4f1e469d3d6aa417d6b855598397f323de5b449f765f0c384604051600160a060020a03909116815260200160405180910390a15b50505050565b60005481565b610663610fa0565b61066b610fa0565b600060015460405180591061067d5750595b90808252806020026020018201604052509150600090505b60015481101561049f576106a88161090f565b8282815181106106b457fe5b600160a060020a03909216602092830290910190910152600101610695565b600080826106e081610ec1565b15156106eb57600080fd5b6106f433610438565b15156106ff57600080fd5b61070833610ed6565b600085815261010360205260408120600181015492955093509084161161072e57600080fd5b61073784610f05565b81546001908101835582018054849003905561075284610f05565b7fc7fb647e59b18047309aa15aad418e5d7ca96d173ad704f1031a2c3d7591734b3385604051600160a060020a03909216825260208201526040908101905180910390a150505050565b806001546000821180156107b05750808211155b15156107bb57600080fd5b6000366040518083838082843782019150509250505060405180910390206107e281610a5f565b1561064f5760008490556107f4610c7d565b7facbdb084c721332ac59f9b8e392196c9eb0e4932862da8eb9beaf0dad4f550da8460405190815260200160405180910390a150505050565b6000803660405180838380828437820191505092505050604051809103902061085581610a5f565b156105115761010554600160a060020a03908116906108fc9061089590600a9061088990301631600663ffffffff610f5316565b9063ffffffff610f8916565b9081150290604051600060405180830381858888f19350505050151561050c57600080fd5b6000826108c681610ec1565b15156108d157600080fd5b826108db81610438565b15156108e657600080fd5b6108ef84610ed6565b600086815261010360205260409020600101541615159250505092915050565b6000600260018301610100811061092257fe5b0154600160a060020a031692915050565b60008261093f81610438565b151561094a57600080fd5b8261095481610438565b1561095e57600080fd5b60003660405180838380828437820191505092505050604051809103902061098581610a5f565b15610a5757610992610c30565b61099a610c7d565b600160a060020a038616600090815261010260205260409020546109bd90610d1d565b93508460028561010081106109ce57fe5b018054600160a060020a031916600160a060020a0392831617905586811660009081526101026020526040808220829055918716815220849055610a10610c30565b7fb532073b38c83145e3e5135377a08bf9aab55bc0fd7c1179cd4fb995d2a5159c8686604051600160a060020a039283168152911660208201526040908101905180910390a15b505050505050565b6000806000610a6d33610438565b1515610a7857600080fd5b610104546102001415610a8d57610a8d610c7d565b6000848152610103602052604090209150610aa784610ec1565b1515610afa57600080548355600180840191909155610104805491610ace91908301610fb2565b6002830181905561010480548692908110610ae557fe5b600091825260209091200155610afa84610f05565b610b0333610ed6565b90508082600101541660001415610c2957815460009011610b2057fe5b815460011415610bc9576000848152610103602052604090206002015461010480549091908110610b4d57fe5b600091825260208083209091018290558582526101039052604080822082815560018101839055600201919091557f367569357efc39b74a025c4ba1d64068b2b574e3b0d081c48d42f7feeca4cd16903390869051600160a060020a03909216825260208201526040908101905180910390a160019250610c29565b815460001901825560018201805482179055610be484610f05565b7fe1c52dc63b719ade82e8bea94cc41a0d5d28e4aaf536adb5e9cccc9ff8c1aeda3385604051600160a060020a03909216825260208201526040908101905180910390a15b5050919050565b60015460009011610c3d57fe5b60015460fa901115610c4b57fe5b600254600160a060020a031615610c5e57fe5b60005415801590610c73575060015460005411155b1515610c7b57fe5b565b600080610c8933610438565b1515610c9457600080fd5b50506101045460005b81811015610d0c57610104805482908110610cb457fe5b60009182526020909120015415610d0457610103600061010483815481101515610cda57fe5b60009182526020808320909101548352820192909252604001812081815560018101829055600201555b600101610c9d565b610d196101046000610fdb565b5050565b60008115801590610d2f575060fa8211155b151561051157fe5b60015b600154811015610ebe575b60015481108015610d6d57506002816101008110610d5f57fe5b0154600160a060020a031615155b15610d7a57600101610d45565b60018054118015610da457506001546002906101008110610d9757fe5b0154600160a060020a0316155b15610db85760018054600019019055610d7a565b60015481108015610de357506001546002906101008110610dd557fe5b0154600160a060020a031615155b8015610e0557506002816101008110610df857fe5b0154600160a060020a0316155b15610eb9576001546002906101008110610e1b57fe5b0154600160a060020a03166002826101008110610e3457fe5b018054600160a060020a031916600160a060020a03929092169190911790558061010260006002836101008110610e6757fe5b0154600160a060020a0316815260208101919091526040016000908120919091556001546002906101008110610e9957fe5b018054600160a060020a031916600160a060020a03929092169190911790555b610d3a565b50565b60009081526101036020526040902054151590565b600160a060020a038116600090815261010260205260408120548190610efb90610d1d565b60020a9392505050565b60008181526101036020526040902080541515610f1e57fe5b600281015461010480548492908110610f3357fe5b60009182526020909120015414610f4657fe5b60005481541115610d1957fe5b600080831515610f665760009150610f82565b50828202828482811515610f7657fe5b0414610f7e57fe5b8091505b5092915050565b6000808284811515610f9757fe5b04949350505050565b60206040519081016040526000815290565b815481835581811511610fd657600083815260209020610fd6918101908301610ff5565b505050565b5080546000825590600052602060002090810190610ebe91905b61053591905b808211156105115760008155600101610ffb5600a165627a7a7230582085583cdaed2df0f880afc25f57542c0923809cce594b4c1261e7271a884362530029",
  "source": "pragma solidity ^0.4.19;\n\nimport \"./SafeMath.sol\";\nimport \"./multiowned.sol\";\n\n\ncontract Holder is multiowned {\n    using SafeMath for uint256;\n\n    address escrowAddress;\n\n\n    function Holder(address[] _owners, uint _required, address _escrowAddress) multiowned(_owners, _required) {\n        escrowAddress = _escrowAddress;\n    }\n\n    function () payable {}\n\n    function escrowFirstStage() external onlymanyowners(sha3(msg.data)) returns (bool success){\n        escrowAddress.transfer(this.balance.mul(6).div(10));\n        //escrow 60% of got 50%\n        return true;\n    }\n\n    function escrowSecondStage() external onlymanyowners(sha3(msg.data)) returns (bool success){\n        escrowAddress.transfer(this.balance);\n        //escrow remaning 40%\n        return true;\n    }\n\n    function changeEscrowAddress(address _newAddress) external onlymanyowners(sha3(msg.data)) returns (bool success) {\n        escrowAddress = _newAddress;\n    }\n\n\n}",
  "sourcePath": "C:\\Workspace\\mfc\\smart-contracts\\contracts\\Holder.sol",
  "compiler": {
    "name": "solc",
    "version": "0.4.19+commit.c4cbbb05.Emscripten.clang"
  },
  "schemaVersion": "2.0.0",
  "updatedAt": "2018-03-19T09:44:20.079Z"
}