{
  "contractName": "Holder",
  "abi": [
    {
      "constant": false,
      "inputs": [
        {
          "name": "_owner",
          "type": "address"
        }
      ],
      "name": "removeOwner",
      "outputs": [],
      "payable": false,
      "stateMutability": "nonpayable",
      "type": "function"
    },
    {
      "constant": false,
      "inputs": [
        {
          "name": "_addr",
          "type": "address"
        }
      ],
      "name": "isOwner",
      "outputs": [
        {
          "name": "",
          "type": "bool"
        }
      ],
      "payable": false,
      "stateMutability": "nonpayable",
      "type": "function"
    },
    {
      "constant": false,
      "inputs": [],
      "name": "escrowSecondStage",
      "outputs": [
        {
          "name": "success",
          "type": "bool"
        }
      ],
      "payable": false,
      "stateMutability": "nonpayable",
      "type": "function"
    },
    {
      "constant": true,
      "inputs": [],
      "name": "m_numOwners",
      "outputs": [
        {
          "name": "",
          "type": "uint256"
        }
      ],
      "payable": false,
      "stateMutability": "view",
      "type": "function"
    },
    {
      "constant": false,
      "inputs": [
        {
          "name": "_owner",
          "type": "address"
        }
      ],
      "name": "addOwner",
      "outputs": [],
      "payable": false,
      "stateMutability": "nonpayable",
      "type": "function"
    },
    {
      "constant": true,
      "inputs": [],
      "name": "m_required",
      "outputs": [
        {
          "name": "",
          "type": "uint256"
        }
      ],
      "payable": false,
      "stateMutability": "view",
      "type": "function"
    },
    {
      "constant": false,
      "inputs": [
        {
          "name": "_operation",
          "type": "bytes32"
        }
      ],
      "name": "revoke",
      "outputs": [],
      "payable": false,
      "stateMutability": "nonpayable",
      "type": "function"
    },
    {
      "constant": false,
      "inputs": [
        {
          "name": "_newRequired",
          "type": "uint256"
        }
      ],
      "name": "changeRequirement",
      "outputs": [],
      "payable": false,
      "stateMutability": "nonpayable",
      "type": "function"
    },
    {
      "constant": false,
      "inputs": [],
      "name": "escrowFirstStage",
      "outputs": [
        {
          "name": "success",
          "type": "bool"
        }
      ],
      "payable": false,
      "stateMutability": "nonpayable",
      "type": "function"
    },
    {
      "constant": true,
      "inputs": [
        {
          "name": "_operation",
          "type": "bytes32"
        },
        {
          "name": "_owner",
          "type": "address"
        }
      ],
      "name": "hasConfirmed",
      "outputs": [
        {
          "name": "",
          "type": "bool"
        }
      ],
      "payable": false,
      "stateMutability": "view",
      "type": "function"
    },
    {
      "constant": true,
      "inputs": [
        {
          "name": "ownerIndex",
          "type": "uint256"
        }
      ],
      "name": "getOwner",
      "outputs": [
        {
          "name": "",
          "type": "address"
        }
      ],
      "payable": false,
      "stateMutability": "view",
      "type": "function"
    },
    {
      "constant": false,
      "inputs": [
        {
          "name": "_from",
          "type": "address"
        },
        {
          "name": "_to",
          "type": "address"
        }
      ],
      "name": "changeOwner",
      "outputs": [],
      "payable": false,
      "stateMutability": "nonpayable",
      "type": "function"
    },
    {
      "constant": true,
      "inputs": [],
      "name": "activatedEscrow",
      "outputs": [
        {
          "name": "",
          "type": "bool"
        }
      ],
      "payable": false,
      "stateMutability": "view",
      "type": "function"
    },
    {
      "inputs": [
        {
          "name": "_owners",
          "type": "address[]"
        },
        {
          "name": "_required",
          "type": "uint256"
        },
        {
          "name": "_escrowAddress",
          "type": "address"
        }
      ],
      "payable": false,
      "stateMutability": "nonpayable",
      "type": "constructor"
    },
    {
      "anonymous": false,
      "inputs": [
        {
          "indexed": false,
          "name": "owner",
          "type": "address"
        },
        {
          "indexed": false,
          "name": "operation",
          "type": "bytes32"
        }
      ],
      "name": "Confirmation",
      "type": "event"
    },
    {
      "anonymous": false,
      "inputs": [
        {
          "indexed": false,
          "name": "owner",
          "type": "address"
        },
        {
          "indexed": false,
          "name": "operation",
          "type": "bytes32"
        }
      ],
      "name": "Revoke",
      "type": "event"
    },
    {
      "anonymous": false,
      "inputs": [
        {
          "indexed": false,
          "name": "oldOwner",
          "type": "address"
        },
        {
          "indexed": false,
          "name": "newOwner",
          "type": "address"
        }
      ],
      "name": "OwnerChanged",
      "type": "event"
    },
    {
      "anonymous": false,
      "inputs": [
        {
          "indexed": false,
          "name": "newOwner",
          "type": "address"
        }
      ],
      "name": "OwnerAdded",
      "type": "event"
    },
    {
      "anonymous": false,
      "inputs": [
        {
          "indexed": false,
          "name": "oldOwner",
          "type": "address"
        }
      ],
      "name": "OwnerRemoved",
      "type": "event"
    },
    {
      "anonymous": false,
      "inputs": [
        {
          "indexed": false,
          "name": "newRequirement",
          "type": "uint256"
        }
      ],
      "name": "RequirementChanged",
      "type": "event"
    }
  ],
  "bytecode": "0x6060604052610105805460ff19169055341561001a57600080fd5b604051610d20380380610d208339810160405280805182019190602001805191906020018051915083905082600082516001908101815533600160a060020a031660038190556000908152610102602052604081209190915590505b82518110156100f15782818151811061008b57fe5b90602001906020020151600160a060020a0316600282810161010081106100ae57fe5b01556002810161010260008584815181106100c557fe5b90602001906020020151600160a060020a03168152602081019190915260400160002055600101610076565b50600055506101058054600160a060020a039092166101000261010060a860020a03199092169190911790555050610bf28061012e6000396000f3006060604052600436106100c45763ffffffff7c0100000000000000000000000000000000000000000000000000000000600035041663173825d981146100c95780632f54bf6e146100ea5780633e6494db1461011d5780634123cb6b146101305780637065cb4814610155578063746c917114610174578063b75c7dc614610187578063ba51a6df1461019d578063bb8236eb146101b3578063c2cf7326146101c6578063c41a360a146101e8578063f00d4b5d1461021a578063fcaeabae1461023f575b600080fd5b34156100d457600080fd5b6100e8600160a060020a0360043516610252565b005b34156100f557600080fd5b610109600160a060020a036004351661033f565b604051901515815260200160405180910390f35b341561012857600080fd5b61010961035c565b341561013b57600080fd5b6101436103d7565b60405190815260200160405180910390f35b341561016057600080fd5b6100e8600160a060020a03600435166103dd565b341561017f57600080fd5b6101436104d6565b341561019257600080fd5b6100e86004356104dc565b34156101a857600080fd5b6100e8600435610586565b34156101be57600080fd5b61010961060b565b34156101d157600080fd5b610109600435600160a060020a03602435166106a3565b34156101f357600080fd5b6101fe6004356106f8565b604051600160a060020a03909116815260200160405180910390f35b341561022557600080fd5b6100e8600160a060020a0360043581169060243516610713565b341561024a57600080fd5b610109610819565b6000803660405180838380828437820191505092505050604051809103902061027a81610823565b151561028557600080fd5b600160a060020a0383166000908152610102602052604090205491508115156102ad5761033a565b600180540360005411156102c05761033a565b600060028361010081106102d057fe5b0155600160a060020a038316600090815261010260205260408120556102f4610982565b6102fc610a05565b7f58619076adf5bb0943d100ef88d52d7c3fd691b19d3a9071b555b651fbf418da83604051600160a060020a03909116815260200160405180910390a15b505050565b600160a060020a0316600090815261010260205260408120541190565b6000803660405180838380828437820191505092505050604051809103902061038481610823565b151561038f57600080fd5b61010554600160a060020a0361010090910481169030163180156108fc0290604051600060405180830381858888f1935050505015156103ce57600080fd5b600191505b5090565b60015481565b60003660405180838380828437820191505092505050604051809103902061040481610823565b151561040f57600080fd5b6104188261033f565b15610422576104d2565b61042a610982565b60015460fa901061043d5761043d610a05565b60015460fa901061044d576104d2565b60018054810190819055600160a060020a03831690600290610100811061047057fe5b0155600154600160a060020a0383166000908152610102602052604090819020919091557f994a936646fe87ffe4f1e469d3d6aa417d6b855598397f323de5b449f765f0c390839051600160a060020a03909116815260200160405180910390a15b5050565b60005481565b600160a060020a03331660009081526101026020526040812054908082151561050457610580565b50506000828152610103602052604081206001810154600284900a929083161115610580578054600190810182558101805483900390557fc7fb647e59b18047309aa15aad418e5d7ca96d173ad704f1031a2c3d7591734b3385604051600160a060020a03909216825260208201526040908101905180910390a15b50505050565b6000366040518083838082843782019150509250505060405180910390206105ad81610823565b15156105b857600080fd5b6001548211156105c7576104d2565b60008290556105d4610982565b7facbdb084c721332ac59f9b8e392196c9eb0e4932862da8eb9beaf0dad4f550da8260405190815260200160405180910390a15050565b6000803660405180838380828437820191505092505050604051809103902061063381610823565b151561063e57600080fd5b61010554600160a060020a036101009091048116906108fc9061067e90600a9061067290301631600663ffffffff610b1e16565b9063ffffffff610b5416565b9081150290604051600060405180830381858888f1935050505015156103ce57600080fd5b600082815261010360209081526040808320600160a060020a0385168452610102909252822054828115156106db57600093506106ef565b8160020a9050808360010154166000141593505b50505092915050565b6000600260018301610100811061070b57fe5b015492915050565b6000803660405180838380828437820191505092505050604051809103902061073b81610823565b151561074657600080fd5b61074f8361033f565b1561075957610580565b600160a060020a03841660009081526101026020526040902054915081151561078157610580565b610789610982565b600160a060020a03831660028361010081106107a157fe5b0155600160a060020a038085166000908152610102602052604080822082905591851681528190208390557fb532073b38c83145e3e5135377a08bf9aab55bc0fd7c1179cd4fb995d2a5159c908590859051600160a060020a039283168152911660208201526040908101905180910390a150505050565b6101055460ff1681565b600160a060020a03331660009081526101026020526040812054818082151561084b5761097a565b600085815261010360205260409020805490925015156108aa5760008054835560018084019190915561010480549161088691908301610b6b565b600283018190556101048054879290811061089d57fe5b6000918252602090912001555b8260020a9050808260010154166000141561097a577fe1c52dc63b719ade82e8bea94cc41a0d5d28e4aaf536adb5e9cccc9ff8c1aeda3386604051600160a060020a03909216825260208201526040908101905180910390a181546001901161096757600085815261010360205260409020600201546101048054909190811061093057fe5b600091825260208083209091018290558682526101039052604081208181556001808201839055600290910191909155935061097a565b8154600019018255600182018054821790555b505050919050565b6101045460005b818110156109f8576101048054829081106109a057fe5b600091825260209091200154156109f0576101036000610104838154811015156109c657fe5b60009182526020808320909101548352820192909252604001812081815560018101829055600201555b600101610989565b6104d26101046000610b8f565b60015b600154811015610b1b575b60015481108015610a3257506002816101008110610a2d57fe5b015415155b15610a3f57600101610a13565b60018054118015610a6057506001546002906101008110610a5c57fe5b0154155b15610a745760018054600019019055610a3f565b60015481108015610a9657506001546002906101008110610a9157fe5b015415155b8015610aaf57506002816101008110610aab57fe5b0154155b15610b16576001546002906101008110610ac557fe5b01546002826101008110610ad557fe5b01558061010260006002836101008110610aeb57fe5b01548152602001908152602001600020819055506000600260015461010081101515610b1357fe5b01555b610a08565b50565b600080831515610b315760009150610b4d565b50828202828482811515610b4157fe5b0414610b4957fe5b8091505b5092915050565b6000808284811515610b6257fe5b04949350505050565b81548183558181151161033a5760008381526020902061033a918101908301610ba9565b5080546000825590600052602060002090810190610b1b91905b610bc391905b808211156103d35760008155600101610baf565b905600a165627a7a723058200bd24246aa65d45e2e4884035f3129b4eb08c7e6b24673d6dc9b8f6c802f5b7f0029",
  "source": "pragma solidity ^0.4.19;\n\nimport \"./SafeMath.sol\";\nimport \"./Ownable.sol\";\nimport \"./MFC_coin.sol\";\nimport \"./multiowned.sol\";\n\n\ncontract Holder is multiowned {\n    using SafeMath for uint256;\n    // All ICOs finished flag\n    bool public activatedEscrow = false;\n\n    address escrowAddress;\n\n\n    function Holder(address[] _owners, uint _required, address _escrowAddress) multiowned(_owners, _required) {\n        escrowAddress = _escrowAddress;\n    }\n\n    function escrowFirstStage() external onlymanyowners(sha3(msg.data)) returns (bool success){\n        escrowAddress.transfer(this.balance.mul(6).div(10));\n        //escrow 60% of got 50%\n        return true;\n    }\n\n    function escrowSecondStage() external onlymanyowners(sha3(msg.data)) returns (bool success){\n        escrowAddress.transfer(this.balance);\n        //escrow remaning 40%\n        return true;\n    }\n\n\n}",
  "sourcePath": "/home/savao/hg/smart-contracts/contracts/Holder.sol",
  "schemaVersion": "1.0.0",
  "updatedAt": "2018-02-16T13:47:57.384Z"
}