{
  "contractName": "Holder",
  "abi": [
    {
      "constant": true,
      "inputs": [],
      "name": "escrowAddress",
      "outputs": [
        {
          "name": "",
          "type": "address"
        }
      ],
      "payable": false,
      "stateMutability": "view",
      "type": "function"
    },
    {
      "constant": false,
      "inputs": [
        {
          "name": "_owner",
          "type": "address"
        }
      ],
      "name": "removeOwner",
      "outputs": [],
      "payable": false,
      "stateMutability": "nonpayable",
      "type": "function"
    },
    {
      "constant": true,
      "inputs": [
        {
          "name": "_addr",
          "type": "address"
        }
      ],
      "name": "isOwner",
      "outputs": [
        {
          "name": "",
          "type": "bool"
        }
      ],
      "payable": false,
      "stateMutability": "view",
      "type": "function"
    },
    {
      "constant": true,
      "inputs": [],
      "name": "m_numOwners",
      "outputs": [
        {
          "name": "",
          "type": "uint256"
        }
      ],
      "payable": false,
      "stateMutability": "view",
      "type": "function"
    },
    {
      "constant": true,
      "inputs": [],
      "name": "amIOwner",
      "outputs": [
        {
          "name": "",
          "type": "bool"
        }
      ],
      "payable": false,
      "stateMutability": "view",
      "type": "function"
    },
    {
      "constant": false,
      "inputs": [
        {
          "name": "_owner",
          "type": "address"
        }
      ],
      "name": "addOwner",
      "outputs": [],
      "payable": false,
      "stateMutability": "nonpayable",
      "type": "function"
    },
    {
      "constant": true,
      "inputs": [],
      "name": "m_multiOwnedRequired",
      "outputs": [
        {
          "name": "",
          "type": "uint256"
        }
      ],
      "payable": false,
      "stateMutability": "view",
      "type": "function"
    },
    {
      "constant": true,
      "inputs": [],
      "name": "getOwners",
      "outputs": [
        {
          "name": "",
          "type": "address[]"
        }
      ],
      "payable": false,
      "stateMutability": "view",
      "type": "function"
    },
    {
      "constant": false,
      "inputs": [
        {
          "name": "_operation",
          "type": "bytes32"
        }
      ],
      "name": "revoke",
      "outputs": [],
      "payable": false,
      "stateMutability": "nonpayable",
      "type": "function"
    },
    {
      "constant": false,
      "inputs": [
        {
          "name": "_newRequired",
          "type": "uint256"
        }
      ],
      "name": "changeRequirement",
      "outputs": [],
      "payable": false,
      "stateMutability": "nonpayable",
      "type": "function"
    },
    {
      "constant": true,
      "inputs": [
        {
          "name": "_operation",
          "type": "bytes32"
        },
        {
          "name": "_owner",
          "type": "address"
        }
      ],
      "name": "hasConfirmed",
      "outputs": [
        {
          "name": "",
          "type": "bool"
        }
      ],
      "payable": false,
      "stateMutability": "view",
      "type": "function"
    },
    {
      "constant": true,
      "inputs": [
        {
          "name": "ownerIndex",
          "type": "uint256"
        }
      ],
      "name": "getOwner",
      "outputs": [
        {
          "name": "",
          "type": "address"
        }
      ],
      "payable": false,
      "stateMutability": "view",
      "type": "function"
    },
    {
      "constant": false,
      "inputs": [
        {
          "name": "_from",
          "type": "address"
        },
        {
          "name": "_to",
          "type": "address"
        }
      ],
      "name": "changeOwner",
      "outputs": [],
      "payable": false,
      "stateMutability": "nonpayable",
      "type": "function"
    },
    {
      "inputs": [
        {
          "name": "_owners",
          "type": "address[]"
        },
        {
          "name": "_required",
          "type": "uint256"
        },
        {
          "name": "_escrowAddress",
          "type": "address"
        }
      ],
      "payable": false,
      "stateMutability": "nonpayable",
      "type": "constructor"
    },
    {
      "payable": true,
      "stateMutability": "payable",
      "type": "fallback"
    },
    {
      "anonymous": false,
      "inputs": [
        {
          "indexed": false,
          "name": "owner",
          "type": "address"
        },
        {
          "indexed": false,
          "name": "operation",
          "type": "bytes32"
        }
      ],
      "name": "Confirmation",
      "type": "event"
    },
    {
      "anonymous": false,
      "inputs": [
        {
          "indexed": false,
          "name": "owner",
          "type": "address"
        },
        {
          "indexed": false,
          "name": "operation",
          "type": "bytes32"
        }
      ],
      "name": "Revoke",
      "type": "event"
    },
    {
      "anonymous": false,
      "inputs": [
        {
          "indexed": false,
          "name": "owner",
          "type": "address"
        },
        {
          "indexed": false,
          "name": "operation",
          "type": "bytes32"
        }
      ],
      "name": "FinalConfirmation",
      "type": "event"
    },
    {
      "anonymous": false,
      "inputs": [
        {
          "indexed": false,
          "name": "oldOwner",
          "type": "address"
        },
        {
          "indexed": false,
          "name": "newOwner",
          "type": "address"
        }
      ],
      "name": "OwnerChanged",
      "type": "event"
    },
    {
      "anonymous": false,
      "inputs": [
        {
          "indexed": false,
          "name": "newOwner",
          "type": "address"
        }
      ],
      "name": "OwnerAdded",
      "type": "event"
    },
    {
      "anonymous": false,
      "inputs": [
        {
          "indexed": false,
          "name": "oldOwner",
          "type": "address"
        }
      ],
      "name": "OwnerRemoved",
      "type": "event"
    },
    {
      "anonymous": false,
      "inputs": [
        {
          "indexed": false,
          "name": "newRequirement",
          "type": "uint256"
        }
      ],
      "name": "RequirementChanged",
      "type": "event"
    },
    {
      "constant": false,
      "inputs": [],
      "name": "escrowFirstStage",
      "outputs": [
        {
          "name": "success",
          "type": "bool"
        }
      ],
      "payable": false,
      "stateMutability": "nonpayable",
      "type": "function"
    },
    {
      "constant": false,
      "inputs": [],
      "name": "escrowSecondStage",
      "outputs": [
        {
          "name": "success",
          "type": "bool"
        }
      ],
      "payable": false,
      "stateMutability": "nonpayable",
      "type": "function"
    },
    {
      "constant": false,
      "inputs": [
        {
          "name": "_newAddress",
          "type": "address"
        }
      ],
      "name": "changeEscrowAddress",
      "outputs": [
        {
          "name": "success",
          "type": "bool"
        }
      ],
      "payable": false,
      "stateMutability": "nonpayable",
      "type": "function"
    }
  ],
  "bytecode": "0x606060405234156200001057600080fd5b604051620012aa380380620012aa833981016040528080518201919060200180519190602001805191508390508260008080845160008111801562000056575060fa8111155b15156200006257600080fd5b848651600082118015620000765750808211155b15156200008257600080fd5b8751600155600087815595505b87518610156200015757878681518110620000a657fe5b906020019060200201519450600160a060020a03851615801590620000e15750620000df8564010000000062000466620001a282021704565b155b1515620000ed57600080fd5b620001096001870164010000000062000d4b620001bf82021704565b93508460028561010081106200011b57fe5b018054600160a060020a031916600160a060020a039283161790558516600090815261010260205260409020849055600195909501946200008f565b6200016f64010000000062000c5e620001df82021704565b50506101058054600160a060020a031916600160a060020a03989098169790971790965550620002319650505050505050565b600160a060020a0316600090815261010260205260408120541190565b60008115801590620001d2575060fa8211155b1515620001db57fe5b5090565b60015460009011620001ed57fe5b60015460fa901115620001fc57fe5b600254600160a060020a0316156200021057fe5b6000541580159062000226575060015460005411155b15156200022f57fe5b565b61106980620002416000396000f3006060604052600436106100e55763ffffffff7c01000000000000000000000000000000000000000000000000000000006000350416630d5defa481146100e7578063173825d9146101165780632f54bf6e1461013557806338d5630b146101685780633e6494db146101875780634123cb6b1461019a5780634e4ab830146101bf5780637065cb48146101d2578063787d64e4146101f1578063a0e67e2b14610204578063b75c7dc61461026a578063ba51a6df14610280578063bb8236eb14610296578063c2cf7326146102a9578063c41a360a146102cb578063f00d4b5d146102e1575b005b34156100f257600080fd5b6100fa610306565b604051600160a060020a03909116815260200160405180910390f35b341561012157600080fd5b6100e5600160a060020a0360043516610316565b341561014057600080fd5b610154600160a060020a0360043516610466565b604051901515815260200160405180910390f35b341561017357600080fd5b610154600160a060020a0360043516610483565b341561019257600080fd5b6101546104d3565b34156101a557600080fd5b6101ad610543565b60405190815260200160405180910390f35b34156101ca57600080fd5b610154610549565b34156101dd57600080fd5b6100e5600160a060020a0360043516610566565b34156101fc57600080fd5b6101ad610683565b341561020f57600080fd5b610217610689565b60405160208082528190810183818151815260200191508051906020019060200280838360005b8381101561025657808201518382015260200161023e565b505050509050019250505060405180910390f35b341561027557600080fd5b6100e5600435610701565b341561028b57600080fd5b6100e56004356107ca565b34156102a157600080fd5b61015461085b565b34156102b457600080fd5b610154600435600160a060020a03602435166108e8565b34156102d657600080fd5b6100fa60043561093d565b34156102ec57600080fd5b6100e5600160a060020a0360043581169060243516610961565b61010554600160a060020a031681565b60008161032281610466565b151561032d57600080fd5b6001805403600081118015610343575060fa8111155b151561034e57600080fd5b60005460018054036000821180156103665750808211155b151561037157600080fd5b60003660405180838380828437820191505092505050604051809103902061039881610a8d565b1561045d576103a5610c5e565b6103ad610cab565b600160a060020a038716600090815261010260205260409020546103d090610d4b565b9550600060028761010081106103e257fe5b018054600160a060020a031916600160a060020a03928316179055871660009081526101026020526040812055610417610d65565b61041f610c5e565b7f58619076adf5bb0943d100ef88d52d7c3fd691b19d3a9071b555b651fbf418da87604051600160a060020a03909116815260200160405180910390a15b50505050505050565b600160a060020a0316600090815261010260205260408120541190565b600080366040518083838082843782019150509250505060405180910390206104ab81610a8d565b156104cd576101058054600160a060020a031916600160a060020a0385161790555b50919050565b600080366040518083838082843782019150509250505060405180910390206104fb81610a8d565b1561053f5761010554600160a060020a039081169030163180156108fc0290604051600060405180830381858888f19350505050151561053a57600080fd5b600191505b5090565b60015481565b600061055433610466565b151561055f57600080fd5b5060015b90565b8061057081610466565b1561057a57600080fd5b600154600101600081118015610591575060fa8111155b151561059c57600080fd5b6000366040518083838082843782019150509250505060405180910390206105c381610a8d565b1561067d576105d0610c5e565b6105d8610cab565b60018054810190819055849060029061010081106105f257fe5b018054600160a060020a031916600160a060020a039290921691909117905560015461061d90610d4b565b600160a060020a0385166000908152610102602052604090205561063f610c5e565b7f994a936646fe87ffe4f1e469d3d6aa417d6b855598397f323de5b449f765f0c384604051600160a060020a03909116815260200160405180910390a15b50505050565b60005481565b610691610fce565b610699610fce565b60006001546040518059106106ab5750595b90808252806020026020018201604052509150600090505b6001548110156104cd576106d68161093d565b8282815181106106e257fe5b600160a060020a039092166020928302909101909101526001016106c3565b6000808261070e81610eef565b151561071957600080fd5b61072233610466565b151561072d57600080fd5b61073633610f04565b600085815261010360205260408120600181015492955093509084161161075c57600080fd5b61076584610f33565b81546001908101835582018054849003905561078084610f33565b7fc7fb647e59b18047309aa15aad418e5d7ca96d173ad704f1031a2c3d7591734b3385604051600160a060020a03909216825260208201526040908101905180910390a150505050565b806001546000821180156107de5750808211155b15156107e957600080fd5b60003660405180838380828437820191505092505050604051809103902061081081610a8d565b1561067d576000849055610822610cab565b7facbdb084c721332ac59f9b8e392196c9eb0e4932862da8eb9beaf0dad4f550da8460405190815260200160405180910390a150505050565b6000803660405180838380828437820191505092505050604051809103902061088381610a8d565b1561053f5761010554600160a060020a03908116906108fc906108c390600a906108b790301631600663ffffffff610f8116565b9063ffffffff610fb716565b9081150290604051600060405180830381858888f19350505050151561053a57600080fd5b6000826108f481610eef565b15156108ff57600080fd5b8261090981610466565b151561091457600080fd5b61091d84610f04565b600086815261010360205260409020600101541615159250505092915050565b6000600260018301610100811061095057fe5b0154600160a060020a031692915050565b60008261096d81610466565b151561097857600080fd5b8261098281610466565b1561098c57600080fd5b6000366040518083838082843782019150509250505060405180910390206109b381610a8d565b15610a85576109c0610c5e565b6109c8610cab565b600160a060020a038616600090815261010260205260409020546109eb90610d4b565b93508460028561010081106109fc57fe5b018054600160a060020a031916600160a060020a0392831617905586811660009081526101026020526040808220829055918716815220849055610a3e610c5e565b7fb532073b38c83145e3e5135377a08bf9aab55bc0fd7c1179cd4fb995d2a5159c8686604051600160a060020a039283168152911660208201526040908101905180910390a15b505050505050565b6000806000610a9b33610466565b1515610aa657600080fd5b610104546102001415610abb57610abb610cab565b6000848152610103602052604090209150610ad584610eef565b1515610b2857600080548355600180840191909155610104805491610afc91908301610fe0565b6002830181905561010480548692908110610b1357fe5b600091825260209091200155610b2884610f33565b610b3133610f04565b90508082600101541660001415610c5757815460009011610b4e57fe5b815460011415610bf7576000848152610103602052604090206002015461010480549091908110610b7b57fe5b600091825260208083209091018290558582526101039052604080822082815560018101839055600201919091557f367569357efc39b74a025c4ba1d64068b2b574e3b0d081c48d42f7feeca4cd16903390869051600160a060020a03909216825260208201526040908101905180910390a160019250610c57565b815460001901825560018201805482179055610c1284610f33565b7fe1c52dc63b719ade82e8bea94cc41a0d5d28e4aaf536adb5e9cccc9ff8c1aeda3385604051600160a060020a03909216825260208201526040908101905180910390a15b5050919050565b60015460009011610c6b57fe5b60015460fa901115610c7957fe5b600254600160a060020a031615610c8c57fe5b60005415801590610ca1575060015460005411155b1515610ca957fe5b565b600080610cb733610466565b1515610cc257600080fd5b50506101045460005b81811015610d3a57610104805482908110610ce257fe5b60009182526020909120015415610d3257610103600061010483815481101515610d0857fe5b60009182526020808320909101548352820192909252604001812081815560018101829055600201555b600101610ccb565b610d476101046000611009565b5050565b60008115801590610d5d575060fa8211155b151561053f57fe5b60015b600154811015610eec575b60015481108015610d9b57506002816101008110610d8d57fe5b0154600160a060020a031615155b15610da857600101610d73565b60018054118015610dd257506001546002906101008110610dc557fe5b0154600160a060020a0316155b15610de65760018054600019019055610da8565b60015481108015610e1157506001546002906101008110610e0357fe5b0154600160a060020a031615155b8015610e3357506002816101008110610e2657fe5b0154600160a060020a0316155b15610ee7576001546002906101008110610e4957fe5b0154600160a060020a03166002826101008110610e6257fe5b018054600160a060020a031916600160a060020a03929092169190911790558061010260006002836101008110610e9557fe5b0154600160a060020a0316815260208101919091526040016000908120919091556001546002906101008110610ec757fe5b018054600160a060020a031916600160a060020a03929092169190911790555b610d68565b50565b60009081526101036020526040902054151590565b600160a060020a038116600090815261010260205260408120548190610f2990610d4b565b60020a9392505050565b60008181526101036020526040902080541515610f4c57fe5b600281015461010480548492908110610f6157fe5b60009182526020909120015414610f7457fe5b60005481541115610d4757fe5b600080831515610f945760009150610fb0565b50828202828482811515610fa457fe5b0414610fac57fe5b8091505b5092915050565b6000808284811515610fc557fe5b04949350505050565b60206040519081016040526000815290565b81548183558181151161100457600083815260209020611004918101908301611023565b505050565b5080546000825590600052602060002090810190610eec91905b61056391905b8082111561053f57600081556001016110295600a165627a7a7230582058b793cf038b87b04635e2ec87e6aba232293184d136fb63d8ff3582c319c19c0029",
  "source": "pragma solidity ^0.4.19;\n\nimport \"./SafeMath.sol\";\nimport \"./multiowned.sol\";\n\n\ncontract Holder is multiowned {\n    using SafeMath for uint256;\n\n    address public escrowAddress;\n\n\n    function Holder(address[] _owners, uint _required, address _escrowAddress) multiowned(_owners, _required) {\n        escrowAddress = _escrowAddress;\n    }\n\n    function () payable {}\n\n    function escrowFirstStage() external onlymanyowners(sha3(msg.data)) returns (bool success){\n        escrowAddress.transfer(this.balance.mul(6).div(10));\n        //escrow 60% of got 50%\n        return true;\n    }\n\n    function escrowSecondStage() external onlymanyowners(sha3(msg.data)) returns (bool success){\n        escrowAddress.transfer(this.balance);\n        //escrow remaning 40%\n        return true;\n    }\n\n    function changeEscrowAddress(address _newAddress) external onlymanyowners(sha3(msg.data)) returns (bool success) {\n        escrowAddress = _newAddress;\n    }\n\n\n}",
  "sourcePath": "C:\\Workspace\\mfc\\smart-contracts\\contracts\\Holder.sol",
  "compiler": {
    "name": "solc",
    "version": "0.4.19+commit.c4cbbb05.Emscripten.clang"
  },
  "schemaVersion": "2.0.0",
  "updatedAt": "2018-03-24T23:30:02.251Z"
}