{
  "contractName": "ICO_controller",
  "abi": [
    {
      "constant": false,
      "inputs": [
        {
          "name": "_startTime",
          "type": "uint256"
        },
        {
          "name": "_endTime",
          "type": "uint256"
        },
        {
          "name": "_rate",
          "type": "uint256"
        }
      ],
      "name": "startPrivateOffer",
      "outputs": [],
      "payable": false,
      "stateMutability": "nonpayable",
      "type": "function"
    },
    {
      "constant": true,
      "inputs": [
        {
          "name": "",
          "type": "address"
        }
      ],
      "name": "buyersWhitelist",
      "outputs": [
        {
          "name": "",
          "type": "bool"
        }
      ],
      "payable": false,
      "stateMutability": "view",
      "type": "function"
    },
    {
      "constant": false,
      "inputs": [
        {
          "name": "buyer",
          "type": "address"
        }
      ],
      "name": "isAddressWhitelisted",
      "outputs": [
        {
          "name": "isWhitelisted",
          "type": "bool"
        }
      ],
      "payable": false,
      "stateMutability": "nonpayable",
      "type": "function"
    },
    {
      "constant": true,
      "inputs": [],
      "name": "Q3_2019_START_DATE",
      "outputs": [
        {
          "name": "",
          "type": "uint256"
        }
      ],
      "payable": false,
      "stateMutability": "view",
      "type": "function"
    },
    {
      "constant": false,
      "inputs": [
        {
          "name": "_buyer",
          "type": "address"
        }
      ],
      "name": "removeBuyerFromWhitelist",
      "outputs": [
        {
          "name": "success",
          "type": "bool"
        }
      ],
      "payable": false,
      "stateMutability": "nonpayable",
      "type": "function"
    },
    {
      "constant": true,
      "inputs": [],
      "name": "releaseMarketingTokenAmount",
      "outputs": [
        {
          "name": "",
          "type": "uint256"
        }
      ],
      "payable": false,
      "stateMutability": "view",
      "type": "function"
    },
    {
      "constant": false,
      "inputs": [],
      "name": "getDevReward",
      "outputs": [],
      "payable": false,
      "stateMutability": "nonpayable",
      "type": "function"
    },
    {
      "constant": true,
      "inputs": [
        {
          "name": "",
          "type": "uint256"
        }
      ],
      "name": "unlockMarketingTokensTime",
      "outputs": [
        {
          "name": "",
          "type": "uint256"
        }
      ],
      "payable": false,
      "stateMutability": "view",
      "type": "function"
    },
    {
      "constant": false,
      "inputs": [
        {
          "name": "_devAddress",
          "type": "address"
        },
        {
          "name": "_amount",
          "type": "uint256"
        }
      ],
      "name": "addDevReward",
      "outputs": [
        {
          "name": "success",
          "type": "bool"
        }
      ],
      "payable": false,
      "stateMutability": "nonpayable",
      "type": "function"
    },
    {
      "constant": false,
      "inputs": [
        {
          "name": "_buyers",
          "type": "address[]"
        }
      ],
      "name": "addBuyers",
      "outputs": [
        {
          "name": "success",
          "type": "bool"
        }
      ],
      "payable": false,
      "stateMutability": "nonpayable",
      "type": "function"
    },
    {
      "constant": true,
      "inputs": [],
      "name": "Q4_2019_START_DATE",
      "outputs": [
        {
          "name": "",
          "type": "uint256"
        }
      ],
      "payable": false,
      "stateMutability": "view",
      "type": "function"
    },
    {
      "constant": true,
      "inputs": [],
      "name": "PRIVATE_OFFER_SUPPLY",
      "outputs": [
        {
          "name": "",
          "type": "uint256"
        }
      ],
      "payable": false,
      "stateMutability": "view",
      "type": "function"
    },
    {
      "constant": false,
      "inputs": [
        {
          "name": "_buyer",
          "type": "address"
        },
        {
          "name": "_amount",
          "type": "uint256"
        }
      ],
      "name": "addBuyerSpent",
      "outputs": [],
      "payable": false,
      "stateMutability": "nonpayable",
      "type": "function"
    },
    {
      "constant": false,
      "inputs": [
        {
          "name": "_startTime",
          "type": "uint256"
        },
        {
          "name": "_endTime",
          "type": "uint256"
        },
        {
          "name": "_rate",
          "type": "uint256"
        }
      ],
      "name": "startPreSaleIco",
      "outputs": [],
      "payable": false,
      "stateMutability": "nonpayable",
      "type": "function"
    },
    {
      "constant": true,
      "inputs": [],
      "name": "CROWDSALE_SUPPLY",
      "outputs": [
        {
          "name": "",
          "type": "uint256"
        }
      ],
      "payable": false,
      "stateMutability": "view",
      "type": "function"
    },
    {
      "constant": true,
      "inputs": [],
      "name": "privateOffer",
      "outputs": [
        {
          "name": "",
          "type": "address"
        }
      ],
      "payable": false,
      "stateMutability": "view",
      "type": "function"
    },
    {
      "constant": false,
      "inputs": [],
      "name": "refund",
      "outputs": [
        {
          "name": "success",
          "type": "bool"
        }
      ],
      "payable": false,
      "stateMutability": "nonpayable",
      "type": "function"
    },
    {
      "constant": false,
      "inputs": [
        {
          "name": "_devAddresses",
          "type": "address[]"
        },
        {
          "name": "_amounts",
          "type": "uint256[]"
        }
      ],
      "name": "addRewards",
      "outputs": [
        {
          "name": "success",
          "type": "bool"
        }
      ],
      "payable": false,
      "stateMutability": "nonpayable",
      "type": "function"
    },
    {
      "constant": true,
      "inputs": [],
      "name": "preSale",
      "outputs": [
        {
          "name": "",
          "type": "address"
        }
      ],
      "payable": false,
      "stateMutability": "view",
      "type": "function"
    },
    {
      "constant": true,
      "inputs": [],
      "name": "devRewardReleaseTime",
      "outputs": [
        {
          "name": "",
          "type": "uint256"
        }
      ],
      "payable": false,
      "stateMutability": "view",
      "type": "function"
    },
    {
      "constant": false,
      "inputs": [
        {
          "name": "_startTime",
          "type": "uint256"
        },
        {
          "name": "_endTime",
          "type": "uint256"
        },
        {
          "name": "_rate",
          "type": "uint256"
        }
      ],
      "name": "startCrowdsale",
      "outputs": [],
      "payable": false,
      "stateMutability": "nonpayable",
      "type": "function"
    },
    {
      "constant": true,
      "inputs": [],
      "name": "SOFTCUP",
      "outputs": [
        {
          "name": "",
          "type": "uint256"
        }
      ],
      "payable": false,
      "stateMutability": "view",
      "type": "function"
    },
    {
      "constant": true,
      "inputs": [
        {
          "name": "",
          "type": "address"
        }
      ],
      "name": "buyerSpent",
      "outputs": [
        {
          "name": "",
          "type": "uint256"
        }
      ],
      "payable": false,
      "stateMutability": "view",
      "type": "function"
    },
    {
      "constant": true,
      "inputs": [],
      "name": "owner",
      "outputs": [
        {
          "name": "",
          "type": "address"
        }
      ],
      "payable": false,
      "stateMutability": "view",
      "type": "function"
    },
    {
      "constant": true,
      "inputs": [],
      "name": "PRE_SALE_SUPPLY",
      "outputs": [
        {
          "name": "",
          "type": "uint256"
        }
      ],
      "payable": false,
      "stateMutability": "view",
      "type": "function"
    },
    {
      "constant": true,
      "inputs": [],
      "name": "totalSold",
      "outputs": [
        {
          "name": "",
          "type": "uint256"
        }
      ],
      "payable": false,
      "stateMutability": "view",
      "type": "function"
    },
    {
      "constant": true,
      "inputs": [
        {
          "name": "",
          "type": "address"
        }
      ],
      "name": "devRewards",
      "outputs": [
        {
          "name": "",
          "type": "uint256"
        }
      ],
      "payable": false,
      "stateMutability": "view",
      "type": "function"
    },
    {
      "constant": false,
      "inputs": [
        {
          "name": "_buyers",
          "type": "address[]"
        }
      ],
      "name": "removeBuyers",
      "outputs": [
        {
          "name": "success",
          "type": "bool"
        }
      ],
      "payable": false,
      "stateMutability": "nonpayable",
      "type": "function"
    },
    {
      "constant": true,
      "inputs": [],
      "name": "crowdsale",
      "outputs": [
        {
          "name": "",
          "type": "address"
        }
      ],
      "payable": false,
      "stateMutability": "view",
      "type": "function"
    },
    {
      "constant": true,
      "inputs": [],
      "name": "MAX_DEV_REWARD",
      "outputs": [
        {
          "name": "",
          "type": "uint256"
        }
      ],
      "payable": false,
      "stateMutability": "view",
      "type": "function"
    },
    {
      "constant": false,
      "inputs": [],
      "name": "finishCrowdsale",
      "outputs": [],
      "payable": false,
      "stateMutability": "nonpayable",
      "type": "function"
    },
    {
      "constant": false,
      "inputs": [
        {
          "name": "_buyer",
          "type": "address"
        }
      ],
      "name": "addBuyerToWhitelist",
      "outputs": [
        {
          "name": "success",
          "type": "bool"
        }
      ],
      "payable": false,
      "stateMutability": "nonpayable",
      "type": "function"
    },
    {
      "constant": true,
      "inputs": [],
      "name": "Q1_2019_START_DATE",
      "outputs": [
        {
          "name": "",
          "type": "uint256"
        }
      ],
      "payable": false,
      "stateMutability": "view",
      "type": "function"
    },
    {
      "constant": true,
      "inputs": [],
      "name": "Q2_2019_START_DATE",
      "outputs": [
        {
          "name": "",
          "type": "uint256"
        }
      ],
      "payable": false,
      "stateMutability": "view",
      "type": "function"
    },
    {
      "constant": false,
      "inputs": [],
      "name": "getLockedMarketingTokens",
      "outputs": [],
      "payable": false,
      "stateMutability": "nonpayable",
      "type": "function"
    },
    {
      "constant": true,
      "inputs": [],
      "name": "totalDevReward",
      "outputs": [
        {
          "name": "",
          "type": "uint256"
        }
      ],
      "payable": false,
      "stateMutability": "view",
      "type": "function"
    },
    {
      "constant": true,
      "inputs": [],
      "name": "holder",
      "outputs": [
        {
          "name": "",
          "type": "address"
        }
      ],
      "payable": false,
      "stateMutability": "view",
      "type": "function"
    },
    {
      "constant": true,
      "inputs": [],
      "name": "MARKETING_SUPPORT_SUPPLY",
      "outputs": [
        {
          "name": "",
          "type": "uint256"
        }
      ],
      "payable": false,
      "stateMutability": "view",
      "type": "function"
    },
    {
      "constant": true,
      "inputs": [],
      "name": "crowdsaleFinished",
      "outputs": [
        {
          "name": "",
          "type": "bool"
        }
      ],
      "payable": false,
      "stateMutability": "view",
      "type": "function"
    },
    {
      "constant": true,
      "inputs": [],
      "name": "Q3_2018_START_DATE",
      "outputs": [
        {
          "name": "",
          "type": "uint256"
        }
      ],
      "payable": false,
      "stateMutability": "view",
      "type": "function"
    },
    {
      "constant": false,
      "inputs": [
        {
          "name": "newOwner",
          "type": "address"
        }
      ],
      "name": "transferOwnership",
      "outputs": [],
      "payable": false,
      "stateMutability": "nonpayable",
      "type": "function"
    },
    {
      "constant": true,
      "inputs": [],
      "name": "unlockIndex",
      "outputs": [
        {
          "name": "",
          "type": "uint256"
        }
      ],
      "payable": false,
      "stateMutability": "view",
      "type": "function"
    },
    {
      "constant": true,
      "inputs": [],
      "name": "INCENTIVE_PROGRAM_SUPPORT",
      "outputs": [
        {
          "name": "",
          "type": "uint256"
        }
      ],
      "payable": false,
      "stateMutability": "view",
      "type": "function"
    },
    {
      "constant": true,
      "inputs": [],
      "name": "token",
      "outputs": [
        {
          "name": "",
          "type": "address"
        }
      ],
      "payable": false,
      "stateMutability": "view",
      "type": "function"
    },
    {
      "inputs": [
        {
          "name": "_holder",
          "type": "address"
        },
        {
          "name": "_incentive_program",
          "type": "address"
        }
      ],
      "payable": false,
      "stateMutability": "nonpayable",
      "type": "constructor"
    },
    {
      "payable": true,
      "stateMutability": "payable",
      "type": "fallback"
    },
    {
      "anonymous": false,
      "inputs": [
        {
          "indexed": true,
          "name": "previousOwner",
          "type": "address"
        },
        {
          "indexed": true,
          "name": "newOwner",
          "type": "address"
        }
      ],
      "name": "OwnershipTransferred",
      "type": "event"
    }
  ],
  "bytecode": "0x60606040526200000e6200016e565b604051809103906000f08015156200002557600080fd5b60018054600160a060020a031916600160a060020a03929092169190911790556200006b6a52b7d2dcc80cd2e40000006004640100000000620001568102620018081704565b60105534156200007a57600080fd5b6040516040806200303d833981016040528080519190602001805160008054600160a060020a03191633600160a060020a0316179055915062794a00905043600019014006635b38198001600a5562794a0043600119014006635c2aad8001600b6000015562794a0060021943014006635ca1548001600b6001015562794a0060031943014006635d194d0001600b6002015562794a0060041943014006635d92970001600b6003015560028054600160a060020a03938416600160a060020a031991821617909155600680549290931691161790556200017f565b60008082848115156200016557fe5b04949350505050565b604051610d2e806200230f83390190565b612180806200018f6000396000f3006060604052600436106102005763ffffffff60e060020a600035041663078cbedd811461020257806308d52d461461021e57806313f44d101461025157806314c46e3f14610270578063274cc693146102955780632955316f146102b45780632ffbbcec146102c757806331ef54d9146102da57806333fa9d4b146102f0578063425c4e6f14610312578063473a157d1461033057806348f4e8bf1461034357806350c1bdf21461035657806351df2cd71461037857806356ad9f57146103945780635758b804146103a7578063590e1ae3146103d6578063595a90f2146103e95780635a7adf7f1461041357806369997261146104265780636c82fb23146104395780636d20c3b1146104555780638475fcac146104685780638da5cb5b146104875780638e0c09b21461049a5780639106d7ba146104ad57806392a8675d146104c057806398b3f7e2146104df5780639c1e03a0146104fd578063a818e81614610510578063b80cdcf614610523578063b88a80d514610536578063b9895a8c14610555578063ccb887bc14610568578063d1ef30631461057b578063d8e1a97f1461058e578063e534155d146105a1578063e647e19f146105b4578063ece84fd5146105c7578063edba3df2146105da578063f2fde38b146105ed578063f41663881461060c578063f67004811461061f578063fc0c546a14610632575b005b341561020d57600080fd5b610200600435602435604435610645565b341561022957600080fd5b61023d600160a060020a0360043516610788565b604051901515815260200160405180910390f35b341561025c57600080fd5b61023d600160a060020a036004351661079d565b341561027b57600080fd5b6102836107bf565b60405190815260200160405180910390f35b34156102a057600080fd5b61023d600160a060020a03600435166107c7565b34156102bf57600080fd5b610283610839565b34156102d257600080fd5b61020061083f565b34156102e557600080fd5b6102836004356108eb565b34156102fb57600080fd5b61023d600160a060020a03600435166024356108ff565b341561031d57600080fd5b61023d60048035602481019101356109bd565b341561033b57600080fd5b610283610a1e565b341561034e57600080fd5b610283610a26565b341561036157600080fd5b610200600160a060020a0360043516602435610a35565b341561038357600080fd5b610200600435602435604435610acd565b341561039f57600080fd5b610283610ceb565b34156103b257600080fd5b6103ba610cfa565b604051600160a060020a03909116815260200160405180910390f35b34156103e157600080fd5b61023d610d09565b34156103f457600080fd5b61023d6024600480358281019290820135918135918201910135610f2c565b341561041e57600080fd5b6103ba610fb0565b341561043157600080fd5b610283610fbf565b341561044457600080fd5b610200600435602435604435610fc5565b341561046057600080fd5b6102836111ca565b341561047357600080fd5b610283600160a060020a03600435166111d7565b341561049257600080fd5b6103ba6111e9565b34156104a557600080fd5b6102836111f8565b34156104b857600080fd5b610283611207565b34156104cb57600080fd5b610283600160a060020a036004351661120d565b34156104ea57600080fd5b61023d600480356024810191013561121f565b341561050857600080fd5b6103ba611276565b341561051b57600080fd5b610283611285565b341561052e57600080fd5b610200611294565b341561054157600080fd5b61023d600160a060020a036004351661159d565b341561056057600080fd5b6102836115f7565b341561057357600080fd5b6102836115ff565b341561058657600080fd5b610200611607565b341561059957600080fd5b6102836116ec565b34156105ac57600080fd5b6103ba6116f2565b34156105bf57600080fd5b610283611701565b34156105d257600080fd5b61023d611710565b34156105e557600080fd5b610283611719565b34156105f857600080fd5b610200600160a060020a0360043516611721565b341561061757600080fd5b6102836117bc565b341561062a57600080fd5b6102836117c2565b341561063d57600080fd5b6103ba6117d1565b60005433600160a060020a0390811691161461066057600080fd5b600754600160a060020a03161561067657600080fd5b6001548390839083903090600160a060020a031661069261181f565b9485526020850193909352604080850192909252600160a060020a039081166060850152909116608083015260a09091019051809103906000f08015156106d857600080fd5b6007805473ffffffffffffffffffffffffffffffffffffffff1916600160a060020a03928316179081905560015482169163a9059cbb91166a05ca4ec2a79a7f6700000060006040516020015260405160e060020a63ffffffff8516028152600160a060020a0390921660048301526024820152604401602060405180830381600087803b151561076857600080fd5b6102c65a03f1151561077957600080fd5b50505060405180515050505050565b60036020526000908152604090205460ff1681565b600160a060020a03811660009081526003602052604090205460ff165b919050565b635d194d0081565b6000805433600160a060020a039081169116146107e357600080fd5b600160a060020a03821660009081526003602052604090205460ff161515600114156108315750600160a060020a0381166000908152600360205260409020805460ff1916905560016107ba565b506000919050565b60105481565b600042600a5410151561085157600080fd5b50600160a060020a03338181166000908152600560205260408082208054908390556001549094169263a9059cbb929091859190516020015260405160e060020a63ffffffff8516028152600160a060020a0390921660048301526024820152604401602060405180830381600087803b15156108cd57600080fd5b6102c65a03f115156108de57600080fd5b5050506040518051505050565b600b81600481106108f857fe5b0154905081565b6000805433600160a060020a0390811691161461091b57600080fd5b8161093c6011546a21165458500521280000006117e090919063ffffffff16565b101561094757600080fd5b600160a060020a038316151561095c57600080fd5b60115461096f908363ffffffff6117f216565b601155600160a060020a03831660009081526005602052604090205461099b908363ffffffff6117f216565b600160a060020a03841660009081526005602052604090205550600192915050565b60008054819033600160a060020a039081169116146109db57600080fd5b5060005b82811015610a1457610a0b8484838181106109f657fe5b90506020020135600160a060020a031661159d565b506001016109df565b5060019392505050565b635d92970081565b6a05ca4ec2a79a7f6700000081565b60075433600160a060020a0390811691161480610a60575060085433600160a060020a039081169116145b80610a79575060095433600160a060020a039081169116145b1515610a8457600080fd5b600160a060020a038216600090815260046020526040902054610aad908263ffffffff6117f216565b600160a060020a0390921660009081526004602052604090209190915550565b60005433600160a060020a03908116911614610ae857600080fd5b600754600160a060020a03161515610aff57600080fd5b600854600160a060020a031615610b1557600080fd5b600754600160a060020a031663ecb70fb76000604051602001526040518163ffffffff1660e060020a028152600401602060405180830381600087803b1515610b5d57600080fd5b6102c65a03f11515610b6e57600080fd5b505050604051805115156001149050610b8657600080fd5b6001548390839083903090600160a060020a0316610ba261181f565b9485526020850193909352604080850192909252600160a060020a039081166060850152909116608083015260a09091019051809103906000f0801515610be857600080fd5b6008805473ffffffffffffffffffffffffffffffffffffffff1916600160a060020a03928316179081905560015482169163a9059cbb91166a1dc74be914d16aa400000060006040516020015260405160e060020a63ffffffff8516028152600160a060020a0390921660048301526024820152604401602060405180830381600087803b1515610c7857600080fd5b6102c65a03f11515610c8957600080fd5b50505060405180515050600754600160a060020a03166383408d736040518163ffffffff1660e060020a028152600401600060405180830381600087803b1515610cd257600080fd5b6102c65a03f11515610ce357600080fd5b505050505050565b6ac40ab3be73b7fe0d00000081565b600754600160a060020a031681565b6009546000908190600160a060020a03161515610d2557600080fd5b600954600160a060020a031663ecb70fb76000604051602001526040518163ffffffff1660e060020a028152600401602060405180830381600087803b1515610d6d57600080fd5b6102c65a03f11515610d7e57600080fd5b505050604051805190501515610d9357600080fd5b6012541515610ec357600954610ebf90610e7790600160a060020a03166340582f136000604051602001526040518163ffffffff1660e060020a028152600401602060405180830381600087803b1515610dec57600080fd5b6102c65a03f11515610dfd57600080fd5b5050506040518051600854909150600160a060020a03166340582f136000604051602001526040518163ffffffff1660e060020a028152600401602060405180830381600087803b1515610e5057600080fd5b6102c65a03f11515610e6157600080fd5b505050604051805191905063ffffffff6117f216565b600754600160a060020a03166340582f136000604051602001526040518163ffffffff1660e060020a028152600401602060405180830381600087803b1515610e5057600080fd5b6012555b60125468ffdf28905e43c000009010610edb57600080fd5b50600160a060020a033316600081815260046020526040808220805492905590919082156108fc0290839051600060405180830381858888f193505050501515610f2457600080fd5b600191505090565b60008054819033600160a060020a03908116911614610f4a57600080fd5b848314610f5657600080fd5b5060005b82811015610fa457610f9b868683818110610f7157fe5b90506020020135600160a060020a03168585848181101515610f8f57fe5b905060200201356108ff565b50600101610f5a565b50600195945050505050565b600854600160a060020a031681565b600a5481565b60005433600160a060020a03908116911614610fe057600080fd5b600854600160a060020a03161515610ff757600080fd5b600954600160a060020a03161561100d57600080fd5b600854600160a060020a031663ecb70fb76000604051602001526040518163ffffffff1660e060020a028152600401602060405180830381600087803b151561105557600080fd5b6102c65a03f1151561106657600080fd5b50505060405180511515600114905061107e57600080fd5b6001548390839083903090600160a060020a031661109a61181f565b9485526020850193909352604080850192909252600160a060020a039081166060850152909116608083015260a09091019051809103906000f08015156110e057600080fd5b6009805473ffffffffffffffffffffffffffffffffffffffff1916600160a060020a03928316179081905560015482169163a9059cbb91166ac40ab3be73b7fe0d00000060006040516020015260405160e060020a63ffffffff8516028152600160a060020a0390921660048301526024820152604401602060405180830381600087803b151561117057600080fd5b6102c65a03f1151561118157600080fd5b50505060405180515050600854600160a060020a03166383408d736040518163ffffffff1660e060020a028152600401600060405180830381600087803b1515610cd257600080fd5b68ffdf28905e43c0000081565b60046020526000908152604090205481565b600054600160a060020a031681565b6a1dc74be914d16aa400000081565b60125481565b60056020526000908152604090205481565b60008054819033600160a060020a0390811691161461123d57600080fd5b5060005b82811015610a145761126d84848381811061125857fe5b90506020020135600160a060020a03166107c7565b50600101611241565b600954600160a060020a031681565b6a211654585005212800000081565b60005433600160a060020a039081169116146112af57600080fd5b600954600160a060020a031615156112c657600080fd5b600954600160a060020a031663ecb70fb76000604051602001526040518163ffffffff1660e060020a028152600401602060405180830381600087803b151561130e57600080fd5b6102c65a03f1151561131f57600080fd5b50505060405180511515600114905061133757600080fd5b60135460ff161561134757600080fd5b600954600160a060020a03166383408d736040518163ffffffff1660e060020a028152600401600060405180830381600087803b151561138657600080fd5b6102c65a03f1151561139757600080fd5b50506009546113ea9150610e7790600160a060020a03166340582f136000604051602001526040518163ffffffff1660e060020a028152600401602060405180830381600087803b1515610dec57600080fd5b601281905568ffdf28905e43c00000901061158e57600154600654600160a060020a039182169163a9059cbb91166a422ca8b0a00a425000000060006040516020015260405160e060020a63ffffffff8516028152600160a060020a0390921660048301526024820152604401602060405180830381600087803b151561147057600080fd5b6102c65a03f1151561148157600080fd5b50505060405180515050600154601154600160a060020a03909116906342966c68906114bf906a21165458500521280000009063ffffffff6117e016565b60405160e060020a63ffffffff84160281526004810191909152602401600060405180830381600087803b15156114f557600080fd5b6102c65a03f1151561150657600080fd5b5050600054600160a060020a0390811691506108fc9061153090301631600263ffffffff61180816565b9081150290604051600060405180830381858888f19350505050151561155557600080fd5b600254600160a060020a039081169030163180156108fc0290604051600060405180830381858888f19350505050151561158e57600080fd5b6013805460ff19166001179055565b6000805433600160a060020a039081169116146115b957600080fd5b600160a060020a03821615156115ce57600080fd5b50600160a060020a03166000908152600360205260409020805460ff1916600190811790915590565b635c2aad8081565b635ca1548081565b6000805433600160a060020a0390811691161461162357600080fd5b600f546004901061163357600080fd5b42600b600f5460048110151561164557fe5b01541061165157600080fd5b506010805460009182905560015482549192600160a060020a039182169263a9059cbb92169084906040516020015260405160e060020a63ffffffff8516028152600160a060020a0390921660048301526024820152604401602060405180830381600087803b15156116c357600080fd5b6102c65a03f115156116d457600080fd5b50505060405180515050601055600f80546001019055565b60115481565b600254600160a060020a031681565b6a52b7d2dcc80cd2e400000081565b60135460ff1681565b635b38198081565b60005433600160a060020a0390811691161461173c57600080fd5b600160a060020a038116151561175157600080fd5b600054600160a060020a0380831691167f8be0079c531659141344cd1fd0a4f28419497f9722a3daafe3b4186f6b6457e060405160405180910390a36000805473ffffffffffffffffffffffffffffffffffffffff1916600160a060020a0392909216919091179055565b600f5481565b6a422ca8b0a00a425000000081565b600154600160a060020a031681565b6000828211156117ec57fe5b50900390565b60008282018381101561180157fe5b9392505050565b600080828481151561181657fe5b04949350505050565b604051610925806118308339019056006060604052341561000f57600080fd5b60405160a080610925833981016040528080519190602001805191906020018051919060200180519190602001805160008054600160a060020a03191633600160a060020a03161790559150504285101561006957600080fd5b8484101561007657600080fd5b6000831161008357600080fd5b600160a060020a038216151561009857600080fd5b600160a060020a03811615156100ad57600080fd5b60029490945560039290925560055560048054600160a060020a0319908116600160a060020a039384161790915560018054821693831693909317909255600780549092163390911617905561081d806101086000396000f3006060604052600436106100ab5763ffffffff60e060020a6000350416632c4e722e81146100b65780633197cbb6146100db5780634042b66f146100ee57806340582f1314610101578063521eb2731461011457806378e979251461014357806383408d73146101565780638da5cb5b14610169578063c0ee0b8a1461017c578063ec8ac4d8146101f5578063ecb70fb714610209578063f2fde38b1461021c578063fc0c546a1461023b575b6100b43361024e565b005b34156100c157600080fd5b6100c9610463565b60405190815260200160405180910390f35b34156100e657600080fd5b6100c9610469565b34156100f957600080fd5b6100c961046f565b341561010c57600080fd5b6100c9610475565b341561011f57600080fd5b61012761047a565b604051600160a060020a03909116815260200160405180910390f35b341561014e57600080fd5b6100c9610489565b341561016157600080fd5b6100b461048f565b341561017457600080fd5b6101276104ff565b341561018757600080fd5b6101e160048035600160a060020a03169060248035919060649060443590810190830135806020601f8201819004810201604051908101604052818152929190602084018383808284375094965061050e95505050505050565b604051901515815260200160405180910390f35b6100b4600160a060020a036004351661024e565b341561021457600080fd5b6101e1610517565b341561022757600080fd5b6100b4600160a060020a036004351661051f565b341561024657600080fd5b6101276105ba565b60008080600160a060020a038416151561026757600080fd5b61026f6105c9565b151561027a57600080fd5b3492506102868361067c565b600154909250600160a060020a03166370a082313060006040516020015260405160e060020a63ffffffff8416028152600160a060020a039091166004820152602401602060405180830381600087803b15156102e257600080fd5b6102c65a03f115156102f357600080fd5b50505060405180519150508082111561030b57600080fd5b60065461031e908463ffffffff61075f16565b600655600154600160a060020a031663a9059cbb858460006040516020015260405160e060020a63ffffffff8516028152600160a060020a0390921660048301526024820152604401602060405180830381600087803b151561038057600080fd5b6102c65a03f1151561039157600080fd5b505050604051805190505083600160a060020a031633600160a060020a03167f623b3804fa71d67900d064613da8f94b9617215ee90799290593e1745087ad18858560405191825260208201526040908101905180910390a36103f383610779565b600754600160a060020a03166350c1bdf2338560405160e060020a63ffffffff8516028152600160a060020a0390921660048301526024820152604401600060405180830381600087803b151561044957600080fd5b6102c65a03f1151561045a57600080fd5b50505050505050565b60055481565b60035481565b60065481565b600090565b600454600160a060020a031681565b60025481565b60005433600160a060020a039081169116146104aa57600080fd5b600154600160a060020a0316639975038c6040518163ffffffff1660e060020a028152600401600060405180830381600087803b15156104e957600080fd5b6102c65a03f115156104fa57600080fd5b505050565b600054600160a060020a031681565b60019392505050565b600354421190565b60005433600160a060020a0390811691161461053a57600080fd5b600160a060020a038116151561054f57600080fd5b600054600160a060020a0380831691167f8be0079c531659141344cd1fd0a4f28419497f9722a3daafe3b4186f6b6457e060405160405180910390a36000805473ffffffffffffffffffffffffffffffffffffffff1916600160a060020a0392909216919091179055565b600154600160a060020a031681565b60008060008060025442101580156105e357506003544211155b6007549093503415159250600160a060020a03166313f44d103360006040516020015260405160e060020a63ffffffff8416028152600160a060020a039091166004820152602401602060405180830381600087803b151561064457600080fd5b6102c65a03f1151561065557600080fd5b50505060405180519050905082801561066b5750815b80156106745750805b935050505090565b6000806000610696600554856107af90919063ffffffff16565b915060009050674563918244f400008410156106b157610747565b678ac7230489e800008410156106d9576106d282600a63ffffffff6107da16565b9050610747565b68015af1d78b58c4000084101561070c576106d2606461070084600f63ffffffff6107af16565b9063ffffffff6107da16565b68056bc75e2d63100000841015610733576106d2606461070084601163ffffffff6107af16565b61074482600563ffffffff6107da16565b90505b610757828263ffffffff61075f16565b949350505050565b60008282018381101561076e57fe5b8091505b5092915050565b600454600160a060020a031681156108fc0282604051600060405180830381858888f1935050505015156107ac57600080fd5b50565b6000808315156107c25760009150610772565b508282028284828115156107d257fe5b041461076e57fe5b60008082848115156107e857fe5b049493505050505600a165627a7a7230582060f5df61fd2bc523c2a21e1fbed710914cb11793790b37b469d276f34f1a51710029a165627a7a72305820a311ae83386ccaac5b654776ece41f8aaa43c49ddf7cbf2a4fa5a72db6711a2f002960606040526b019d971e4fe8401e74000000600355341561001f57600080fd5b6003546000818155600160a060020a033316815260016020526040902055610ce28061004c6000396000f3006060604052600436106100e55763ffffffff7c010000000000000000000000000000000000000000000000000000000060003504166306fdde0381146100ea578063095ea7b31461017457806318160ddd146101aa57806323b872dd146101cf5780632ff2e9dc146101f7578063313ce5671461020a57806342966c6814610236578063661884631461024e57806370a082311461027057806395d89b411461028f5780639975038c146102a2578063a9059cbb146102b5578063ab67aa58146102d7578063be45fd6214610343578063d73dd623146103a8578063dd62ed3e146103ca575b600080fd5b34156100f557600080fd5b6100fd6103ef565b60405160208082528190810183818151815260200191508051906020019080838360005b83811015610139578082015183820152602001610121565b50505050905090810190601f1680156101665780820380516001836020036101000a031916815260200191505b509250505060405180910390f35b341561017f57600080fd5b610196600160a060020a0360043516602435610426565b604051901515815260200160405180910390f35b34156101b557600080fd5b6101bd610492565b60405190815260200160405180910390f35b34156101da57600080fd5b610196600160a060020a0360043581169060243516604435610498565b341561020257600080fd5b6101bd6104d3565b341561021557600080fd5b61021d6104d9565b60405163ffffffff909116815260200160405180910390f35b341561024157600080fd5b61024c6004356104de565b005b341561025957600080fd5b610196600160a060020a03600435166024356105a1565b341561027b57600080fd5b6101bd600160a060020a036004351661069b565b341561029a57600080fd5b6100fd6106b6565b34156102ad57600080fd5b61024c6106ed565b34156102c057600080fd5b610196600160a060020a0360043516602435610776565b34156102e257600080fd5b610196600160a060020a036004803582169160248035909116916044359160849060643590810190830135806020601f820181900481020160405190810160405281815292919060208401838380828437509496506107a695505050505050565b341561034e57600080fd5b61019660048035600160a060020a03169060248035919060649060443590810190830135806020601f820181900481020160405190810160405281815292919060208401838380828437509496506107eb95505050505050565b34156103b357600080fd5b610196600160a060020a036004351660243561082d565b34156103d557600080fd5b6101bd600160a060020a03600435811690602435166108d1565b60408051908101604052600e81527f4d464320436f696e20546f6b656e000000000000000000000000000000000000602082015281565b600160a060020a03338116600081815260026020908152604080832094871680845294909152808220859055909291907f8c5be1e5ebec7d5bd14f71427d1e84f3dd0314c0f7b2291e5b200ac8c7c3b9259085905190815260200160405180910390a350600192915050565b60005481565b60006104c984848460006040518059106104af5750595b818152601f19601f830116810160200160405290506107a6565b90505b9392505050565b60035481565b601281565b60008082116104ec57600080fd5b600160a060020a03331660009081526001602052604090205482111561051157600080fd5b5033600160a060020a03811660009081526001602052604090205461053690836108fc565b600160a060020a03821660009081526001602052604081209190915554610563908363ffffffff6108fc16565b60005581600160a060020a0382167fcc16f5dbb4873280815c1ee09dbd06736cffcc184412cf7a71a0fdb75d397ca560405160405180910390a35050565b600160a060020a033381166000908152600260209081526040808320938616835292905290812054808311156105fe57600160a060020a033381166000908152600260209081526040808320938816835292905290812055610635565b61060e818463ffffffff6108fc16565b600160a060020a033381166000908152600260209081526040808320938916835292905220555b600160a060020a0333811660008181526002602090815260408083209489168084529490915290819020547f8c5be1e5ebec7d5bd14f71427d1e84f3dd0314c0f7b2291e5b200ac8c7c3b925915190815260200160405180910390a35060019392505050565b600160a060020a031660009081526001602052604090205490565b60408051908101604052600381527f4d46430000000000000000000000000000000000000000000000000000000000602082015281565b33600160a060020a0381166000908152600160205260408120549054610712916108fc565b6000908155600160a060020a038216808252600160205260409182902054917fcc16f5dbb4873280815c1ee09dbd06736cffcc184412cf7a71a0fdb75d397ca5905160405180910390a3600160a060020a0316600090815260016020526040812055565b60006104cc8383600060405180591061078c5750595b818152601f19601f830116810160200160405290506107eb565b60006107b385858561090e565b15156107be57600080fd5b6107c784610a90565b156107df576107d885858585610a98565b90506107e3565b5060015b949350505050565b60006107f78484610bac565b151561080257600080fd5b61080b84610a90565b156108235761081c33858585610a98565b90506104cc565b5060019392505050565b600160a060020a033381166000908152600260209081526040808320938616835292905290812054610865908363ffffffff610ca716565b600160a060020a0333811660008181526002602090815260408083209489168084529490915290819020849055919290917f8c5be1e5ebec7d5bd14f71427d1e84f3dd0314c0f7b2291e5b200ac8c7c3b92591905190815260200160405180910390a350600192915050565b600160a060020a03918216600090815260026020908152604080832093909416825291909152205490565b60008282111561090857fe5b50900390565b6000600160a060020a038316151561092557600080fd5b600160a060020a03841660009081526001602052604090205482111561094a57600080fd5b600160a060020a038085166000908152600260209081526040808320339094168352929052205482111561097d57600080fd5b600160a060020a0384166000908152600160205260409020546109a6908363ffffffff6108fc16565b600160a060020a0380861660009081526001602052604080822093909355908516815220546109db908363ffffffff610ca716565b600160a060020a03808516600090815260016020908152604080832094909455878316825260028152838220339093168252919091522054610a23908363ffffffff6108fc16565b600160a060020a03808616600081815260026020908152604080832033861684529091529081902093909355908516917fddf252ad1be2c89b69c2b068fc378daa952ba7f163c4a11628f55a4df523b3ef9085905190815260200160405180910390a35060019392505050565b6000903b1190565b600083600160a060020a03811663c0ee0b8a33868686604051602001526040518463ffffffff167c01000000000000000000000000000000000000000000000000000000000281526004018084600160a060020a0316600160a060020a0316815260200183815260200180602001828103825283818151815260200191508051906020019080838360005b83811015610b3b578082015183820152602001610b23565b50505050905090810190601f168015610b685780820380516001836020036101000a031916815260200191505b50945050505050602060405180830381600087803b1515610b8857600080fd5b6102c65a03f11515610b9957600080fd5b5050506040518051979650505050505050565b6000600160a060020a0383161515610bc357600080fd5b600160a060020a033316600090815260016020526040902054821115610be857600080fd5b600160a060020a033316600090815260016020526040902054610c11908363ffffffff6108fc16565b600160a060020a033381166000908152600160205260408082209390935590851681522054610c46908363ffffffff610ca716565b600160a060020a0380851660008181526001602052604090819020939093559133909116907fddf252ad1be2c89b69c2b068fc378daa952ba7f163c4a11628f55a4df523b3ef9085905190815260200160405180910390a350600192915050565b6000828201838110156104cc57fe00a165627a7a7230582084eb8227b0dc3aa3691237448bb948e5f884f1bc791f12c535d4f7d22b16c5eb0029",
  "source": "pragma solidity ^0.4.19;\n\nimport \"./SafeMath.sol\";\nimport \"./Ownable.sol\";\nimport \"./MFC_coin.sol\";\nimport \"./ICO_crowdsale.sol\";\nimport \"./Holder.sol\";\n\ncontract ICO_controller is Ownable {\n\n    using SafeMath for uint256;\n    // The token being sold\n    MFC_Token public token = new MFC_Token();\n\n    // add address for multisig!!\n    address public holder;\n\n    // list of buyer are able to participate in ICOs\n    mapping(address => bool) public buyersWhitelist;\n\n    // store each buyer spent ether\n    mapping(address => uint256) public buyerSpent;\n\n    // devs&advisors reward\n    mapping(address => uint256) public devRewards;\n\n    address incentiveProgram;\n\n    WhitelistedCrowdsale public privateOffer;\n    WhitelistedCrowdsale public preSale;\n    WhitelistedCrowdsale public crowdsale;\n\n    uint256 constant public PRIVATE_OFFER_SUPPLY = 7000000 * 1 ether;\n    uint256 constant public PRE_SALE_SUPPLY = 36000000 * 1 ether;\n    uint256 constant public CROWDSALE_SUPPLY = 237000000 * 1 ether;\n    uint256 constant public SOFTCUP = 4720 * 1 ether;\n    uint256 constant public MAX_DEV_REWARD = 40000000 * 1 ether;\n    uint256 constant public INCENTIVE_PROGRAM_SUPPORT = 80000000 * 1 ether;\n    uint256 constant public MARKETING_SUPPORT_SUPPLY = 100000000 * 1 ether;\n\n    uint constant public Q3_2018_START_DATE = 1530403200; // 2018 07 01 \n    uint constant public Q1_2019_START_DATE = 1546300800; // 2019 01 01 \n    uint constant public Q2_2019_START_DATE = 1554076800; // 2019 04 01 \n    uint constant public Q3_2019_START_DATE = 1561939200; // 2019 07 01 \n    uint constant public Q4_2019_START_DATE = 1569888000; // 2019 10 01 \n    uint public devRewardReleaseTime;\n    uint[4] public unlockMarketingTokensTime;\n    uint public unlockIndex;\n    uint public releaseMarketingTokenAmount = MARKETING_SUPPORT_SUPPLY.div(4);\n\n    uint256 public totalDevReward;\n    uint256 public totalSold;\n\n    bool public crowdsaleFinished;\n\n    function ICO_controller(address _holder, address _incentive_program) {\n        devRewardReleaseTime = Q3_2018_START_DATE + uint(block.blockhash(block.number - 1)) % 7948800;\n\n        unlockMarketingTokensTime[0] = Q1_2019_START_DATE + uint(block.blockhash(block.number - 2)) % 7948800;\n        unlockMarketingTokensTime[1] = Q2_2019_START_DATE + uint(block.blockhash(block.number - 3)) % 7948800;\n        unlockMarketingTokensTime[2] = Q3_2019_START_DATE + uint(block.blockhash(block.number - 4)) % 7948800;\n        unlockMarketingTokensTime[3] = Q4_2019_START_DATE + uint(block.blockhash(block.number - 5)) % 7948800;\n        holder = _holder;\n        incentiveProgram = _incentive_program;\n    }\n\n    function () payable {}\n\n    modifier onlyIco() {\n        require(msg.sender == address(privateOffer) || msg.sender == address(preSale) || msg.sender == address(crowdsale));\n        _;\n    }\n\n    function addBuyerToWhitelist(address _buyer) public onlyOwner returns (bool success) {\n        require(_buyer != address(0));\n        buyersWhitelist[_buyer] = true;\n        return true;\n    }\n\n    function removeBuyerFromWhitelist(address _buyer) public onlyOwner returns (bool success) {\n        if (buyersWhitelist[_buyer] == true) {\n        buyersWhitelist[_buyer] = false;\n        return true;\n        }\n        return false;\n    }\n\n    function addBuyers(address[] _buyers) external onlyOwner returns (bool success) {\n        for (uint i = 0; i < _buyers.length; i++) {\n            addBuyerToWhitelist(_buyers[i]);\n        }\n        return true;\n    }\n\n    function removeBuyers(address[] _buyers) external onlyOwner returns (bool success) {\n        for (uint i = 0; i < _buyers.length; i++) {\n            removeBuyerFromWhitelist(_buyers[i]);\n        }\n        return true;\n    }\n\n    function isAddressWhitelisted(address buyer) external returns (bool isWhitelisted) {\n        return buyersWhitelist[buyer];\n    }\n\n    // Adds Devs Token Reward\n    function addDevReward(address _devAddress, uint256 _amount) public onlyOwner returns (bool success) {\n        require(MAX_DEV_REWARD.sub(totalDevReward) >= _amount);\n        require(_devAddress != address(0));\n        totalDevReward = totalDevReward.add(_amount);\n        devRewards[_devAddress] = devRewards[_devAddress].add(_amount);\n        return true;\n    }\n\n    function addRewards(address[] _devAddresses, uint256[] _amounts) external onlyOwner returns (bool success) {\n        require(_devAddresses.length == _amounts.length);\n        for (uint i = 0; i < _amounts.length; i++) {\n            addDevReward(_devAddresses[i], _amounts[i]);\n        }\n        return true;\n    }\n\n    // Create Privaet Offer Sale NOTE: should think about hardwritten rate or parametrized!!!!\n    function startPrivateOffer(uint256 _startTime, uint256 _endTime, uint256 _rate) external onlyOwner {\n        require(address(privateOffer) == address(0));\n        privateOffer = new WhitelistedCrowdsale(_startTime, _endTime, _rate, address(this), token);\n        token.transfer(address(privateOffer), PRIVATE_OFFER_SUPPLY);\n    }\n\n    // Create PreSale ICO\n    function startPreSaleIco(uint256 _startTime, uint256 _endTime, uint256 _rate) external onlyOwner {\n        require(address(privateOffer) != address(0));\n        require(address(preSale)== address(0));\n        require(privateOffer.hasEnded() == true);\n        preSale = new WhitelistedCrowdsale(_startTime, _endTime, _rate, address(this), token);\n        token.transfer(address(preSale), PRE_SALE_SUPPLY);\n        privateOffer.burnRemainingTokens();\n    }\n\n    // Create Crowdsale\n    function startCrowdsale(uint256 _startTime, uint256 _endTime, uint256 _rate) external onlyOwner {\n        require(address(preSale) != address(0));\n        require(address(crowdsale) == address(0));\n        require(preSale.hasEnded() == true);\n        crowdsale = new WhitelistedCrowdsale(_startTime, _endTime, _rate, address(this), token);\n        token.transfer(address(crowdsale), CROWDSALE_SUPPLY);\n        preSale.burnRemainingTokens();\n    }\n\n    function finishCrowdsale() external onlyOwner {\n        require(address(crowdsale) != address(0));\n        require(crowdsale.hasEnded() == true);\n        require(crowdsaleFinished == false);\n        crowdsale.burnRemainingTokens();\n        totalSold = privateOffer.getWeiRaised().add(preSale.getWeiRaised().add(crowdsale.getWeiRaised()));\n        if (totalSold >= SOFTCUP) {\n            token.transfer(incentiveProgram, INCENTIVE_PROGRAM_SUPPORT);\n            // sends token for support program\n            token.burn(MAX_DEV_REWARD.sub(totalDevReward));\n            // burn some unspent reward tokens\n            owner.transfer(this.balance.div(2));\n            // send 50% of ico eth to contract onwer\n            address(holder).transfer(this.balance);\n            // send other 50% to multisig holder address\n        }\n        crowdsaleFinished = true;\n\n    }\n\n    // Count each buyer spent amount in case ICO wuoldn't reach SOFTCUP\n    function addBuyerSpent(address _buyer, uint256 _amount) external onlyIco {\n        buyerSpent[_buyer] = buyerSpent[_buyer].add(_amount);\n    }\n\n    function refund() external returns (bool success) {\n        require(address(crowdsale) != address(0));\n        require(crowdsale.hasEnded());\n        if (totalSold == 0) {\n            totalSold = privateOffer.getWeiRaised().add(preSale.getWeiRaised().add(crowdsale.getWeiRaised()));\n        }\n        require(totalSold < SOFTCUP);\n        uint256 amount = buyerSpent[msg.sender];\n        buyerSpent[msg.sender] = 0;\n        msg.sender.transfer(amount);\n        return true;\n\n    }\n\n    function getDevReward() external {\n        require(devRewardReleaseTime < now);\n        uint256 amount = devRewards[msg.sender];\n        devRewards[msg.sender] = 0;\n        token.transfer(msg.sender, amount);\n    }\n\n    function getLockedMarketingTokens() onlyOwner external {\n        require(unlockIndex < 4);\n        require(unlockMarketingTokensTime[unlockIndex] < now);\n        uint256 amount = releaseMarketingTokenAmount;\n        // It is needed to prevent DAO vulnerability that allows owner get all tokens for once.\n        releaseMarketingTokenAmount = 0;\n        token.transfer(owner, amount);\n        releaseMarketingTokenAmount = amount;\n        unlockIndex++;\n    }\n}",
  "sourcePath": "/home/savao/hg/smart-contracts/contracts/ICO_controller.sol",
  "schemaVersion": "1.0.0",
  "updatedAt": "2018-02-16T13:47:57.385Z"
}