{
  "contractName": "ICO_controller",
  "abi": [
    {
      "constant": true,
      "inputs": [
        {
          "name": "",
          "type": "address"
        }
      ],
      "name": "buyersWhitelist",
      "outputs": [
        {
          "name": "",
          "type": "bool"
        }
      ],
      "payable": false,
      "stateMutability": "view",
      "type": "function"
    },
    {
      "constant": true,
      "inputs": [],
      "name": "releaseMarketingTokenAmount",
      "outputs": [
        {
          "name": "",
          "type": "uint256"
        }
      ],
      "payable": false,
      "stateMutability": "view",
      "type": "function"
    },
    {
      "constant": true,
      "inputs": [
        {
          "name": "",
          "type": "uint256"
        }
      ],
      "name": "unlockMarketingTokensTime",
      "outputs": [
        {
          "name": "",
          "type": "uint256"
        }
      ],
      "payable": false,
      "stateMutability": "view",
      "type": "function"
    },
    {
      "constant": true,
      "inputs": [],
      "name": "PRIVATE_OFFER_SUPPLY",
      "outputs": [
        {
          "name": "",
          "type": "uint256"
        }
      ],
      "payable": false,
      "stateMutability": "view",
      "type": "function"
    },
    {
      "constant": true,
      "inputs": [],
      "name": "escrowIco",
      "outputs": [
        {
          "name": "",
          "type": "address"
        }
      ],
      "payable": false,
      "stateMutability": "view",
      "type": "function"
    },
    {
      "constant": true,
      "inputs": [],
      "name": "CROWDSALE_SUPPLY",
      "outputs": [
        {
          "name": "",
          "type": "uint256"
        }
      ],
      "payable": false,
      "stateMutability": "view",
      "type": "function"
    },
    {
      "constant": true,
      "inputs": [],
      "name": "privateOffer",
      "outputs": [
        {
          "name": "",
          "type": "address"
        }
      ],
      "payable": false,
      "stateMutability": "view",
      "type": "function"
    },
    {
      "constant": true,
      "inputs": [
        {
          "name": "",
          "type": "address"
        }
      ],
      "name": "airdropList",
      "outputs": [
        {
          "name": "",
          "type": "bool"
        }
      ],
      "payable": false,
      "stateMutability": "view",
      "type": "function"
    },
    {
      "constant": true,
      "inputs": [],
      "name": "preSale",
      "outputs": [
        {
          "name": "",
          "type": "address"
        }
      ],
      "payable": false,
      "stateMutability": "view",
      "type": "function"
    },
    {
      "constant": true,
      "inputs": [],
      "name": "incentiveProgram",
      "outputs": [
        {
          "name": "",
          "type": "address"
        }
      ],
      "payable": false,
      "stateMutability": "view",
      "type": "function"
    },
    {
      "constant": true,
      "inputs": [],
      "name": "SOFTCAP",
      "outputs": [
        {
          "name": "",
          "type": "uint256"
        }
      ],
      "payable": false,
      "stateMutability": "view",
      "type": "function"
    },
    {
      "constant": true,
      "inputs": [],
      "name": "devRewardReleaseTime",
      "outputs": [
        {
          "name": "",
          "type": "uint256"
        }
      ],
      "payable": false,
      "stateMutability": "view",
      "type": "function"
    },
    {
      "constant": true,
      "inputs": [],
      "name": "totalAirdropAdrresses",
      "outputs": [
        {
          "name": "",
          "type": "uint256"
        }
      ],
      "payable": false,
      "stateMutability": "view",
      "type": "function"
    },
    {
      "constant": true,
      "inputs": [
        {
          "name": "",
          "type": "address"
        }
      ],
      "name": "buyerSpent",
      "outputs": [
        {
          "name": "",
          "type": "uint256"
        }
      ],
      "payable": false,
      "stateMutability": "view",
      "type": "function"
    },
    {
      "constant": true,
      "inputs": [],
      "name": "AIRDROP_SUPPLY",
      "outputs": [
        {
          "name": "",
          "type": "uint256"
        }
      ],
      "payable": false,
      "stateMutability": "view",
      "type": "function"
    },
    {
      "constant": true,
      "inputs": [],
      "name": "owner",
      "outputs": [
        {
          "name": "",
          "type": "address"
        }
      ],
      "payable": false,
      "stateMutability": "view",
      "type": "function"
    },
    {
      "constant": true,
      "inputs": [],
      "name": "PRE_SALE_SUPPLY",
      "outputs": [
        {
          "name": "",
          "type": "uint256"
        }
      ],
      "payable": false,
      "stateMutability": "view",
      "type": "function"
    },
    {
      "constant": true,
      "inputs": [],
      "name": "totalSold",
      "outputs": [
        {
          "name": "",
          "type": "uint256"
        }
      ],
      "payable": false,
      "stateMutability": "view",
      "type": "function"
    },
    {
      "constant": true,
      "inputs": [
        {
          "name": "",
          "type": "address"
        }
      ],
      "name": "devRewards",
      "outputs": [
        {
          "name": "",
          "type": "uint256"
        }
      ],
      "payable": false,
      "stateMutability": "view",
      "type": "function"
    },
    {
      "constant": true,
      "inputs": [],
      "name": "crowdsale",
      "outputs": [
        {
          "name": "",
          "type": "address"
        }
      ],
      "payable": false,
      "stateMutability": "view",
      "type": "function"
    },
    {
      "constant": true,
      "inputs": [],
      "name": "MAX_DEV_REWARD",
      "outputs": [
        {
          "name": "",
          "type": "uint256"
        }
      ],
      "payable": false,
      "stateMutability": "view",
      "type": "function"
    },
    {
      "constant": true,
      "inputs": [],
      "name": "Q2_2020_START_DATE",
      "outputs": [
        {
          "name": "",
          "type": "uint256"
        }
      ],
      "payable": false,
      "stateMutability": "view",
      "type": "function"
    },
    {
      "constant": true,
      "inputs": [],
      "name": "Q2_2019_START_DATE",
      "outputs": [
        {
          "name": "",
          "type": "uint256"
        }
      ],
      "payable": false,
      "stateMutability": "view",
      "type": "function"
    },
    {
      "constant": true,
      "inputs": [],
      "name": "totalDevReward",
      "outputs": [
        {
          "name": "",
          "type": "uint256"
        }
      ],
      "payable": false,
      "stateMutability": "view",
      "type": "function"
    },
    {
      "constant": true,
      "inputs": [],
      "name": "holder",
      "outputs": [
        {
          "name": "",
          "type": "address"
        }
      ],
      "payable": false,
      "stateMutability": "view",
      "type": "function"
    },
    {
      "constant": true,
      "inputs": [],
      "name": "MARKETING_SUPPORT_SUPPLY",
      "outputs": [
        {
          "name": "",
          "type": "uint256"
        }
      ],
      "payable": false,
      "stateMutability": "view",
      "type": "function"
    },
    {
      "constant": true,
      "inputs": [],
      "name": "crowdsaleFinished",
      "outputs": [
        {
          "name": "",
          "type": "bool"
        }
      ],
      "payable": false,
      "stateMutability": "view",
      "type": "function"
    },
    {
      "constant": true,
      "inputs": [],
      "name": "Q3_2018_START_DATE",
      "outputs": [
        {
          "name": "",
          "type": "uint256"
        }
      ],
      "payable": false,
      "stateMutability": "view",
      "type": "function"
    },
    {
      "constant": false,
      "inputs": [
        {
          "name": "newOwner",
          "type": "address"
        }
      ],
      "name": "transferOwnership",
      "outputs": [],
      "payable": false,
      "stateMutability": "nonpayable",
      "type": "function"
    },
    {
      "constant": true,
      "inputs": [],
      "name": "unlockIndex",
      "outputs": [
        {
          "name": "",
          "type": "uint256"
        }
      ],
      "payable": false,
      "stateMutability": "view",
      "type": "function"
    },
    {
      "constant": true,
      "inputs": [],
      "name": "INCENTIVE_PROGRAM_SUPPORT",
      "outputs": [
        {
          "name": "",
          "type": "uint256"
        }
      ],
      "payable": false,
      "stateMutability": "view",
      "type": "function"
    },
    {
      "constant": true,
      "inputs": [],
      "name": "token",
      "outputs": [
        {
          "name": "",
          "type": "address"
        }
      ],
      "payable": false,
      "stateMutability": "view",
      "type": "function"
    },
    {
      "inputs": [
        {
          "name": "_holder",
          "type": "address"
        },
        {
          "name": "_escrowIco",
          "type": "address"
        }
      ],
      "payable": false,
      "stateMutability": "nonpayable",
      "type": "constructor"
    },
    {
      "payable": true,
      "stateMutability": "payable",
      "type": "fallback"
    },
    {
      "anonymous": false,
      "inputs": [
        {
          "indexed": true,
          "name": "previousOwner",
          "type": "address"
        },
        {
          "indexed": true,
          "name": "newOwner",
          "type": "address"
        }
      ],
      "name": "OwnershipTransferred",
      "type": "event"
    },
    {
      "constant": false,
      "inputs": [
        {
          "name": "_incentive_program",
          "type": "address"
        }
      ],
      "name": "setIncentiveProgram",
      "outputs": [],
      "payable": false,
      "stateMutability": "nonpayable",
      "type": "function"
    },
    {
      "constant": false,
      "inputs": [
        {
          "name": "_buyer",
          "type": "address"
        }
      ],
      "name": "addBuyerToWhitelist",
      "outputs": [
        {
          "name": "success",
          "type": "bool"
        }
      ],
      "payable": false,
      "stateMutability": "nonpayable",
      "type": "function"
    },
    {
      "constant": false,
      "inputs": [
        {
          "name": "_buyer",
          "type": "address"
        }
      ],
      "name": "removeBuyerFromWhitelist",
      "outputs": [
        {
          "name": "success",
          "type": "bool"
        }
      ],
      "payable": false,
      "stateMutability": "nonpayable",
      "type": "function"
    },
    {
      "constant": false,
      "inputs": [
        {
          "name": "_buyers",
          "type": "address[]"
        }
      ],
      "name": "addBuyers",
      "outputs": [
        {
          "name": "success",
          "type": "bool"
        }
      ],
      "payable": false,
      "stateMutability": "nonpayable",
      "type": "function"
    },
    {
      "constant": false,
      "inputs": [
        {
          "name": "_buyers",
          "type": "address[]"
        }
      ],
      "name": "removeBuyers",
      "outputs": [
        {
          "name": "success",
          "type": "bool"
        }
      ],
      "payable": false,
      "stateMutability": "nonpayable",
      "type": "function"
    },
    {
      "constant": false,
      "inputs": [
        {
          "name": "buyer",
          "type": "address"
        }
      ],
      "name": "isAddressWhitelisted",
      "outputs": [
        {
          "name": "isWhitelisted",
          "type": "bool"
        }
      ],
      "payable": false,
      "stateMutability": "nonpayable",
      "type": "function"
    },
    {
      "constant": false,
      "inputs": [
        {
          "name": "_devAddress",
          "type": "address"
        },
        {
          "name": "_amount",
          "type": "uint256"
        }
      ],
      "name": "addDevReward",
      "outputs": [
        {
          "name": "success",
          "type": "bool"
        }
      ],
      "payable": false,
      "stateMutability": "nonpayable",
      "type": "function"
    },
    {
      "constant": false,
      "inputs": [
        {
          "name": "_devAddresses",
          "type": "address[]"
        },
        {
          "name": "_amounts",
          "type": "uint256[]"
        }
      ],
      "name": "addRewards",
      "outputs": [
        {
          "name": "success",
          "type": "bool"
        }
      ],
      "payable": false,
      "stateMutability": "nonpayable",
      "type": "function"
    },
    {
      "constant": false,
      "inputs": [
        {
          "name": "_airdropAddresses",
          "type": "address[]"
        }
      ],
      "name": "addAirdrop",
      "outputs": [
        {
          "name": "success",
          "type": "bool"
        }
      ],
      "payable": false,
      "stateMutability": "nonpayable",
      "type": "function"
    },
    {
      "constant": false,
      "inputs": [
        {
          "name": "_airdropAddresses",
          "type": "address[]"
        }
      ],
      "name": "removeAirdrop",
      "outputs": [
        {
          "name": "success",
          "type": "bool"
        }
      ],
      "payable": false,
      "stateMutability": "nonpayable",
      "type": "function"
    },
    {
      "constant": false,
      "inputs": [
        {
          "name": "_startTime",
          "type": "uint256"
        },
        {
          "name": "_endTime",
          "type": "uint256"
        },
        {
          "name": "_escrow",
          "type": "address"
        }
      ],
      "name": "startPrivateOffer",
      "outputs": [],
      "payable": false,
      "stateMutability": "nonpayable",
      "type": "function"
    },
    {
      "constant": false,
      "inputs": [
        {
          "name": "_startTime",
          "type": "uint256"
        },
        {
          "name": "_endTime",
          "type": "uint256"
        }
      ],
      "name": "startPreSaleIco",
      "outputs": [],
      "payable": false,
      "stateMutability": "nonpayable",
      "type": "function"
    },
    {
      "constant": false,
      "inputs": [
        {
          "name": "_startTime",
          "type": "uint256"
        },
        {
          "name": "_endTime",
          "type": "uint256"
        }
      ],
      "name": "startCrowdsale",
      "outputs": [],
      "payable": false,
      "stateMutability": "nonpayable",
      "type": "function"
    },
    {
      "constant": false,
      "inputs": [],
      "name": "finishCrowdsale",
      "outputs": [],
      "payable": false,
      "stateMutability": "nonpayable",
      "type": "function"
    },
    {
      "constant": false,
      "inputs": [
        {
          "name": "_buyer",
          "type": "address"
        },
        {
          "name": "_amount",
          "type": "uint256"
        }
      ],
      "name": "addBuyerSpent",
      "outputs": [],
      "payable": false,
      "stateMutability": "nonpayable",
      "type": "function"
    },
    {
      "constant": false,
      "inputs": [],
      "name": "refund",
      "outputs": [
        {
          "name": "success",
          "type": "bool"
        }
      ],
      "payable": false,
      "stateMutability": "nonpayable",
      "type": "function"
    },
    {
      "constant": false,
      "inputs": [],
      "name": "getDevReward",
      "outputs": [],
      "payable": false,
      "stateMutability": "nonpayable",
      "type": "function"
    },
    {
      "constant": false,
      "inputs": [],
      "name": "getLockedMarketingTokens",
      "outputs": [],
      "payable": false,
      "stateMutability": "nonpayable",
      "type": "function"
    },
    {
      "constant": false,
      "inputs": [],
      "name": "getAirdropTokens",
      "outputs": [],
      "payable": false,
      "stateMutability": "nonpayable",
      "type": "function"
    }
  ],
  "bytecode": "0x60606040526200000e62000170565b604051809103906000f08015156200002557600080fd5b60018054600160a060020a031916600160a060020a03929092169190911790556000600f55620000706a52b7d2dcc80cd2e4000000600264010000000062000158810262001dcc1704565b60105534156200007f57600080fd5b60405160408062003637833981016040528080519190602001805160008054600160a060020a03191633600160a060020a0390811691909117909155909250831615159050620000ce57600080fd5b600160a060020a0381161515620000e457600080fd5b62794a0060001943014006635b38198001600c5562794a0043600119014006635ca1548001600d6000015562794a0060021943014006635e83d98001600d6001015560028054600160a060020a03938416600160a060020a0319918216179091556008805492909316911617905562000181565b60008082848115156200016757fe5b04949350505050565b604051610ce6806200295183390190565b6127c080620001916000396000f30060606040526004361061024d5763ffffffff60e060020a60003504166308d52d46811461024f57806313f44d101461028257806316cb16eb146102a157806319e3437b146102bf578063274cc693146102dd5780632955316f146102fc5780632ffbbcec1461032157806331ef54d91461033457806333fa9d4b1461034a57806335741f951461036c57806338b6900414610385578063425c4e6f146103a457806348f4e8bf146103c257806350c1bdf2146103d557806355e7e714146103f757806356ad9f57146104265780635758b8041461043957806358cf77fa1461044c578063590e1ae31461046b578063595a90f21461047e5780635a01d2ed146104a85780635a7adf7f146104cd5780635f54eabb146104e057806365712339146104f357806369997261146105065780636eba02bf146105195780638475fcac1461052c5780638a857bc11461054b5780638da5cb5b1461055e5780638e0c09b2146105715780639106d7ba1461058457806392a8675d1461059757806398b3f7e2146105b65780639c1e03a0146105d4578063a818e816146105e7578063ab4e8ef1146105fa578063b80cdcf61461060d578063b88a80d514610620578063bb0a4c2d1461063f578063c1417fb914610652578063ccb887bc1461066b578063d1ef30631461067e578063d8e1a97f14610691578063e534155d146106a4578063e647e19f146106b7578063ece84fd5146106ca578063edba3df2146106dd578063f2fde38b146106f0578063f41663881461070f578063f670048114610722578063fc0c546a14610735575b005b341561025a57600080fd5b61026e600160a060020a0360043516610748565b604051901515815260200160405180910390f35b341561028d57600080fd5b61026e600160a060020a036004351661075d565b34156102ac57600080fd5b61026e600480356024810191013561077f565b34156102ca57600080fd5b61026e6004803560248101910135610853565b34156102e857600080fd5b61026e600160a060020a0360043516610947565b341561030757600080fd5b61030f6109b9565b60405190815260200160405180910390f35b341561032c57600080fd5b61024d6109bf565b341561033f57600080fd5b61030f600435610a6b565b341561035557600080fd5b61026e600160a060020a0360043516602435610a7f565b341561037757600080fd5b61024d600435602435610b3d565b341561039057600080fd5b61024d600160a060020a0360043516610d0d565b34156103af57600080fd5b61026e6004803560248101910135610d60565b34156103cd57600080fd5b61030f610db7565b34156103e057600080fd5b61024d600160a060020a0360043516602435610dc6565b341561040257600080fd5b61040a610e5e565b604051600160a060020a03909116815260200160405180910390f35b341561043157600080fd5b61030f610e6d565b341561044457600080fd5b61040a610e7c565b341561045757600080fd5b61026e600160a060020a0360043516610e8b565b341561047657600080fd5b61026e610ea0565b341561048957600080fd5b61026e60246004803582810192908201359181359182019101356110eb565b34156104b357600080fd5b61024d600435602435600160a060020a036044351661116f565b34156104d857600080fd5b61040a61127b565b34156104eb57600080fd5b61040a61128a565b34156104fe57600080fd5b61030f611299565b341561051157600080fd5b61030f6112a6565b341561052457600080fd5b61030f6112ac565b341561053757600080fd5b61030f600160a060020a03600435166112b2565b341561055657600080fd5b61030f6112c4565b341561056957600080fd5b61040a6112d3565b341561057c57600080fd5b61030f6112e2565b341561058f57600080fd5b61030f6112f1565b34156105a257600080fd5b61030f600160a060020a03600435166112f7565b34156105c157600080fd5b61026e6004803560248101910135611309565b34156105df57600080fd5b61040a611360565b34156105f257600080fd5b61030f61136f565b341561060557600080fd5b61024d61137e565b341561061857600080fd5b61024d611466565b341561062b57600080fd5b61026e600160a060020a03600435166118ea565b341561064a57600080fd5b61030f611941565b341561065d57600080fd5b61024d600435602435611949565b341561067657600080fd5b61030f611b01565b341561068957600080fd5b61024d611b09565b341561069c57600080fd5b61030f611bee565b34156106af57600080fd5b61040a611bf4565b34156106c257600080fd5b61030f611c03565b34156106d557600080fd5b61026e611c12565b34156106e857600080fd5b61030f611c1b565b34156106fb57600080fd5b61024d600160a060020a0360043516611c23565b341561071a57600080fd5b61030f611cb1565b341561072d57600080fd5b61030f611cb7565b341561074057600080fd5b61040a611cc6565b60036020526000908152604090205460ff1681565b600160a060020a03811660009081526003602052604090205460ff165b919050565b60008054819033600160a060020a0390811691161461079d57600080fd5b5060005b8281101561084757600460008585848181106107b957fe5b60209081029290920135600160a060020a031683525081019190915260400160002054600160ff9091161515146107ec57fe5b60006004818686858181106107fd57fe5b60209081029290920135600160a060020a0316835250810191909152604001600020805460ff191691151591909117905560135461083c906001611cd5565b6013556001016107a1565b600191505b5092915050565b60008054819033600160a060020a0390811691161461087157600080fd5b5060005b8281101561084757600084848381811061088b57fe5b90506020020135600160a060020a0316600160a060020a0316141515156108ae57fe5b600460008585848181106108be57fe5b60209081029290920135600160a060020a03168352508101919091526040016000205460ff16156108eb57fe5b6001600460008686858181106108fd57fe5b60209081029290920135600160a060020a0316835250810191909152604001600020805460ff191691151591909117905560135461093c906001611ce7565b601355600101610875565b6000805433600160a060020a0390811691161461096357600080fd5b600160a060020a03821660009081526003602052604090205460ff161515600114156109b15750600160a060020a0381166000908152600360205260409020805460ff19169055600161077a565b506000919050565b60105481565b600042600c541015156109d157600080fd5b50600160a060020a03338181166000908152600660205260408082208054908390556001549094169263a9059cbb929091859190516020015260405160e060020a63ffffffff8516028152600160a060020a0390921660048301526024820152604401602060405180830381600087803b1515610a4d57600080fd5b6102c65a03f11515610a5e57600080fd5b5050506040518051505050565b600d8160028110610a7857fe5b0154905081565b6000805433600160a060020a03908116911614610a9b57600080fd5b81610abc6011546a2116545850052128000000611cd590919063ffffffff16565b1015610ac757600080fd5b600160a060020a0383161515610adc57600080fd5b601154610aef908363ffffffff611ce716565b601155600160a060020a038316600090815260066020526040902054610b1b908363ffffffff611ce716565b600160a060020a03841660009081526006602052604090205550600192915050565b60005433600160a060020a03908116911614610b5857600080fd5b600a54600160a060020a03161515610b6f57600080fd5b600b54600160a060020a031615610b8557600080fd5b600a54600160a060020a031663ecb70fb76000604051602001526040518163ffffffff1660e060020a028152600401602060405180830381600087803b1515610bcd57600080fd5b6102c65a03f11515610bde57600080fd5b505050604051805115156001149050610bf657600080fd5b610c1882826127106706f05b59d3b20000680ad78ebc5ac62000006001611cfd565b600b8054600160a060020a031916600160a060020a03928316179081905560015482169163a9059cbb91166ac40ab3be73b7fe0d00000060006040516020015260405160e060020a63ffffffff8516028152600160a060020a0390921660048301526024820152604401602060405180830381600087803b1515610c9b57600080fd5b6102c65a03f11515610cac57600080fd5b50505060405180515050600a54600160a060020a03166383408d736040518163ffffffff1660e060020a028152600401600060405180830381600087803b1515610cf557600080fd5b6102c65a03f11515610d0657600080fd5b5050505050565b60005433600160a060020a03908116911614610d2857600080fd5b600754600160a060020a031615610d3e57600080fd5b60078054600160a060020a031916600160a060020a0392909216919091179055565b60008054819033600160a060020a03908116911614610d7e57600080fd5b5060005b8281101561084757610dae848483818110610d9957fe5b90506020020135600160a060020a03166118ea565b50600101610d82565b6a0b949d854f34fece00000081565b60095433600160a060020a0390811691161480610df15750600a5433600160a060020a039081169116145b80610e0a5750600b5433600160a060020a039081169116145b1515610e1557600080fd5b600160a060020a038216600090815260056020526040902054610e3e908263ffffffff611ce716565b600160a060020a0390921660009081526005602052604090209190915550565b600854600160a060020a031681565b6ac40ab3be73b7fe0d00000081565b600954600160a060020a031681565b60046020526000908152604090205460ff1681565b600b546000908190600160a060020a03161515610ebc57600080fd5b600b54600160a060020a031663ecb70fb76000604051602001526040518163ffffffff1660e060020a028152600401602060405180830381600087803b1515610f0457600080fd5b6102c65a03f11515610f1557600080fd5b505050604051805190501515610f2a57600080fd5b601254151561108257600b5461107e90600160a060020a03166340582f136000604051602001526040518163ffffffff1660e060020a028152600401602060405180830381600087803b1515610f7f57600080fd5b6102c65a03f11515610f9057600080fd5b5050506040518051600a5490915061107290600160a060020a03166340582f136000604051602001526040518163ffffffff1660e060020a028152600401602060405180830381600087803b1515610fe757600080fd5b6102c65a03f11515610ff857600080fd5b5050506040518051600954909150600160a060020a03166340582f136000604051602001526040518163ffffffff1660e060020a028152600401602060405180830381600087803b151561104b57600080fd5b6102c65a03f1151561105c57600080fd5b505050604051805191905063ffffffff611ce716565b9063ffffffff611ce716565b6012555b60125468ffdf28905e43c00000901061109a57600080fd5b50600160a060020a033316600081815260056020526040808220805492905590919082156108fc0290839051600060405180830381858888f1935050505015156110e357600080fd5b600191505090565b60008054819033600160a060020a0390811691161461110957600080fd5b84831461111557600080fd5b5060005b828110156111635761115a86868381811061113057fe5b90506020020135600160a060020a0316858584818110151561114e57fe5b90506020020135610a7f565b50600101611119565b50600195945050505050565b60005433600160a060020a0390811691161461118a57600080fd5b600954600160a060020a0316156111a057600080fd5b600160a060020a03811615156111b557600080fd5b6111d883836136b0670de0b6b3a7640000680ad78ebc5ac6200000866000611d19565b60098054600160a060020a031916600160a060020a03928316179081905560015482169163a9059cbb91166a0b949d854f34fece00000060006040516020015260405160e060020a63ffffffff8516028152600160a060020a0390921660048301526024820152604401602060405180830381600087803b151561125b57600080fd5b6102c65a03f1151561126c57600080fd5b50505060405180515050505050565b600a54600160a060020a031681565b600754600160a060020a031681565b68ffdf28905e43c0000081565b600c5481565b60135481565b60056020526000908152604090205481565b6a0422ca8b0a00a42500000081565b600054600160a060020a031681565b6a1dc74be914d16aa400000081565b60125481565b60066020526000908152604090205481565b60008054819033600160a060020a0390811691161461132757600080fd5b5060005b828110156108475761135784848381811061134257fe5b90506020020135600160a060020a0316610947565b5060010161132b565b600b54600160a060020a031681565b6a211654585005212800000081565b600160a060020a03331660009081526004602052604090205460ff1615156113a557600080fd5b60145460ff1615156113b657600080fd5b33600160a060020a038181166000908152600460205260409020805460ff1916905560015460135491169163a9059cbb916113fd906a0422ca8b0a00a42500000090611dcc565b60006040516020015260405160e060020a63ffffffff8516028152600160a060020a0390921660048301526024820152604401602060405180830381600087803b151561144957600080fd5b6102c65a03f1151561145a57600080fd5b50505060405180515050565b6000805433600160a060020a0390811691161461148257600080fd5b600b54600160a060020a0316151561149957600080fd5b600b54600160a060020a031663ecb70fb76000604051602001526040518163ffffffff1660e060020a028152600401602060405180830381600087803b15156114e157600080fd5b6102c65a03f115156114f257600080fd5b50505060405180511515600114905061150a57600080fd5b60145460ff161561151a57600080fd5b600754600160a060020a0316151561153157600080fd5b600b54600160a060020a03166383408d736040518163ffffffff1660e060020a028152600401600060405180830381600087803b151561157057600080fd5b6102c65a03f1151561158157600080fd5b5050600b54611680915061163890600160a060020a03166340582f136000604051602001526040518163ffffffff1660e060020a028152600401602060405180830381600087803b15156115d457600080fd5b6102c65a03f115156115e557600080fd5b5050506040518051600a54909150600160a060020a03166340582f136000604051602001526040518163ffffffff1660e060020a028152600401602060405180830381600087803b151561104b57600080fd5b600954600160a060020a03166340582f136000604051602001526040518163ffffffff1660e060020a028152600401602060405180830381600087803b151561104b57600080fd5b601281905568ffdf28905e43c0000090106118da57600154600754600160a060020a039182169163a9059cbb91166a3e09de2596099e2b00000060006040516020015260405160e060020a63ffffffff8516028152600160a060020a0390921660048301526024820152604401602060405180830381600087803b151561170657600080fd5b6102c65a03f1151561171757600080fd5b505050604051805191505060018115151461172e57fe5b600154601154600160a060020a03909116906342966c6890611762906a21165458500521280000009063ffffffff611cd516565b60405160e060020a63ffffffff84160281526004810191909152602401600060405180830381600087803b151561179857600080fd5b6102c65a03f115156117a957600080fd5b5050600154601354600160a060020a0390911691506342966c689061180b906117f3906117e76a0422ca8b0a00a4250000008263ffffffff611dcc16565b9063ffffffff611de316565b6a0422ca8b0a00a4250000009063ffffffff611cd516565b60405160e060020a63ffffffff84160281526004810191909152602401600060405180830381600087803b151561184157600080fd5b6102c65a03f1151561185257600080fd5b5050600854600160a060020a0390811691506108fc9061187c90301631600263ffffffff611dcc16565b9081150290604051600060405180830381858888f1935050505015156118a157600080fd5b600254600160a060020a039081169030163180156108fc0290604051600060405180830381858888f1935050505015156118da57600080fd5b506014805460ff19166001179055565b6000805433600160a060020a0390811691161461190657600080fd5b600160a060020a038216151561191857fe5b50600160a060020a03166000908152600360205260409020805460ff1916600190811790915590565b635e83d98081565b60005433600160a060020a0390811691161461196457600080fd5b600954600160a060020a0316151561197b57600080fd5b600a54600160a060020a03161561199157600080fd5b600954600160a060020a031663ecb70fb76000604051602001526040518163ffffffff1660e060020a028152600401602060405180830381600087803b15156119d957600080fd5b6102c65a03f115156119ea57600080fd5b505050604051805115156001149050611a0257600080fd5b611a248282612ee0674563918244f40000680ad78ebc5ac62000006001611cfd565b600a8054600160a060020a031916600160a060020a03928316179081905560015482169163a9059cbb91166a1dc74be914d16aa400000060006040516020015260405160e060020a63ffffffff8516028152600160a060020a0390921660048301526024820152604401602060405180830381600087803b1515611aa757600080fd5b6102c65a03f11515611ab857600080fd5b50505060405180515050600954600160a060020a03166383408d736040518163ffffffff1660e060020a028152600401600060405180830381600087803b1515610cf557600080fd5b635ca1548081565b6000805433600160a060020a03908116911614611b2557600080fd5b600f5460029010611b3557600080fd5b42600d600f54600281101515611b4757fe5b015410611b5357600080fd5b506010805460009182905560015482549192600160a060020a039182169263a9059cbb92169084906040516020015260405160e060020a63ffffffff8516028152600160a060020a0390921660048301526024820152604401602060405180830381600087803b1515611bc557600080fd5b6102c65a03f11515611bd657600080fd5b50505060405180515050601055600f80546001019055565b60115481565b600254600160a060020a031681565b6a52b7d2dcc80cd2e400000081565b60145460ff1681565b635b38198081565b60005433600160a060020a03908116911614611c3e57600080fd5b600160a060020a0381161515611c5357600080fd5b600054600160a060020a0380831691167f8be0079c531659141344cd1fd0a4f28419497f9722a3daafe3b4186f6b6457e060405160405180910390a360008054600160a060020a031916600160a060020a0392909216919091179055565b600f5481565b6a3e09de2596099e2b00000081565b600154600160a060020a031681565b600082821115611ce157fe5b50900390565b600082820183811015611cf657fe5b9392505050565b6000611d0e87878787873088611d19565b979650505050505050565b600042881015611d2857600080fd5b87871015611d3557600080fd5b60008611611d4257600080fd5b600154889088908890889088908890600160a060020a031688611d63611e0e565b978852602088019690965260408088019590955260608701939093526080860191909152600160a060020a0390811660a08601521660c084015290151560e08301526101009091019051809103906000f0801515611dc057600080fd5b98975050505050505050565b6000808284811515611dda57fe5b04949350505050565b600080831515611df6576000915061084c565b50828202828482811515611e0657fe5b0414611cf657fe5b60405161097680611e1f8339019056006060604052341561000f57600080fd5b60405161010080610976833981016040528080519190602001805191906020018051919060200180519190602001805191906020018051919060200180519190602001805160008054600160a060020a03338116600160a060020a0319928316811790935560029c909c5560039a909a5560059890985560048054958b16958a1695909517909455505060018054919097169086161790955560085560095560078054909216179055600a805491151560ff1990921691909117905561089c806100da6000396000f3006060604052600436106100cc5763ffffffff60e060020a6000350416632c4e722e81146100d75780633197cbb6146100fc57806333b5b62e1461010f5780634042b66f1461012257806340582f1314610135578063521eb2731461014857806378e97925146101775780637fa8b5301461018a57806383408d73146101b15780638da5cb5b146101c4578063977b055b146101d7578063c0ee0b8a146101ea578063ec8ac4d81461024f578063ecb70fb714610263578063f2fde38b14610276578063fc0c546a14610295575b6100d5336102a8565b005b34156100e257600080fd5b6100ea6104c9565b60405190815260200160405180910390f35b341561010757600080fd5b6100ea6104cf565b341561011a57600080fd5b6100ea6104d5565b341561012d57600080fd5b6100ea6104db565b341561014057600080fd5b6100ea6104e1565b341561015357600080fd5b61015b6104e7565b604051600160a060020a03909116815260200160405180910390f35b341561018257600080fd5b6100ea6104f6565b341561019557600080fd5b61019d6104fc565b604051901515815260200160405180910390f35b34156101bc57600080fd5b6100d5610505565b34156101cf57600080fd5b61015b610575565b34156101e257600080fd5b6100ea610584565b34156101f557600080fd5b61019d60048035600160a060020a03169060248035919060649060443590810190830135806020601f8201819004810201604051908101604052818152929190602084018383808284375094965061058a95505050505050565b6100d5600160a060020a03600435166102a8565b341561026e57600080fd5b61019d610593565b341561028157600080fd5b6100d5600160a060020a036004351661059b565b34156102a057600080fd5b61015b610636565b60008080600160a060020a03841615156102c157600080fd5b6102c9610645565b15156102d457600080fd5b3492506102e083610721565b600154909250600160a060020a03166370a082313060006040516020015260405160e060020a63ffffffff8416028152600160a060020a039091166004820152602401602060405180830381600087803b151561033c57600080fd5b6102c65a03f1151561034d57600080fd5b50505060405180519150508082111561036557600080fd5b600654610378908463ffffffff6107de16565b600655600154600160a060020a031663a9059cbb858460006040516020015260405160e060020a63ffffffff8516028152600160a060020a0390921660048301526024820152604401602060405180830381600087803b15156103da57600080fd5b6102c65a03f115156103eb57600080fd5b505050604051805190505083600160a060020a031633600160a060020a03167f623b3804fa71d67900d064613da8f94b9617215ee90799290593e1745087ad18858560405191825260208201526040908101905180910390a361044d836107f8565b600a5460ff16156104c357600754600160a060020a03166350c1bdf2338560405160e060020a63ffffffff8516028152600160a060020a0390921660048301526024820152604401600060405180830381600087803b15156104ae57600080fd5b6102c65a03f115156104bf57600080fd5b5050505b50505050565b60055481565b60035481565b60095481565b60065481565b60065490565b600454600160a060020a031681565b60025481565b600a5460ff1681565b60005433600160a060020a0390811691161461052057600080fd5b600154600160a060020a0316639975038c6040518163ffffffff1660e060020a028152600401600060405180830381600087803b151561055f57600080fd5b6102c65a03f1151561057057600080fd5b505050565b600054600160a060020a031681565b60085481565b60019392505050565b600354421190565b60005433600160a060020a039081169116146105b657600080fd5b600160a060020a03811615156105cb57600080fd5b600054600160a060020a0380831691167f8be0079c531659141344cd1fd0a4f28419497f9722a3daafe3b4186f6b6457e060405160405180910390a36000805473ffffffffffffffffffffffffffffffffffffffff1916600160a060020a0392909216919091179055565b600154600160a060020a031681565b600080600080600080600254421015801561066257506003544211155b6008546009546007549297503480151597509182111595509010159250600160a060020a03166313f44d103360006040516020015260405160e060020a63ffffffff8416028152600160a060020a039091166004820152602401602060405180830381600087803b15156106d557600080fd5b6102c65a03f115156106e657600080fd5b5050506040518051905090508480156106fc5750835b80156107055750805b801561070e5750825b80156107175750815b9550505050505090565b600080600061073b6005548561082e90919063ffffffff16565b915060009050678ac7230489e80000841015610756576107c6565b68015af1d78b58c4000084101561077f5761077882600a63ffffffff61085916565b90506107c6565b68056bc75e2d631000008410156107b25761077860646107a684600f63ffffffff61082e16565b9063ffffffff61085916565b6107c382600563ffffffff61085916565b90505b6107d6828263ffffffff6107de16565b949350505050565b6000828201838110156107ed57fe5b8091505b5092915050565b600454600160a060020a031681156108fc0282604051600060405180830381858888f19350505050151561082b57600080fd5b50565b60008083151561084157600091506107f1565b5082820282848281151561085157fe5b04146107ed57fe5b600080828481151561086757fe5b049493505050505600a165627a7a723058208d5ef934645828851da802657e1ab490412c10a079c29cc1a74ac90bffcb296a0029a165627a7a72305820017eb4fe77c51a197780faf525b6bcafc4dcbaef59d9d70b22c908dcd437859b002960606040526b01a3616d128fda9ddb000000600355341561001f57600080fd5b6003546000818155600160a060020a033316815260016020526040902055610c9a8061004c6000396000f3006060604052600436106100cc5763ffffffff60e060020a60003504166306fdde0381146100d1578063095ea7b31461015b57806318160ddd1461019157806323b872dd146101b65780632ff2e9dc146101de578063313ce567146101f157806342966c681461021d578063661884631461023557806370a082311461025757806395d89b41146102765780639975038c14610289578063a9059cbb1461029c578063ab67aa58146102be578063be45fd621461032a578063d73dd6231461038f578063dd62ed3e146103b1575b600080fd5b34156100dc57600080fd5b6100e46103d6565b60405160208082528190810183818151815260200191508051906020019080838360005b83811015610120578082015183820152602001610108565b50505050905090810190601f16801561014d5780820380516001836020036101000a031916815260200191505b509250505060405180910390f35b341561016657600080fd5b61017d600160a060020a036004351660243561040d565b604051901515815260200160405180910390f35b341561019c57600080fd5b6101a4610467565b60405190815260200160405180910390f35b34156101c157600080fd5b61017d600160a060020a036004358116906024351660443561046d565b34156101e957600080fd5b6101a46104a8565b34156101fc57600080fd5b6102046104ae565b60405163ffffffff909116815260200160405180910390f35b341561022857600080fd5b6102336004356104b3565b005b341561024057600080fd5b61017d600160a060020a0360043516602435610576565b341561026257600080fd5b6101a4600160a060020a036004351661065e565b341561028157600080fd5b6100e4610679565b341561029457600080fd5b6102336106b0565b34156102a757600080fd5b61017d600160a060020a0360043516602435610739565b34156102c957600080fd5b61017d600160a060020a036004803582169160248035909116916044359160849060643590810190830135806020601f8201819004810201604051908101604052818152929190602084018383808284375094965061076995505050505050565b341561033557600080fd5b61017d60048035600160a060020a03169060248035919060649060443590810190830135806020601f820181900481020160405190810160405281815292919060208401838380828437509496506107ae95505050505050565b341561039a57600080fd5b61017d600160a060020a03600435166024356107f0565b34156103bc57600080fd5b6101a4600160a060020a0360043581169060243516610882565b60408051908101604052600e81527f4d465820436f696e20546f6b656e000000000000000000000000000000000000602082015281565b600160a060020a0333811660008181526002602090815260408083209487168084529490915280822085905590929190600080516020610c4f8339815191529085905190815260200160405180910390a350600192915050565b60005481565b600061049e84848460006040518059106104845750595b818152601f19601f83011681016020016040529050610769565b90505b9392505050565b60035481565b601281565b60008082116104c157600080fd5b600160a060020a0333166000908152600160205260409020548211156104e657600080fd5b5033600160a060020a03811660009081526001602052604090205461050b90836108ad565b600160a060020a03821660009081526001602052604081209190915554610538908363ffffffff6108ad16565b60005581600160a060020a0382167fcc16f5dbb4873280815c1ee09dbd06736cffcc184412cf7a71a0fdb75d397ca560405160405180910390a35050565b600160a060020a033381166000908152600260209081526040808320938616835292905290812054808311156105d357600160a060020a03338116600090815260026020908152604080832093881683529290529081205561060a565b6105e3818463ffffffff6108ad16565b600160a060020a033381166000908152600260209081526040808320938916835292905220555b600160a060020a033381166000818152600260209081526040808320948916808452949091529081902054600080516020610c4f833981519152915190815260200160405180910390a35060019392505050565b600160a060020a031660009081526001602052604090205490565b60408051908101604052600381527f4d46580000000000000000000000000000000000000000000000000000000000602082015281565b33600160a060020a03811660009081526001602052604081205490546106d5916108ad565b6000908155600160a060020a038216808252600160205260409182902054917fcc16f5dbb4873280815c1ee09dbd06736cffcc184412cf7a71a0fdb75d397ca5905160405180910390a3600160a060020a0316600090815260016020526040812055565b60006104a18383600060405180591061074f5750595b818152601f19601f830116810160200160405290506107ae565b60006107768585856108bf565b151561078157600080fd5b61078a84610a41565b156107a25761079b85858585610a49565b90506107a6565b5060015b949350505050565b60006107ba8484610b44565b15156107c557600080fd5b6107ce84610a41565b156107e6576107df33858585610a49565b90506104a1565b5060019392505050565b600160a060020a033381166000908152600260209081526040808320938616835292905290812054610828908363ffffffff610c3f16565b600160a060020a033381166000818152600260209081526040808320948916808452949091529081902084905591929091600080516020610c4f83398151915291905190815260200160405180910390a350600192915050565b600160a060020a03918216600090815260026020908152604080832093909416825291909152205490565b6000828211156108b957fe5b50900390565b6000600160a060020a03831615156108d657600080fd5b600160a060020a0384166000908152600160205260409020548211156108fb57600080fd5b600160a060020a038085166000908152600260209081526040808320339094168352929052205482111561092e57600080fd5b600160a060020a038416600090815260016020526040902054610957908363ffffffff6108ad16565b600160a060020a03808616600090815260016020526040808220939093559085168152205461098c908363ffffffff610c3f16565b600160a060020a038085166000908152600160209081526040808320949094558783168252600281528382203390931682529190915220546109d4908363ffffffff6108ad16565b600160a060020a03808616600081815260026020908152604080832033861684529091529081902093909355908516917fddf252ad1be2c89b69c2b068fc378daa952ba7f163c4a11628f55a4df523b3ef9085905190815260200160405180910390a35060019392505050565b6000903b1190565b600083600160a060020a03811663c0ee0b8a33868686604051602001526040518463ffffffff1660e060020a0281526004018084600160a060020a0316600160a060020a0316815260200183815260200180602001828103825283818151815260200191508051906020019080838360005b83811015610ad3578082015183820152602001610abb565b50505050905090810190601f168015610b005780820380516001836020036101000a031916815260200191505b50945050505050602060405180830381600087803b1515610b2057600080fd5b6102c65a03f11515610b3157600080fd5b5050506040518051979650505050505050565b6000600160a060020a0383161515610b5b57600080fd5b600160a060020a033316600090815260016020526040902054821115610b8057600080fd5b600160a060020a033316600090815260016020526040902054610ba9908363ffffffff6108ad16565b600160a060020a033381166000908152600160205260408082209390935590851681522054610bde908363ffffffff610c3f16565b600160a060020a0380851660008181526001602052604090819020939093559133909116907fddf252ad1be2c89b69c2b068fc378daa952ba7f163c4a11628f55a4df523b3ef9085905190815260200160405180910390a350600192915050565b6000828201838110156104a157fe008c5be1e5ebec7d5bd14f71427d1e84f3dd0314c0f7b2291e5b200ac8c7c3b925a165627a7a7230582054c70f6b451226165a155a921a8cf287330df677d6f43a402002153c1858072c0029",
  "source": "pragma solidity ^0.4.19;\n\nimport \"./SafeMath.sol\";\nimport \"./Ownable.sol\";\nimport \"./MFC_coin.sol\";\nimport \"./ICO_crowdsale.sol\";\n\ncontract ICO_controller is Ownable {\n\n    using SafeMath for uint256;\n    // The token being sold\n    MFC_Token public token = new MFC_Token();\n\n    // add address for multisig!!\n    address public holder;\n\n    // list of buyer are able to participate in ICOs\n    mapping(address => bool) public buyersWhitelist;\n\n    // list of addresses accepted to airdrop\n    mapping(address => bool) public airdropList;\n\n    // store each buyer spent ether\n    mapping(address => uint256) public buyerSpent;\n\n    // devs&advisors reward\n    mapping(address => uint256) public devRewards;\n\n    address public incentiveProgram;\n    address public escrowIco;\n\n    WhitelistedCrowdsale public privateOffer;\n    WhitelistedCrowdsale public preSale;\n    WhitelistedCrowdsale public crowdsale;\n\n    uint256 constant public PRIVATE_OFFER_SUPPLY = 14000000 * 1 ether;\n    uint256 constant public PRE_SALE_SUPPLY = 36000000 * 1 ether;\n    uint256 constant public CROWDSALE_SUPPLY = 237000000 * 1 ether;\n    uint256 constant public SOFTCAP = 4720 * 1 ether;\n    uint256 constant public MAX_DEV_REWARD = 40000000 * 1 ether;\n    uint256 constant public INCENTIVE_PROGRAM_SUPPORT = 75000000 * 1 ether;\n    uint256 constant public MARKETING_SUPPORT_SUPPLY = 100000000 * 1 ether;\n    uint256 constant public AIRDROP_SUPPLY = 5000000 * 1 ether;\n\n    uint constant public Q3_2018_START_DATE = 1530403200; // 2018 07 01  \n    uint constant public Q2_2019_START_DATE = 1554076800; // 2019 04 01 \n    uint constant public Q2_2020_START_DATE = 1585699200; // 2020 04 01\n\n    uint public devRewardReleaseTime;\n    uint[2] public unlockMarketingTokensTime;\n    uint public unlockIndex = 0;\n\n    uint256 public releaseMarketingTokenAmount = MARKETING_SUPPORT_SUPPLY.div(2);\n\n    uint256 public totalDevReward;\n    uint256 public totalSold;\n    uint256 public totalAirdropAdrresses;\n\n    bool public crowdsaleFinished;\n\n    function ICO_controller(address _holder, address _escrowIco) {\n        require(_holder!=address(0));\n        require(_escrowIco!=address(0));\n        devRewardReleaseTime = Q3_2018_START_DATE + (uint(block.blockhash(block.number - 1)) % 7948800);\n\n        unlockMarketingTokensTime[0] = Q2_2019_START_DATE + (uint(block.blockhash(block.number - 2)) % 7948800);\n        unlockMarketingTokensTime[1] = Q2_2020_START_DATE + (uint(block.blockhash(block.number - 3)) % 7948800);\n\n        holder = _holder;\n        escrowIco = _escrowIco;\n    }\n\n    function () payable {}\n\n    modifier onlyIco() {\n        require(msg.sender == address(privateOffer) || msg.sender == address(preSale) || msg.sender == address(crowdsale));\n        _;\n    }\n\n    function setIncentiveProgram(address _incentive_program) public onlyOwner {\n        require(incentiveProgram==address(0));\n        incentiveProgram = _incentive_program;\n    }\n\n    function addBuyerToWhitelist(address _buyer) public onlyOwner returns (bool success) {\n        assert(_buyer != address(0));\n        buyersWhitelist[_buyer] = true;\n        return true;\n    }\n\n    function removeBuyerFromWhitelist(address _buyer) public onlyOwner returns (bool success) {\n        if (buyersWhitelist[_buyer] == true) {\n            buyersWhitelist[_buyer] = false;\n            return true;\n        }\n        return false;\n    }\n\n    function addBuyers(address[] _buyers) external onlyOwner returns (bool success) {\n        for (uint i = 0; i < _buyers.length; i++) {\n            addBuyerToWhitelist(_buyers[i]);\n        }\n        return true;\n    }\n\n    function removeBuyers(address[] _buyers) external onlyOwner returns (bool success) {\n        for (uint i = 0; i < _buyers.length; i++) {\n            removeBuyerFromWhitelist(_buyers[i]);\n        }\n        return true;\n    }\n\n    function isAddressWhitelisted(address buyer) external returns (bool isWhitelisted) {\n        return buyersWhitelist[buyer];\n    }\n\n    // Adds Devs Token Reward\n    function addDevReward(address _devAddress, uint256 _amount) public onlyOwner returns (bool success) {\n        require(MAX_DEV_REWARD.sub(totalDevReward) >= _amount);\n        require(_devAddress != address(0));\n        totalDevReward = totalDevReward.add(_amount);\n        devRewards[_devAddress] = devRewards[_devAddress].add(_amount);\n        return true;\n    }\n\n    function addRewards(address[] _devAddresses, uint256[] _amounts) external onlyOwner returns (bool success) {\n        require(_devAddresses.length == _amounts.length);\n        for (uint i = 0; i < _amounts.length; i++) {\n            addDevReward(_devAddresses[i], _amounts[i]);\n        }\n        return true;\n    }\n \n    function addAirdrop(address[] _airdropAddresses) external onlyOwner returns (bool success) {\n        for(uint i = 0; i < _airdropAddresses.length; i++) {\n            assert(_airdropAddresses[i] != address(0));\n            assert(airdropList[_airdropAddresses[i]] == false);\n            airdropList[_airdropAddresses[i]] = true;\n            totalAirdropAdrresses = totalAirdropAdrresses.add(1);\n        }\n        return true;\n    }\n\n    function removeAirdrop(address[] _airdropAddresses) external onlyOwner returns (bool success) {\n        for(uint i = 0; i < _airdropAddresses.length; i++) {\n            assert(airdropList[_airdropAddresses[i]] == true);\n            airdropList[_airdropAddresses[i]] = false;\n            totalAirdropAdrresses = totalAirdropAdrresses.sub(1);\n        }\n        return true;\n    }\n\n    function startIco(uint256 _startTime, uint256 _endTime, uint256 _rate, uint256 _min, uint256 _max, bool _countPurchaseAmount) internal returns (WhitelistedCrowdsale){\n        return startIco(_startTime, _endTime, _rate, _min,_max, address(this), _countPurchaseAmount);\n    }\n\n    function startIco(uint256 _startTime, uint256 _endTime, uint256 _rate, uint256 _min, uint256 _max, address _escrow, bool _countPurchaseAmount) internal returns (WhitelistedCrowdsale){\n        require(_startTime >= now);\n        require(_endTime >= _startTime);\n        require(_rate > 0);\n        return new WhitelistedCrowdsale(_startTime, _endTime, _rate, _min,_max, _escrow, token, _countPurchaseAmount);\n    }\n\n    // Create Privaet Offer Sale NOTE: should think about hardwritten rate or parametrized!!!!\n    function startPrivateOffer(uint256 _startTime, uint256 _endTime, address _escrow) external onlyOwner {\n        require(address(privateOffer) == address(0));\n        require(_escrow != address(0));\n        privateOffer = startIco(_startTime, _endTime, 14000, 1 ether, 200 ether, _escrow, false);\n        token.transfer(address(privateOffer), PRIVATE_OFFER_SUPPLY);\n    }\n\n    // Create PreSale ICO\n    function startPreSaleIco(uint256 _startTime, uint256 _endTime) external onlyOwner {\n        require(address(privateOffer) != address(0));\n        require(address(preSale)== address(0));\n        require(privateOffer.hasEnded() == true);\n        preSale = startIco(_startTime, _endTime, 12000, 5 ether, 200 ether, true);\n        token.transfer(address(preSale), PRE_SALE_SUPPLY);\n        privateOffer.burnRemainingTokens();\n    }\n\n    // Create Crowdsale\n    function startCrowdsale(uint256 _startTime, uint256 _endTime) external onlyOwner {\n        require(address(preSale) != address(0));\n        require(address(crowdsale) == address(0));\n        require(preSale.hasEnded() == true);\n        crowdsale = startIco(_startTime, _endTime, 10000, 0.5 ether, 200 ether, true);\n        token.transfer(address(crowdsale), CROWDSALE_SUPPLY);\n        preSale.burnRemainingTokens();\n    }\n\n    function finishCrowdsale() external onlyOwner {\n        require(address(crowdsale) != address(0));\n        require(crowdsale.hasEnded() == true);\n        require(crowdsaleFinished == false);\n        require(incentiveProgram != address(0));\n        crowdsale.burnRemainingTokens();\n        totalSold = privateOffer.getWeiRaised().add(preSale.getWeiRaised().add(crowdsale.getWeiRaised()));\n        if (totalSold >= SOFTCAP) {\n            // sends token for support program\n            bool success = token.transfer(incentiveProgram, INCENTIVE_PROGRAM_SUPPORT);\n            assert(success==true);\n            // burn some unspent reward tokens\n            token.burn(MAX_DEV_REWARD.sub(totalDevReward));\n            // burn after airdrop left tokens\n            token.burn(AIRDROP_SUPPLY.sub(AIRDROP_SUPPLY.div(totalAirdropAdrresses).mul(totalAirdropAdrresses)));\n            // send 50% of ico eth to contract onwer\n            escrowIco.transfer(this.balance.div(2));\n            // send other 50% to multisig holder address\n            address(holder).transfer(this.balance);\n        }\n        crowdsaleFinished = true;\n\n    }\n\n    // Count each buyer spent amount in case ICO wouldn't reach SOFTCAP\n    function addBuyerSpent(address _buyer, uint256 _amount) external onlyIco {\n        buyerSpent[_buyer] = buyerSpent[_buyer].add(_amount);\n    }\n\n    function refund() external returns (bool success) {\n        require(address(crowdsale) != address(0));\n        require(crowdsale.hasEnded());\n        if (totalSold == 0) {\n            totalSold = privateOffer.getWeiRaised().add(preSale.getWeiRaised()).add(crowdsale.getWeiRaised());\n        }\n        require(totalSold < SOFTCAP);\n        uint256 amount = buyerSpent[msg.sender];\n        buyerSpent[msg.sender] = 0;\n        msg.sender.transfer(amount);\n        return true;\n\n    }\n\n    function getDevReward() external {\n        require(devRewardReleaseTime < now);\n        uint256 amount = devRewards[msg.sender];\n        devRewards[msg.sender] = 0;\n        token.transfer(msg.sender, amount);\n    }\n\n    function getLockedMarketingTokens() onlyOwner external {\n        require(unlockIndex < 2);\n        require(unlockMarketingTokensTime[unlockIndex] < now);\n        uint256 amount = releaseMarketingTokenAmount;\n        // It is needed to prevent DAO vulnerability that allows owner get all tokens for once.\n        releaseMarketingTokenAmount = 0;\n        token.transfer(owner, amount);\n        releaseMarketingTokenAmount = amount;\n        unlockIndex++;\n    }\n\n    function getAirdropTokens() external {\n        require(airdropList[msg.sender]);\n        require(crowdsaleFinished);\n        airdropList[msg.sender] = false;\n        token.transfer(msg.sender, AIRDROP_SUPPLY.div(totalAirdropAdrresses));\n    }\n}",
  "sourcePath": "C:\\Workspace\\mfc\\smart-contracts\\contracts\\ICO_controller.sol",
  "compiler": {
    "name": "solc",
    "version": "0.4.19+commit.c4cbbb05.Emscripten.clang"
  },
  "schemaVersion": "2.0.0",
  "updatedAt": "2018-03-19T09:44:20.099Z"
}