{
  "contractName": "MFC_Token",
  "abi": [
    {
      "constant": true,
      "inputs": [],
      "name": "name",
      "outputs": [
        {
          "name": "",
          "type": "string"
        }
      ],
      "payable": false,
      "stateMutability": "view",
      "type": "function"
    },
    {
      "constant": false,
      "inputs": [
        {
          "name": "_spender",
          "type": "address"
        },
        {
          "name": "_value",
          "type": "uint256"
        }
      ],
      "name": "approve",
      "outputs": [
        {
          "name": "",
          "type": "bool"
        }
      ],
      "payable": false,
      "stateMutability": "nonpayable",
      "type": "function"
    },
    {
      "constant": true,
      "inputs": [],
      "name": "totalSupply",
      "outputs": [
        {
          "name": "",
          "type": "uint256"
        }
      ],
      "payable": false,
      "stateMutability": "view",
      "type": "function"
    },
    {
      "constant": false,
      "inputs": [
        {
          "name": "_from",
          "type": "address"
        },
        {
          "name": "_to",
          "type": "address"
        },
        {
          "name": "_value",
          "type": "uint256"
        }
      ],
      "name": "transferFrom",
      "outputs": [
        {
          "name": "success",
          "type": "bool"
        }
      ],
      "payable": false,
      "stateMutability": "nonpayable",
      "type": "function"
    },
    {
      "constant": true,
      "inputs": [],
      "name": "INITIAL_SUPPLY",
      "outputs": [
        {
          "name": "",
          "type": "uint256"
        }
      ],
      "payable": false,
      "stateMutability": "view",
      "type": "function"
    },
    {
      "constant": true,
      "inputs": [],
      "name": "decimals",
      "outputs": [
        {
          "name": "",
          "type": "uint32"
        }
      ],
      "payable": false,
      "stateMutability": "view",
      "type": "function"
    },
    {
      "constant": false,
      "inputs": [
        {
          "name": "_value",
          "type": "uint256"
        }
      ],
      "name": "burn",
      "outputs": [],
      "payable": false,
      "stateMutability": "nonpayable",
      "type": "function"
    },
    {
      "constant": false,
      "inputs": [
        {
          "name": "_spender",
          "type": "address"
        },
        {
          "name": "_subtractedValue",
          "type": "uint256"
        }
      ],
      "name": "decreaseApproval",
      "outputs": [
        {
          "name": "success",
          "type": "bool"
        }
      ],
      "payable": false,
      "stateMutability": "nonpayable",
      "type": "function"
    },
    {
      "constant": true,
      "inputs": [
        {
          "name": "_owner",
          "type": "address"
        }
      ],
      "name": "balanceOf",
      "outputs": [
        {
          "name": "balance",
          "type": "uint256"
        }
      ],
      "payable": false,
      "stateMutability": "view",
      "type": "function"
    },
    {
      "constant": true,
      "inputs": [],
      "name": "symbol",
      "outputs": [
        {
          "name": "",
          "type": "string"
        }
      ],
      "payable": false,
      "stateMutability": "view",
      "type": "function"
    },
    {
      "constant": false,
      "inputs": [],
      "name": "burnAll",
      "outputs": [],
      "payable": false,
      "stateMutability": "nonpayable",
      "type": "function"
    },
    {
      "constant": false,
      "inputs": [
        {
          "name": "_to",
          "type": "address"
        },
        {
          "name": "_value",
          "type": "uint256"
        }
      ],
      "name": "transfer",
      "outputs": [
        {
          "name": "success",
          "type": "bool"
        }
      ],
      "payable": false,
      "stateMutability": "nonpayable",
      "type": "function"
    },
    {
      "constant": false,
      "inputs": [
        {
          "name": "_from",
          "type": "address"
        },
        {
          "name": "_to",
          "type": "address"
        },
        {
          "name": "_value",
          "type": "uint256"
        },
        {
          "name": "_data",
          "type": "bytes"
        }
      ],
      "name": "transferFrom",
      "outputs": [
        {
          "name": "success",
          "type": "bool"
        }
      ],
      "payable": false,
      "stateMutability": "nonpayable",
      "type": "function"
    },
    {
      "constant": false,
      "inputs": [
        {
          "name": "_to",
          "type": "address"
        },
        {
          "name": "_value",
          "type": "uint256"
        },
        {
          "name": "_data",
          "type": "bytes"
        }
      ],
      "name": "transfer",
      "outputs": [
        {
          "name": "success",
          "type": "bool"
        }
      ],
      "payable": false,
      "stateMutability": "nonpayable",
      "type": "function"
    },
    {
      "constant": false,
      "inputs": [
        {
          "name": "_spender",
          "type": "address"
        },
        {
          "name": "_addedValue",
          "type": "uint256"
        }
      ],
      "name": "increaseApproval",
      "outputs": [
        {
          "name": "success",
          "type": "bool"
        }
      ],
      "payable": false,
      "stateMutability": "nonpayable",
      "type": "function"
    },
    {
      "constant": true,
      "inputs": [
        {
          "name": "_owner",
          "type": "address"
        },
        {
          "name": "_spender",
          "type": "address"
        }
      ],
      "name": "allowance",
      "outputs": [
        {
          "name": "remaining",
          "type": "uint256"
        }
      ],
      "payable": false,
      "stateMutability": "view",
      "type": "function"
    },
    {
      "inputs": [],
      "payable": false,
      "stateMutability": "nonpayable",
      "type": "constructor"
    },
    {
      "payable": true,
      "stateMutability": "payable",
      "type": "fallback"
    },
    {
      "anonymous": false,
      "inputs": [
        {
          "indexed": true,
          "name": "burner",
          "type": "address"
        },
        {
          "indexed": true,
          "name": "value",
          "type": "uint256"
        }
      ],
      "name": "Burn",
      "type": "event"
    },
    {
      "anonymous": false,
      "inputs": [
        {
          "indexed": true,
          "name": "owner",
          "type": "address"
        },
        {
          "indexed": true,
          "name": "spender",
          "type": "address"
        },
        {
          "indexed": false,
          "name": "value",
          "type": "uint256"
        }
      ],
      "name": "Approval",
      "type": "event"
    },
    {
      "anonymous": false,
      "inputs": [
        {
          "indexed": true,
          "name": "from",
          "type": "address"
        },
        {
          "indexed": true,
          "name": "to",
          "type": "address"
        },
        {
          "indexed": false,
          "name": "value",
          "type": "uint256"
        }
      ],
      "name": "Transfer",
      "type": "event"
    }
  ],
  "bytecode": "0x60606040526b019d971e4fe8401e74000000600355341561001f57600080fd5b6003546000818155600160a060020a033316815260016020526040902055610ce28061004c6000396000f3006060604052600436106100e55763ffffffff7c010000000000000000000000000000000000000000000000000000000060003504166306fdde0381146100ea578063095ea7b31461017457806318160ddd146101aa57806323b872dd146101cf5780632ff2e9dc146101f7578063313ce5671461020a57806342966c6814610236578063661884631461024e57806370a082311461027057806395d89b411461028f5780639975038c146102a2578063a9059cbb146102b5578063ab67aa58146102d7578063be45fd6214610343578063d73dd623146103a8578063dd62ed3e146103ca575b600080fd5b34156100f557600080fd5b6100fd6103ef565b60405160208082528190810183818151815260200191508051906020019080838360005b83811015610139578082015183820152602001610121565b50505050905090810190601f1680156101665780820380516001836020036101000a031916815260200191505b509250505060405180910390f35b341561017f57600080fd5b610196600160a060020a0360043516602435610426565b604051901515815260200160405180910390f35b34156101b557600080fd5b6101bd610492565b60405190815260200160405180910390f35b34156101da57600080fd5b610196600160a060020a0360043581169060243516604435610498565b341561020257600080fd5b6101bd6104d3565b341561021557600080fd5b61021d6104d9565b60405163ffffffff909116815260200160405180910390f35b341561024157600080fd5b61024c6004356104de565b005b341561025957600080fd5b610196600160a060020a03600435166024356105a1565b341561027b57600080fd5b6101bd600160a060020a036004351661069b565b341561029a57600080fd5b6100fd6106b6565b34156102ad57600080fd5b61024c6106ed565b34156102c057600080fd5b610196600160a060020a0360043516602435610776565b34156102e257600080fd5b610196600160a060020a036004803582169160248035909116916044359160849060643590810190830135806020601f820181900481020160405190810160405281815292919060208401838380828437509496506107a695505050505050565b341561034e57600080fd5b61019660048035600160a060020a03169060248035919060649060443590810190830135806020601f820181900481020160405190810160405281815292919060208401838380828437509496506107eb95505050505050565b34156103b357600080fd5b610196600160a060020a036004351660243561082d565b34156103d557600080fd5b6101bd600160a060020a03600435811690602435166108d1565b60408051908101604052600e81527f4d464320436f696e20546f6b656e000000000000000000000000000000000000602082015281565b600160a060020a03338116600081815260026020908152604080832094871680845294909152808220859055909291907f8c5be1e5ebec7d5bd14f71427d1e84f3dd0314c0f7b2291e5b200ac8c7c3b9259085905190815260200160405180910390a350600192915050565b60005481565b60006104c984848460006040518059106104af5750595b818152601f19601f830116810160200160405290506107a6565b90505b9392505050565b60035481565b601281565b60008082116104ec57600080fd5b600160a060020a03331660009081526001602052604090205482111561051157600080fd5b5033600160a060020a03811660009081526001602052604090205461053690836108fc565b600160a060020a03821660009081526001602052604081209190915554610563908363ffffffff6108fc16565b60005581600160a060020a0382167fcc16f5dbb4873280815c1ee09dbd06736cffcc184412cf7a71a0fdb75d397ca560405160405180910390a35050565b600160a060020a033381166000908152600260209081526040808320938616835292905290812054808311156105fe57600160a060020a033381166000908152600260209081526040808320938816835292905290812055610635565b61060e818463ffffffff6108fc16565b600160a060020a033381166000908152600260209081526040808320938916835292905220555b600160a060020a0333811660008181526002602090815260408083209489168084529490915290819020547f8c5be1e5ebec7d5bd14f71427d1e84f3dd0314c0f7b2291e5b200ac8c7c3b925915190815260200160405180910390a35060019392505050565b600160a060020a031660009081526001602052604090205490565b60408051908101604052600381527f4d46430000000000000000000000000000000000000000000000000000000000602082015281565b33600160a060020a0381166000908152600160205260408120549054610712916108fc565b6000908155600160a060020a038216808252600160205260409182902054917fcc16f5dbb4873280815c1ee09dbd06736cffcc184412cf7a71a0fdb75d397ca5905160405180910390a3600160a060020a0316600090815260016020526040812055565b60006104cc8383600060405180591061078c5750595b818152601f19601f830116810160200160405290506107eb565b60006107b385858561090e565b15156107be57600080fd5b6107c784610a90565b156107df576107d885858585610a98565b90506107e3565b5060015b949350505050565b60006107f78484610bac565b151561080257600080fd5b61080b84610a90565b156108235761081c33858585610a98565b90506104cc565b5060019392505050565b600160a060020a033381166000908152600260209081526040808320938616835292905290812054610865908363ffffffff610ca716565b600160a060020a0333811660008181526002602090815260408083209489168084529490915290819020849055919290917f8c5be1e5ebec7d5bd14f71427d1e84f3dd0314c0f7b2291e5b200ac8c7c3b92591905190815260200160405180910390a350600192915050565b600160a060020a03918216600090815260026020908152604080832093909416825291909152205490565b60008282111561090857fe5b50900390565b6000600160a060020a038316151561092557600080fd5b600160a060020a03841660009081526001602052604090205482111561094a57600080fd5b600160a060020a038085166000908152600260209081526040808320339094168352929052205482111561097d57600080fd5b600160a060020a0384166000908152600160205260409020546109a6908363ffffffff6108fc16565b600160a060020a0380861660009081526001602052604080822093909355908516815220546109db908363ffffffff610ca716565b600160a060020a03808516600090815260016020908152604080832094909455878316825260028152838220339093168252919091522054610a23908363ffffffff6108fc16565b600160a060020a03808616600081815260026020908152604080832033861684529091529081902093909355908516917fddf252ad1be2c89b69c2b068fc378daa952ba7f163c4a11628f55a4df523b3ef9085905190815260200160405180910390a35060019392505050565b6000903b1190565b600083600160a060020a03811663c0ee0b8a33868686604051602001526040518463ffffffff167c01000000000000000000000000000000000000000000000000000000000281526004018084600160a060020a0316600160a060020a0316815260200183815260200180602001828103825283818151815260200191508051906020019080838360005b83811015610b3b578082015183820152602001610b23565b50505050905090810190601f168015610b685780820380516001836020036101000a031916815260200191505b50945050505050602060405180830381600087803b1515610b8857600080fd5b6102c65a03f11515610b9957600080fd5b5050506040518051979650505050505050565b6000600160a060020a0383161515610bc357600080fd5b600160a060020a033316600090815260016020526040902054821115610be857600080fd5b600160a060020a033316600090815260016020526040902054610c11908363ffffffff6108fc16565b600160a060020a033381166000908152600160205260408082209390935590851681522054610c46908363ffffffff610ca716565b600160a060020a0380851660008181526001602052604090819020939093559133909116907fddf252ad1be2c89b69c2b068fc378daa952ba7f163c4a11628f55a4df523b3ef9085905190815260200160405180910390a350600192915050565b6000828201838110156104cc57fe00a165627a7a7230582084eb8227b0dc3aa3691237448bb948e5f884f1bc791f12c535d4f7d22b16c5eb0029",
  "source": "pragma solidity ^0.4.19;\n\nimport \"./SafeMath.sol\";\nimport \"./Receiver_Interface.sol\";\n\n/**\n * @title ERC20Basic\n * @dev Simpler version of ERC20 interface\n * @dev see https://github.com/ethereum/EIPs/issues/179\n */\ncontract ERC20Basic {\n    uint256 public totalSupply;\n\n    function balanceOf(address who) public constant returns (uint256);\n\n    function transfer(address to, uint256 value) public returns (bool);\n\n    event Transfer(address indexed from, address indexed to, uint256 value);\n}\n\n/**\n * @title ERC20 interface\n * @dev see https://github.com/ethereum/EIPs/issues/20\n */\ncontract ERC20 is ERC20Basic {\n    function allowance(address owner, address spender) public constant returns (uint256);\n\n    function transferFrom(address from, address to, uint256 value) public returns (bool);\n\n    function approve(address spender, uint256 value) public returns (bool);\n\n    event Approval(address indexed owner, address indexed spender, uint256 value);\n}\n\n/**\n * @title Basic token\n * @dev Basic version of StandardToken, with no allowances.\n */\ncontract BasicToken is ERC20Basic {\n    using SafeMath for uint256;\n\n    mapping(address => uint256) balances;\n\n    /**\n    * @dev transfer token for a specified address\n    * @param _to The address to transfer to.\n    * @param _value The amount to be transferred.\n    */\n    function transfer(address _to, uint256 _value) public returns (bool) {\n        require(_to != address(0));\n        require(_value <= balances[msg.sender]);\n        // SafeMath.sub will throw if there is not enough balance.\n        balances[msg.sender] = balances[msg.sender].sub(_value);\n        balances[_to] = balances[_to].add(_value);\n        Transfer(msg.sender, _to, _value);\n        return true;\n    }\n\n    /**\n     * @dev Gets the balance of the specified address.\n     * @param _owner The address to query the the balance of.\n     * @return An uint256 representing the amount owned by the passed address.\n     */\n    function balanceOf(address _owner) public constant returns (uint256 balance) {\n        return balances[_owner];\n    }\n}\n\n/** \n * @title Standard ERC20 token \n * \n * @dev Implementation of the basic standard token. \n * @dev https://github.com/ethereum/EIPs/issues/20 \n * @dev Based on code by FirstBlood: https://github.com/Firstbloodio/token/blob/master/smart_contract/FirstBloodToken.sol \n */\ncontract StandardToken is ERC20, BasicToken {\n\n    mapping(address => mapping(address => uint256)) internal allowed;\n\n    /**\n     * @dev Transfer tokens from one address to another\n     * @param _from address The address which you want to send tokens from\n     * @param _to address The address which you want to transfer to\n     * @param _value uint256 the amount of tokens to be transferred\n     */\n    function transferFrom(address _from, address _to, uint256 _value) public returns (bool) {\n        require(_to != address(0));\n        require(_value <= balances[_from]);\n        require(_value <= allowed[_from][msg.sender]);\n        balances[_from] = balances[_from].sub(_value);\n        balances[_to] = balances[_to].add(_value);\n        allowed[_from][msg.sender] = allowed[_from][msg.sender].sub(_value);\n        Transfer(_from, _to, _value);\n        return true;\n    }\n\n    /**\n     * @dev Approve the passed address to spend the specified amount of tokens on behalf of msg.sender.\n     *\n     * Beware that changing an allowance with this method brings the risk that someone may use both the old\n     * and the new allowance by unfortunate transaction ordering. One possible solution to mitigate this\n     * race condition is to first reduce the spender's allowance to 0 and set the desired value afterwards:\n     * https://github.com/ethereum/EIPs/issues/20#issuecomment-263524729\n     * @param _spender The address which will spend the funds.\n     * @param _value The amount of tokens to be spent.\n     */\n    function approve(address _spender, uint256 _value) public returns (bool) {\n        allowed[msg.sender][_spender] = _value;\n        Approval(msg.sender, _spender, _value);\n        return true;\n    }\n\n    /**\n     * @dev Function to check the amount of tokens that an owner allowed to a spender.\n     * @param _owner address The address which owns the funds.\n     * @param _spender address The address which will spend the funds.\n     * @return A uint256 specifying the amount of tokens still available for the spender.\n     */\n    function allowance(address _owner, address _spender) public constant returns (uint256 remaining) {\n        return allowed[_owner][_spender];\n    }\n\n    /**\n     * approve should be called when allowed[_spender] == 0. To increment\n     * allowed value is better to use this function to avoid 2 calls (and wait until\n     * the first transaction is mined) * From MonolithDAO Token.sol\n     */\n    function increaseApproval(address _spender, uint _addedValue) public returns (bool success) {\n        allowed[msg.sender][_spender] = allowed[msg.sender][_spender].add(_addedValue);\n        Approval(msg.sender, _spender, allowed[msg.sender][_spender]);\n        return true;\n    }\n\n    function decreaseApproval(address _spender, uint _subtractedValue) public returns (bool success) {\n        uint oldValue = allowed[msg.sender][_spender];\n        if (_subtractedValue > oldValue) {\n            allowed[msg.sender][_spender] = 0;\n        } else {\n            allowed[msg.sender][_spender] = oldValue.sub(_subtractedValue);\n        }\n        Approval(msg.sender, _spender, allowed[msg.sender][_spender]);\n        return true;\n    }\n\n    function() public payable {\n        revert();\n    }\n\n}\n\n\n /*\n  ERC223 additions to ERC20\n\n  Interface wise is ERC20 + data paramenter to transfer and transferFrom.\n */\n\ncontract ERC223 is ERC20 {\n  function transfer(address to, uint value, bytes data) returns (bool ok);\n  function transferFrom(address from, address to, uint value, bytes data) returns (bool ok);\n}\n\n\ncontract Standard223Token is ERC223, StandardToken {\n    //function that is called when a user or another contract wants to transfer funds\n    function transfer(address _to, uint _value, bytes _data) returns (bool success) {\n        //filtering if the target is a contract with bytecode inside it\n        if (!super.transfer(_to, _value)) throw;\n        // do a normal token transfer\n        if (isContract(_to)) return contractFallback(msg.sender, _to, _value, _data);\n        return true;\n    }\n\n    function transferFrom(address _from, address _to, uint _value, bytes _data) returns (bool success) {\n        if (!super.transferFrom(_from, _to, _value)) throw;\n        // do a normal token transfer\n        if (isContract(_to)) return contractFallback(_from, _to, _value, _data);\n        return true;\n    }\n\n    function transfer(address _to, uint _value) returns (bool success) {\n        return transfer(_to, _value, new bytes(0));\n    }\n\n    function transferFrom(address _from, address _to, uint _value) returns (bool success) {\n        return transferFrom(_from, _to, _value, new bytes(0));\n    }\n\n    //function that is called when transaction target is a contract\n    function contractFallback(address _origin, address _to, uint _value, bytes _data) private returns (bool success) {\n        ERC223Receiver reciever = ERC223Receiver(_to);\n        return reciever.tokenFallback(msg.sender, _value, _data);\n    }\n\n    //assemble the given address bytecode. If bytecode exists then the _addr is a contract.\n    function isContract(address _addr) private returns (bool is_contract) {\n        // retrieve the size of the code on target address, this needs assembly\n        uint length;\n        assembly {length := extcodesize(_addr)}\n        return length > 0;\n    }\n\n}\n\n\n/**\n * @title Burnable Token\n * @dev Token that can be irreversibly burned (destroyed).\n */\ncontract BurnableToken is Standard223Token {\n\n    /**\n     * @dev Burns a specific amount of tokens.\n     * @param _value The amount of token to be burned.\n     */\n    function burn(uint _value) public {\n        require(_value > 0);\n        require(_value <= balances[msg.sender]);\n        address burner = msg.sender;\n        balances[burner] = balances[burner].sub(_value);\n        totalSupply = totalSupply.sub(_value);\n        Burn(burner, _value);\n    }\n\n    function burnAll() public {\n        address burner = msg.sender;\n        totalSupply = totalSupply.sub(balances[burner]);\n        Burn(burner, balances[burner]);\n        balances[burner] = 0;\n    }\n\n    event Burn(address indexed burner, uint indexed value);\n\n}\n\n\ncontract MFC_Token is BurnableToken {\n\n    string public constant name = \"MFC Coin Token\";\n\n    string public constant symbol = \"MFC\";\n\n    uint32 public constant decimals = 18;\n\n    uint256 public INITIAL_SUPPLY = 500000000 * 1 ether;\n\n    function MFC_Token() {\n        totalSupply = INITIAL_SUPPLY;\n        balances[msg.sender] = INITIAL_SUPPLY;\n    }\n\n}",
  "sourcePath": "/home/savao/hg/smart-contracts/contracts/MFC_coin.sol",
  "schemaVersion": "1.0.0",
  "updatedAt": "2018-02-16T14:50:22.396Z"
}