{
  "contractName": "multiowned",
  "abi": [
    {
      "constant": true,
      "inputs": [],
      "name": "m_numOwners",
      "outputs": [
        {
          "name": "",
          "type": "uint256"
        }
      ],
      "payable": false,
      "stateMutability": "view",
      "type": "function"
    },
    {
      "constant": true,
      "inputs": [],
      "name": "m_multiOwnedRequired",
      "outputs": [
        {
          "name": "",
          "type": "uint256"
        }
      ],
      "payable": false,
      "stateMutability": "view",
      "type": "function"
    },
    {
      "inputs": [
        {
          "name": "_owners",
          "type": "address[]"
        },
        {
          "name": "_required",
          "type": "uint256"
        }
      ],
      "payable": false,
      "stateMutability": "nonpayable",
      "type": "constructor"
    },
    {
      "anonymous": false,
      "inputs": [
        {
          "indexed": false,
          "name": "owner",
          "type": "address"
        },
        {
          "indexed": false,
          "name": "operation",
          "type": "bytes32"
        }
      ],
      "name": "Confirmation",
      "type": "event"
    },
    {
      "anonymous": false,
      "inputs": [
        {
          "indexed": false,
          "name": "owner",
          "type": "address"
        },
        {
          "indexed": false,
          "name": "operation",
          "type": "bytes32"
        }
      ],
      "name": "Revoke",
      "type": "event"
    },
    {
      "anonymous": false,
      "inputs": [
        {
          "indexed": false,
          "name": "owner",
          "type": "address"
        },
        {
          "indexed": false,
          "name": "operation",
          "type": "bytes32"
        }
      ],
      "name": "FinalConfirmation",
      "type": "event"
    },
    {
      "anonymous": false,
      "inputs": [
        {
          "indexed": false,
          "name": "oldOwner",
          "type": "address"
        },
        {
          "indexed": false,
          "name": "newOwner",
          "type": "address"
        }
      ],
      "name": "OwnerChanged",
      "type": "event"
    },
    {
      "anonymous": false,
      "inputs": [
        {
          "indexed": false,
          "name": "newOwner",
          "type": "address"
        }
      ],
      "name": "OwnerAdded",
      "type": "event"
    },
    {
      "anonymous": false,
      "inputs": [
        {
          "indexed": false,
          "name": "oldOwner",
          "type": "address"
        }
      ],
      "name": "OwnerRemoved",
      "type": "event"
    },
    {
      "anonymous": false,
      "inputs": [
        {
          "indexed": false,
          "name": "newRequirement",
          "type": "uint256"
        }
      ],
      "name": "RequirementChanged",
      "type": "event"
    },
    {
      "constant": false,
      "inputs": [
        {
          "name": "_from",
          "type": "address"
        },
        {
          "name": "_to",
          "type": "address"
        }
      ],
      "name": "changeOwner",
      "outputs": [],
      "payable": false,
      "stateMutability": "nonpayable",
      "type": "function"
    },
    {
      "constant": false,
      "inputs": [
        {
          "name": "_owner",
          "type": "address"
        }
      ],
      "name": "addOwner",
      "outputs": [],
      "payable": false,
      "stateMutability": "nonpayable",
      "type": "function"
    },
    {
      "constant": false,
      "inputs": [
        {
          "name": "_owner",
          "type": "address"
        }
      ],
      "name": "removeOwner",
      "outputs": [],
      "payable": false,
      "stateMutability": "nonpayable",
      "type": "function"
    },
    {
      "constant": false,
      "inputs": [
        {
          "name": "_newRequired",
          "type": "uint256"
        }
      ],
      "name": "changeRequirement",
      "outputs": [],
      "payable": false,
      "stateMutability": "nonpayable",
      "type": "function"
    },
    {
      "constant": true,
      "inputs": [
        {
          "name": "ownerIndex",
          "type": "uint256"
        }
      ],
      "name": "getOwner",
      "outputs": [
        {
          "name": "",
          "type": "address"
        }
      ],
      "payable": false,
      "stateMutability": "view",
      "type": "function"
    },
    {
      "constant": true,
      "inputs": [],
      "name": "getOwners",
      "outputs": [
        {
          "name": "",
          "type": "address[]"
        }
      ],
      "payable": false,
      "stateMutability": "view",
      "type": "function"
    },
    {
      "constant": true,
      "inputs": [
        {
          "name": "_addr",
          "type": "address"
        }
      ],
      "name": "isOwner",
      "outputs": [
        {
          "name": "",
          "type": "bool"
        }
      ],
      "payable": false,
      "stateMutability": "view",
      "type": "function"
    },
    {
      "constant": true,
      "inputs": [],
      "name": "amIOwner",
      "outputs": [
        {
          "name": "",
          "type": "bool"
        }
      ],
      "payable": false,
      "stateMutability": "view",
      "type": "function"
    },
    {
      "constant": false,
      "inputs": [
        {
          "name": "_operation",
          "type": "bytes32"
        }
      ],
      "name": "revoke",
      "outputs": [],
      "payable": false,
      "stateMutability": "nonpayable",
      "type": "function"
    },
    {
      "constant": true,
      "inputs": [
        {
          "name": "_operation",
          "type": "bytes32"
        },
        {
          "name": "_owner",
          "type": "address"
        }
      ],
      "name": "hasConfirmed",
      "outputs": [
        {
          "name": "",
          "type": "bool"
        }
      ],
      "payable": false,
      "stateMutability": "view",
      "type": "function"
    }
  ],
  "bytecode": "0x606060405234156200001057600080fd5b6040516200105d3803806200105d83398101604052808051820191906020018051915060009050808084516000811180156200004d575060fa8111155b15156200005957600080fd5b8486516000821180156200006d5750808211155b15156200007957600080fd5b8751600155600087815595505b87518610156200014e578786815181106200009d57fe5b906020019060200201519450600160a060020a03851615801590620000d85750620000d685640100000000620003d76200017482021704565b155b1515620000e457600080fd5b620001006001870164010000000062000b756200019182021704565b93508460028561010081106200011257fe5b018054600160a060020a031916600160a060020a0392831617905585166000908152610102602052604090208490556001959095019462000086565b6200016664010000000062000a88620001b182021704565b505050505050505062000203565b600160a060020a0316600090815261010260205260408120541190565b60008115801590620001a4575060fa8211155b1515620001ad57fe5b5090565b60015460009011620001bf57fe5b60015460fa901115620001ce57fe5b600254600160a060020a031615620001e257fe5b60005415801590620001f8575060015460005411155b15156200020157fe5b565b610e4a80620002136000396000f3006060604052600436106100b95763ffffffff7c0100000000000000000000000000000000000000000000000000000000600035041663173825d981146100be5780632f54bf6e146100df5780634123cb6b146101125780634e4ab830146101375780637065cb481461014a578063787d64e414610169578063a0e67e2b1461017c578063b75c7dc6146101e2578063ba51a6df146101f8578063c2cf73261461020e578063c41a360a14610230578063f00d4b5d14610262575b600080fd5b34156100c957600080fd5b6100dd600160a060020a0360043516610287565b005b34156100ea57600080fd5b6100fe600160a060020a03600435166103d7565b604051901515815260200160405180910390f35b341561011d57600080fd5b6101256103f4565b60405190815260200160405180910390f35b341561014257600080fd5b6100fe6103fa565b341561015557600080fd5b6100dd600160a060020a0360043516610417565b341561017457600080fd5b610125610534565b341561018757600080fd5b61018f61053a565b60405160208082528190810183818151815260200191508051906020019060200280838360005b838110156101ce5780820151838201526020016101b6565b505050509050019250505060405180910390f35b34156101ed57600080fd5b6100dd6004356105b8565b341561020357600080fd5b6100dd600435610681565b341561021957600080fd5b6100fe600435600160a060020a0360243516610712565b341561023b57600080fd5b610246600435610767565b604051600160a060020a03909116815260200160405180910390f35b341561026d57600080fd5b6100dd600160a060020a036004358116906024351661078b565b600081610293816103d7565b151561029e57600080fd5b60018054036000811180156102b4575060fa8111155b15156102bf57600080fd5b60005460018054036000821180156102d75750808211155b15156102e257600080fd5b600036604051808383808284378201915050925050506040518091039020610309816108b7565b156103ce57610316610a88565b61031e610ad5565b600160a060020a0387166000908152610102602052604090205461034190610b75565b95506000600287610100811061035357fe5b018054600160a060020a031916600160a060020a03928316179055871660009081526101026020526040812055610388610b93565b610390610a88565b7f58619076adf5bb0943d100ef88d52d7c3fd691b19d3a9071b555b651fbf418da87604051600160a060020a03909116815260200160405180910390a15b50505050505050565b600160a060020a0316600090815261010260205260408120541190565b60015481565b6000610405336103d7565b151561041057600080fd5b5060015b90565b80610421816103d7565b1561042b57600080fd5b600154600101600081118015610442575060fa8111155b151561044d57600080fd5b600036604051808383808284378201915050925050506040518091039020610474816108b7565b1561052e57610481610a88565b610489610ad5565b60018054810190819055849060029061010081106104a357fe5b018054600160a060020a031916600160a060020a03929092169190911790556001546104ce90610b75565b600160a060020a038516600090815261010260205260409020556104f0610a88565b7f994a936646fe87ffe4f1e469d3d6aa417d6b855598397f323de5b449f765f0c384604051600160a060020a03909116815260200160405180910390a15b50505050565b60005481565b610542610daf565b61054a610daf565b600060015460405180591061055c5750595b90808252806020026020018201604052509150600090505b6001548110156105b25761058781610767565b82828151811061059357fe5b600160a060020a03909216602092830290910190910152600101610574565b50919050565b600080826105c581610d1d565b15156105d057600080fd5b6105d9336103d7565b15156105e457600080fd5b6105ed33610d32565b600085815261010360205260408120600181015492955093509084161161061357600080fd5b61061c84610d61565b81546001908101835582018054849003905561063784610d61565b7fc7fb647e59b18047309aa15aad418e5d7ca96d173ad704f1031a2c3d7591734b3385604051600160a060020a03909216825260208201526040908101905180910390a150505050565b806001546000821180156106955750808211155b15156106a057600080fd5b6000366040518083838082843782019150509250505060405180910390206106c7816108b7565b1561052e5760008490556106d9610ad5565b7facbdb084c721332ac59f9b8e392196c9eb0e4932862da8eb9beaf0dad4f550da8460405190815260200160405180910390a150505050565b60008261071e81610d1d565b151561072957600080fd5b82610733816103d7565b151561073e57600080fd5b61074784610d32565b600086815261010360205260409020600101541615159250505092915050565b6000600260018301610100811061077a57fe5b0154600160a060020a031692915050565b600082610797816103d7565b15156107a257600080fd5b826107ac816103d7565b156107b657600080fd5b6000366040518083838082843782019150509250505060405180910390206107dd816108b7565b156108af576107ea610a88565b6107f2610ad5565b600160a060020a0386166000908152610102602052604090205461081590610b75565b935084600285610100811061082657fe5b018054600160a060020a031916600160a060020a0392831617905586811660009081526101026020526040808220829055918716815220849055610868610a88565b7fb532073b38c83145e3e5135377a08bf9aab55bc0fd7c1179cd4fb995d2a5159c8686604051600160a060020a039283168152911660208201526040908101905180910390a15b505050505050565b60008060006108c5336103d7565b15156108d057600080fd5b6101045461020014156108e5576108e5610ad5565b60008481526101036020526040902091506108ff84610d1d565b15156109525760008054835560018084019190915561010480549161092691908301610dc1565b600283018190556101048054869290811061093d57fe5b60009182526020909120015561095284610d61565b61095b33610d32565b90508082600101541660001415610a815781546000901161097857fe5b815460011415610a215760008481526101036020526040902060020154610104805490919081106109a557fe5b600091825260208083209091018290558582526101039052604080822082815560018101839055600201919091557f367569357efc39b74a025c4ba1d64068b2b574e3b0d081c48d42f7feeca4cd16903390869051600160a060020a03909216825260208201526040908101905180910390a160019250610a81565b815460001901825560018201805482179055610a3c84610d61565b7fe1c52dc63b719ade82e8bea94cc41a0d5d28e4aaf536adb5e9cccc9ff8c1aeda3385604051600160a060020a03909216825260208201526040908101905180910390a15b5050919050565b60015460009011610a9557fe5b60015460fa901115610aa357fe5b600254600160a060020a031615610ab657fe5b60005415801590610acb575060015460005411155b1515610ad357fe5b565b600080610ae1336103d7565b1515610aec57600080fd5b50506101045460005b81811015610b6457610104805482908110610b0c57fe5b60009182526020909120015415610b5c57610103600061010483815481101515610b3257fe5b60009182526020808320909101548352820192909252604001812081815560018101829055600201555b600101610af5565b610b716101046000610dea565b5050565b60008115801590610b87575060fa8211155b1515610b8f57fe5b5090565b60015b600154811015610d1a575b60015481108015610bc957506002816101008110610bbb57fe5b0154600160a060020a031615155b15610bd657600101610ba1565b60018054118015610c0057506001546002906101008110610bf357fe5b0154600160a060020a0316155b15610c145760018054600019019055610bd6565b60015481108015610c3f57506001546002906101008110610c3157fe5b0154600160a060020a031615155b8015610c6157506002816101008110610c5457fe5b0154600160a060020a0316155b15610d15576001546002906101008110610c7757fe5b0154600160a060020a03166002826101008110610c9057fe5b018054600160a060020a031916600160a060020a03929092169190911790558061010260006002836101008110610cc357fe5b0154600160a060020a0316815260208101919091526040016000908120919091556001546002906101008110610cf557fe5b018054600160a060020a031916600160a060020a03929092169190911790555b610b96565b50565b60009081526101036020526040902054151590565b600160a060020a038116600090815261010260205260408120548190610d5790610b75565b60020a9392505050565b60008181526101036020526040902080541515610d7a57fe5b600281015461010480548492908110610d8f57fe5b60009182526020909120015414610da257fe5b60005481541115610b7157fe5b60206040519081016040526000815290565b815481835581811511610de557600083815260209020610de5918101908301610e04565b505050565b5080546000825590600052602060002090810190610d1a91905b61041491905b80821115610b8f5760008155600101610e0a5600a165627a7a72305820419420a30ee1effea16fe955665708914e014ab2782035811e0ba67d94f487520029",
  "source": "// Copyright (C) 2017  MixBytes, LLC\n\n// Licensed under the Apache License, Version 2.0 (the \"License\").\n// You may not use this file except in compliance with the License.\n\n// Unless required by applicable law or agreed to in writing, software\n// distributed under the License is distributed on an \"AS IS\" BASIS,\n// WITHOUT WARRANTIES OR CONDITIONS OF ANY KIND (express or implied).\n\n// Code taken from https://github.com/ethereum/dapp-bin/blob/master/wallet/wallet.sol\n// Audit, refactoring and improvements by github.com/Eenae\n\n// @authors:\n// Gav Wood <g@ethdev.com>\n// inheritable \"property\" contract that enables methods to be protected by requiring the acquiescence of either a\n// single, or, crucially, each of a number of, designated owners.\n// usage:\n// use modifiers onlyowner (just own owned) or onlymanyowners(hash), whereby the same hash must be provided by\n// some number (specified in constructor) of the set of owners (specified in the constructor, modifiable) before the\n// interior is executed.\n\npragma solidity ^0.4.19;\n\n\n/// note: during any ownership changes all pending operations (waiting for more signatures) are cancelled\n// TODO acceptOwnership\ncontract multiowned {\n\n    // TYPES\n\n    // struct for the status of a pending operation.\n    struct MultiOwnedOperationPendingState {\n        // count of confirmations needed\n        uint yetNeeded;\n\n        // bitmap of confirmations where owner #ownerIndex's decision corresponds to 2**ownerIndex bit\n        uint ownersDone;\n\n        // position of this operation key in m_multiOwnedPendingIndex\n        uint index;\n    }\n\n    // EVENTS\n\n    event Confirmation(address owner, bytes32 operation);\n    event Revoke(address owner, bytes32 operation);\n    event FinalConfirmation(address owner, bytes32 operation);\n\n    // some others are in the case of an owner changing.\n    event OwnerChanged(address oldOwner, address newOwner);\n    event OwnerAdded(address newOwner);\n    event OwnerRemoved(address oldOwner);\n\n    // the last one is emitted if the required signatures change\n    event RequirementChanged(uint newRequirement);\n\n    // MODIFIERS\n\n    // simple single-sig function modifier.\n    modifier onlyowner {\n        require(isOwner(msg.sender));\n        _;\n    }\n    // multi-sig function modifier: the operation must have an intrinsic hash in order\n    // that later attempts can be realised as the same underlying operation and\n    // thus count as confirmations.\n    modifier onlymanyowners(bytes32 _operation) {\n        if (confirmAndCheck(_operation)) {\n            _;\n        }\n        // Even if required number of confirmations has't been collected yet,\n        // we can't throw here - because changes to the state have to be preserved.\n        // But, confirmAndCheck itself will throw in case sender is not an owner.\n    }\n\n    modifier validNumOwners(uint _numOwners) {\n        require(_numOwners > 0 && _numOwners <= c_maxOwners);\n        _;\n    }\n\n    modifier multiOwnedValidRequirement(uint _required, uint _numOwners) {\n        require(_required > 0 && _required <= _numOwners);\n        _;\n    }\n\n    modifier ownerExists(address _address) {\n        require(isOwner(_address));\n        _;\n    }\n\n    modifier ownerDoesNotExist(address _address) {\n        require(!isOwner(_address));\n        _;\n    }\n\n    modifier multiOwnedOperationIsActive(bytes32 _operation) {\n        require(isOperationActive(_operation));\n        _;\n    }\n\n    // METHODS\n\n    // constructor is given number of sigs required to do protected \"onlymanyowners\" transactions\n    // as well as the selection of addresses capable of confirming them (msg.sender is not added to the owners!).\n    function multiowned(address[] _owners, uint _required)\n        public\n        validNumOwners(_owners.length)\n        multiOwnedValidRequirement(_required, _owners.length)\n    {\n        assert(c_maxOwners <= 255);\n\n        m_numOwners = _owners.length;\n        m_multiOwnedRequired = _required;\n\n        for (uint i = 0; i < _owners.length; ++i)\n        {\n            address owner = _owners[i];\n            // invalid and duplicate addresses are not allowed\n            require(0 != owner && !isOwner(owner) /* not isOwner yet! */);\n\n            uint currentOwnerIndex = checkOwnerIndex(i + 1 /* first slot is unused */);\n            m_owners[currentOwnerIndex] = owner;\n            m_ownerIndex[owner] = currentOwnerIndex;\n        }\n\n        assertOwnersAreConsistent();\n    }\n\n    /// @notice replaces an owner `_from` with another `_to`.\n    /// @param _from address of owner to replace\n    /// @param _to address of new owner\n    // All pending operations will be canceled!\n    function changeOwner(address _from, address _to)\n        external\n        ownerExists(_from)\n        ownerDoesNotExist(_to)\n        onlymanyowners(keccak256(msg.data))\n    {\n        assertOwnersAreConsistent();\n\n        clearPending();\n        uint ownerIndex = checkOwnerIndex(m_ownerIndex[_from]);\n        m_owners[ownerIndex] = _to;\n        m_ownerIndex[_from] = 0;\n        m_ownerIndex[_to] = ownerIndex;\n\n        assertOwnersAreConsistent();\n        OwnerChanged(_from, _to);\n    }\n\n    /// @notice adds an owner\n    /// @param _owner address of new owner\n    // All pending operations will be canceled!\n    function addOwner(address _owner)\n        external\n        ownerDoesNotExist(_owner)\n        validNumOwners(m_numOwners + 1)\n        onlymanyowners(keccak256(msg.data))\n    {\n        assertOwnersAreConsistent();\n\n        clearPending();\n        m_numOwners++;\n        m_owners[m_numOwners] = _owner;\n        m_ownerIndex[_owner] = checkOwnerIndex(m_numOwners);\n\n        assertOwnersAreConsistent();\n        OwnerAdded(_owner);\n    }\n\n    /// @notice removes an owner\n    /// @param _owner address of owner to remove\n    // All pending operations will be canceled!\n    function removeOwner(address _owner)\n        external\n        ownerExists(_owner)\n        validNumOwners(m_numOwners - 1)\n        multiOwnedValidRequirement(m_multiOwnedRequired, m_numOwners - 1)\n        onlymanyowners(keccak256(msg.data))\n    {\n        assertOwnersAreConsistent();\n\n        clearPending();\n        uint ownerIndex = checkOwnerIndex(m_ownerIndex[_owner]);\n        m_owners[ownerIndex] = 0;\n        m_ownerIndex[_owner] = 0;\n        //make sure m_numOwners is equal to the number of owners and always points to the last owner\n        reorganizeOwners();\n\n        assertOwnersAreConsistent();\n        OwnerRemoved(_owner);\n    }\n\n    /// @notice changes the required number of owner signatures\n    /// @param _newRequired new number of signatures required\n    // All pending operations will be canceled!\n    function changeRequirement(uint _newRequired)\n        external\n        multiOwnedValidRequirement(_newRequired, m_numOwners)\n        onlymanyowners(keccak256(msg.data))\n    {\n        m_multiOwnedRequired = _newRequired;\n        clearPending();\n        RequirementChanged(_newRequired);\n    }\n\n    /// @notice Gets an owner by 0-indexed position\n    /// @param ownerIndex 0-indexed owner position\n    function getOwner(uint ownerIndex) public constant returns (address) {\n        return m_owners[ownerIndex + 1];\n    }\n\n    /// @notice Gets owners\n    /// @return memory array of owners\n    function getOwners() public constant returns (address[]) {\n        address[] memory result = new address[](m_numOwners);\n        for (uint i = 0; i < m_numOwners; i++)\n            result[i] = getOwner(i);\n\n        return result;\n    }\n\n    /// @notice checks if provided address is an owner address\n    /// @param _addr address to check\n    /// @return true if it's an owner\n    function isOwner(address _addr) public constant returns (bool) {\n        return m_ownerIndex[_addr] > 0;\n    }\n\n    /// @notice Tests ownership of the current caller.\n    /// @return true if it's an owner\n    // It's advisable to call it by new owner to make sure that the same erroneous address is not copy-pasted to\n    // addOwner/changeOwner and to isOwner.\n    function amIOwner() external constant onlyowner returns (bool) {\n        return true;\n    }\n\n    /// @notice Revokes a prior confirmation of the given operation\n    /// @param _operation operation value, typically keccak256(msg.data)\n    function revoke(bytes32 _operation)\n        external\n        multiOwnedOperationIsActive(_operation)\n        onlyowner\n    {\n        uint ownerIndexBit = makeOwnerBitmapBit(msg.sender);\n        var pending = m_multiOwnedPending[_operation];\n        require(pending.ownersDone & ownerIndexBit > 0);\n\n        assertOperationIsConsistent(_operation);\n\n        pending.yetNeeded++;\n        pending.ownersDone -= ownerIndexBit;\n\n        assertOperationIsConsistent(_operation);\n        Revoke(msg.sender, _operation);\n    }\n\n    /// @notice Checks if owner confirmed given operation\n    /// @param _operation operation value, typically keccak256(msg.data)\n    /// @param _owner an owner address\n    function hasConfirmed(bytes32 _operation, address _owner)\n        external\n        constant\n        multiOwnedOperationIsActive(_operation)\n        ownerExists(_owner)\n        returns (bool)\n    {\n        return !(m_multiOwnedPending[_operation].ownersDone & makeOwnerBitmapBit(_owner) == 0);\n    }\n\n    // INTERNAL METHODS\n\n    function confirmAndCheck(bytes32 _operation)\n        private\n        onlyowner\n        returns (bool)\n    {\n        if (512 == m_multiOwnedPendingIndex.length)\n            // In case m_multiOwnedPendingIndex grows too much we have to shrink it: otherwise at some point\n            // we won't be able to do it because of block gas limit.\n            // Yes, pending confirmations will be lost. Dont see any security or stability implications.\n            // TODO use more graceful approach like compact or removal of clearPending completely\n            clearPending();\n\n        var pending = m_multiOwnedPending[_operation];\n\n        // if we're not yet working on this operation, switch over and reset the confirmation status.\n        if (! isOperationActive(_operation)) {\n            // reset count of confirmations needed.\n            pending.yetNeeded = m_multiOwnedRequired;\n            // reset which owners have confirmed (none) - set our bitmap to 0.\n            pending.ownersDone = 0;\n            pending.index = m_multiOwnedPendingIndex.length++;\n            m_multiOwnedPendingIndex[pending.index] = _operation;\n            assertOperationIsConsistent(_operation);\n        }\n\n        // determine the bit to set for this owner.\n        uint ownerIndexBit = makeOwnerBitmapBit(msg.sender);\n        // make sure we (the message sender) haven't confirmed this operation previously.\n        if (pending.ownersDone & ownerIndexBit == 0) {\n            // ok - check if count is enough to go ahead.\n            assert(pending.yetNeeded > 0);\n            if (pending.yetNeeded == 1) {\n                // enough confirmations: reset and run interior.\n                delete m_multiOwnedPendingIndex[m_multiOwnedPending[_operation].index];\n                delete m_multiOwnedPending[_operation];\n                FinalConfirmation(msg.sender, _operation);\n                return true;\n            }\n            else\n            {\n                // not enough: record that this owner in particular confirmed.\n                pending.yetNeeded--;\n                pending.ownersDone |= ownerIndexBit;\n                assertOperationIsConsistent(_operation);\n                Confirmation(msg.sender, _operation);\n            }\n        }\n    }\n\n    // Reclaims free slots between valid owners in m_owners.\n    // TODO given that its called after each removal, it could be simplified.\n    function reorganizeOwners() private {\n        uint free = 1;\n        while (free < m_numOwners)\n        {\n            // iterating to the first free slot from the beginning\n            while (free < m_numOwners && m_owners[free] != 0) free++;\n\n            // iterating to the first occupied slot from the end\n            while (m_numOwners > 1 && m_owners[m_numOwners] == 0) m_numOwners--;\n\n            // swap, if possible, so free slot is located at the end after the swap\n            if (free < m_numOwners && m_owners[m_numOwners] != 0 && m_owners[free] == 0)\n            {\n                // owners between swapped slots should't be renumbered - that saves a lot of gas\n                m_owners[free] = m_owners[m_numOwners];\n                m_ownerIndex[m_owners[free]] = free;\n                m_owners[m_numOwners] = 0;\n            }\n        }\n    }\n\n    function clearPending() private onlyowner {\n        uint length = m_multiOwnedPendingIndex.length;\n        // TODO block gas limit\n        for (uint i = 0; i < length; ++i) {\n            if (m_multiOwnedPendingIndex[i] != 0)\n                delete m_multiOwnedPending[m_multiOwnedPendingIndex[i]];\n        }\n        delete m_multiOwnedPendingIndex;\n    }\n\n    function checkOwnerIndex(uint ownerIndex) private pure returns (uint) {\n        assert(0 != ownerIndex && ownerIndex <= c_maxOwners);\n        return ownerIndex;\n    }\n\n    function makeOwnerBitmapBit(address owner) private constant returns (uint) {\n        uint ownerIndex = checkOwnerIndex(m_ownerIndex[owner]);\n        return 2 ** ownerIndex;\n    }\n\n    function isOperationActive(bytes32 _operation) private constant returns (bool) {\n        return 0 != m_multiOwnedPending[_operation].yetNeeded;\n    }\n\n\n    function assertOwnersAreConsistent() private constant {\n        assert(m_numOwners > 0);\n        assert(m_numOwners <= c_maxOwners);\n        assert(m_owners[0] == 0);\n        assert(0 != m_multiOwnedRequired && m_multiOwnedRequired <= m_numOwners);\n    }\n\n    function assertOperationIsConsistent(bytes32 _operation) private constant {\n        var pending = m_multiOwnedPending[_operation];\n        assert(0 != pending.yetNeeded);\n        assert(m_multiOwnedPendingIndex[pending.index] == _operation);\n        assert(pending.yetNeeded <= m_multiOwnedRequired);\n    }\n\n\n    // FIELDS\n\n    uint constant c_maxOwners = 250;\n\n    // the number of owners that must confirm the same operation before it is run.\n    uint256 public m_multiOwnedRequired;\n\n\n    // pointer used to find a free slot in m_owners\n    uint public m_numOwners;\n\n    // list of owners (addresses),\n    // slot 0 is unused so there are no owner which index is 0.\n    // TODO could we save space at the end of the array for the common case of <10 owners? and should we?\n    address[256] internal m_owners;\n\n    // index on the list of owners to allow reverse lookup: owner address => index in m_owners\n    mapping(address => uint) internal m_ownerIndex;\n\n\n    // the ongoing operations.\n    mapping(bytes32 => MultiOwnedOperationPendingState) internal m_multiOwnedPending;\n    bytes32[] internal m_multiOwnedPendingIndex;\n}",
  "sourcePath": "C:\\Workspace\\mfc\\smart-contracts\\contracts\\multiowned.sol",
  "compiler": {
    "name": "solc",
    "version": "0.4.19+commit.c4cbbb05.Emscripten.clang"
  },
  "schemaVersion": "2.0.0",
  "updatedAt": "2018-03-24T18:24:47.025Z"
}