{
  "contractName": "Standard223Token",
  "abi": [
    {
      "constant": false,
      "inputs": [
        {
          "name": "_spender",
          "type": "address"
        },
        {
          "name": "_value",
          "type": "uint256"
        }
      ],
      "name": "approve",
      "outputs": [
        {
          "name": "",
          "type": "bool"
        }
      ],
      "payable": false,
      "stateMutability": "nonpayable",
      "type": "function"
    },
    {
      "constant": true,
      "inputs": [],
      "name": "totalSupply",
      "outputs": [
        {
          "name": "",
          "type": "uint256"
        }
      ],
      "payable": false,
      "stateMutability": "view",
      "type": "function"
    },
    {
      "constant": false,
      "inputs": [
        {
          "name": "_spender",
          "type": "address"
        },
        {
          "name": "_subtractedValue",
          "type": "uint256"
        }
      ],
      "name": "decreaseApproval",
      "outputs": [
        {
          "name": "success",
          "type": "bool"
        }
      ],
      "payable": false,
      "stateMutability": "nonpayable",
      "type": "function"
    },
    {
      "constant": true,
      "inputs": [
        {
          "name": "_owner",
          "type": "address"
        }
      ],
      "name": "balanceOf",
      "outputs": [
        {
          "name": "balance",
          "type": "uint256"
        }
      ],
      "payable": false,
      "stateMutability": "view",
      "type": "function"
    },
    {
      "constant": false,
      "inputs": [
        {
          "name": "_spender",
          "type": "address"
        },
        {
          "name": "_addedValue",
          "type": "uint256"
        }
      ],
      "name": "increaseApproval",
      "outputs": [
        {
          "name": "success",
          "type": "bool"
        }
      ],
      "payable": false,
      "stateMutability": "nonpayable",
      "type": "function"
    },
    {
      "constant": true,
      "inputs": [
        {
          "name": "_owner",
          "type": "address"
        },
        {
          "name": "_spender",
          "type": "address"
        }
      ],
      "name": "allowance",
      "outputs": [
        {
          "name": "remaining",
          "type": "uint256"
        }
      ],
      "payable": false,
      "stateMutability": "view",
      "type": "function"
    },
    {
      "payable": true,
      "stateMutability": "payable",
      "type": "fallback"
    },
    {
      "anonymous": false,
      "inputs": [
        {
          "indexed": true,
          "name": "owner",
          "type": "address"
        },
        {
          "indexed": true,
          "name": "spender",
          "type": "address"
        },
        {
          "indexed": false,
          "name": "value",
          "type": "uint256"
        }
      ],
      "name": "Approval",
      "type": "event"
    },
    {
      "anonymous": false,
      "inputs": [
        {
          "indexed": true,
          "name": "from",
          "type": "address"
        },
        {
          "indexed": true,
          "name": "to",
          "type": "address"
        },
        {
          "indexed": false,
          "name": "value",
          "type": "uint256"
        }
      ],
      "name": "Transfer",
      "type": "event"
    },
    {
      "constant": false,
      "inputs": [
        {
          "name": "_to",
          "type": "address"
        },
        {
          "name": "_value",
          "type": "uint256"
        }
      ],
      "name": "transfer",
      "outputs": [
        {
          "name": "success",
          "type": "bool"
        }
      ],
      "payable": false,
      "stateMutability": "nonpayable",
      "type": "function"
    },
    {
      "constant": false,
      "inputs": [
        {
          "name": "_to",
          "type": "address"
        },
        {
          "name": "_value",
          "type": "uint256"
        },
        {
          "name": "_data",
          "type": "bytes"
        }
      ],
      "name": "transfer",
      "outputs": [
        {
          "name": "success",
          "type": "bool"
        }
      ],
      "payable": false,
      "stateMutability": "nonpayable",
      "type": "function"
    },
    {
      "constant": false,
      "inputs": [
        {
          "name": "_from",
          "type": "address"
        },
        {
          "name": "_to",
          "type": "address"
        },
        {
          "name": "_value",
          "type": "uint256"
        }
      ],
      "name": "transferFrom",
      "outputs": [
        {
          "name": "success",
          "type": "bool"
        }
      ],
      "payable": false,
      "stateMutability": "nonpayable",
      "type": "function"
    },
    {
      "constant": false,
      "inputs": [
        {
          "name": "_from",
          "type": "address"
        },
        {
          "name": "_to",
          "type": "address"
        },
        {
          "name": "_value",
          "type": "uint256"
        },
        {
          "name": "_data",
          "type": "bytes"
        }
      ],
      "name": "transferFrom",
      "outputs": [
        {
          "name": "success",
          "type": "bool"
        }
      ],
      "payable": false,
      "stateMutability": "nonpayable",
      "type": "function"
    }
  ],
  "bytecode": "0x6060604052341561000f57600080fd5b61098c8061001e6000396000f30060606040526004361061008a5763ffffffff60e060020a600035041663095ea7b3811461008f57806318160ddd146100c557806323b872dd146100ea578063661884631461011257806370a0823114610134578063a9059cbb14610153578063ab67aa5814610175578063be45fd62146101e1578063d73dd62314610246578063dd62ed3e14610268575b600080fd5b341561009a57600080fd5b6100b1600160a060020a036004351660243561028d565b604051901515815260200160405180910390f35b34156100d057600080fd5b6100d86102e7565b60405190815260200160405180910390f35b34156100f557600080fd5b6100b1600160a060020a03600435811690602435166044356102ed565b341561011d57600080fd5b6100b1600160a060020a0360043516602435610328565b341561013f57600080fd5b6100d8600160a060020a0360043516610410565b341561015e57600080fd5b6100b1600160a060020a036004351660243561042b565b341561018057600080fd5b6100b1600160a060020a036004803582169160248035909116916044359160849060643590810190830135806020601f8201819004810201604051908101604052818152929190602084018383808284375094965061045b95505050505050565b34156101ec57600080fd5b6100b160048035600160a060020a03169060248035919060649060443590810190830135806020601f820181900481020160405190810160405281815292919060208401838380828437509496506104a095505050505050565b341561025157600080fd5b6100b1600160a060020a03600435166024356104e2565b341561027357600080fd5b6100d8600160a060020a0360043581169060243516610574565b600160a060020a03338116600081815260026020908152604080832094871680845294909152808220859055909291906000805160206109418339815191529085905190815260200160405180910390a350600192915050565b60005481565b600061031e84848460006040518059106103045750595b818152601f19601f8301168101602001604052905061045b565b90505b9392505050565b600160a060020a0333811660009081526002602090815260408083209386168352929052908120548083111561038557600160a060020a0333811660009081526002602090815260408083209388168352929052908120556103bc565b610395818463ffffffff61059f16565b600160a060020a033381166000908152600260209081526040808320938916835292905220555b600160a060020a033381166000818152600260209081526040808320948916808452949091529081902054600080516020610941833981519152915190815260200160405180910390a35060019392505050565b600160a060020a031660009081526001602052604090205490565b6000610321838360006040518059106104415750595b818152601f19601f830116810160200160405290506104a0565b60006104688585856105b1565b151561047357600080fd5b61047c84610733565b156104945761048d8585858561073b565b9050610498565b5060015b949350505050565b60006104ac8484610836565b15156104b757600080fd5b6104c084610733565b156104d8576104d13385858561073b565b9050610321565b5060019392505050565b600160a060020a03338116600090815260026020908152604080832093861683529290529081205461051a908363ffffffff61093116565b600160a060020a03338116600081815260026020908152604080832094891680845294909152908190208490559192909160008051602061094183398151915291905190815260200160405180910390a350600192915050565b600160a060020a03918216600090815260026020908152604080832093909416825291909152205490565b6000828211156105ab57fe5b50900390565b6000600160a060020a03831615156105c857600080fd5b600160a060020a0384166000908152600160205260409020548211156105ed57600080fd5b600160a060020a038085166000908152600260209081526040808320339094168352929052205482111561062057600080fd5b600160a060020a038416600090815260016020526040902054610649908363ffffffff61059f16565b600160a060020a03808616600090815260016020526040808220939093559085168152205461067e908363ffffffff61093116565b600160a060020a038085166000908152600160209081526040808320949094558783168252600281528382203390931682529190915220546106c6908363ffffffff61059f16565b600160a060020a03808616600081815260026020908152604080832033861684529091529081902093909355908516917fddf252ad1be2c89b69c2b068fc378daa952ba7f163c4a11628f55a4df523b3ef9085905190815260200160405180910390a35060019392505050565b6000903b1190565b600083600160a060020a03811663c0ee0b8a33868686604051602001526040518463ffffffff1660e060020a0281526004018084600160a060020a0316600160a060020a0316815260200183815260200180602001828103825283818151815260200191508051906020019080838360005b838110156107c55780820151838201526020016107ad565b50505050905090810190601f1680156107f25780820380516001836020036101000a031916815260200191505b50945050505050602060405180830381600087803b151561081257600080fd5b6102c65a03f1151561082357600080fd5b5050506040518051979650505050505050565b6000600160a060020a038316151561084d57600080fd5b600160a060020a03331660009081526001602052604090205482111561087257600080fd5b600160a060020a03331660009081526001602052604090205461089b908363ffffffff61059f16565b600160a060020a0333811660009081526001602052604080822093909355908516815220546108d0908363ffffffff61093116565b600160a060020a0380851660008181526001602052604090819020939093559133909116907fddf252ad1be2c89b69c2b068fc378daa952ba7f163c4a11628f55a4df523b3ef9085905190815260200160405180910390a350600192915050565b60008282018381101561032157fe008c5be1e5ebec7d5bd14f71427d1e84f3dd0314c0f7b2291e5b200ac8c7c3b925a165627a7a723058209676747024ab7dde0959c8f1f27b7b5055abae12a89860647a1d93993346f1c40029",
  "source": "pragma solidity ^0.4.19;\n\nimport \"./SafeMath.sol\";\nimport \"./Receiver_Interface.sol\";\n\n/**\n * @title ERC20Basic\n * @dev Simpler version of ERC20 interface\n * @dev see https://github.com/ethereum/EIPs/issues/179\n */\ncontract ERC20Basic {\n    uint256 public totalSupply;\n\n    function balanceOf(address who) public constant returns (uint256);\n\n    function transfer(address to, uint256 value) public returns (bool);\n\n    event Transfer(address indexed from, address indexed to, uint256 value);\n}\n\n/**\n * @title ERC20 interface\n * @dev see https://github.com/ethereum/EIPs/issues/20\n */\ncontract ERC20 is ERC20Basic {\n    function allowance(address owner, address spender) public constant returns (uint256);\n\n    function transferFrom(address from, address to, uint256 value) public returns (bool);\n\n    function approve(address spender, uint256 value) public returns (bool);\n\n    event Approval(address indexed owner, address indexed spender, uint256 value);\n}\n\n/**\n * @title Basic token\n * @dev Basic version of StandardToken, with no allowances.\n */\ncontract BasicToken is ERC20Basic {\n    using SafeMath for uint256;\n\n    mapping(address => uint256) balances;\n\n    /**\n    * @dev transfer token for a specified address\n    * @param _to The address to transfer to.\n    * @param _value The amount to be transferred.\n    */\n    function transfer(address _to, uint256 _value) public returns (bool) {\n        require(_to != address(0));\n        require(_value <= balances[msg.sender]);\n        // SafeMath.sub will throw if there is not enough balance.\n        balances[msg.sender] = balances[msg.sender].sub(_value);\n        balances[_to] = balances[_to].add(_value);\n        Transfer(msg.sender, _to, _value);\n        return true;\n    }\n\n    /**\n     * @dev Gets the balance of the specified address.\n     * @param _owner The address to query the the balance of.\n     * @return An uint256 representing the amount owned by the passed address.\n     */\n    function balanceOf(address _owner) public constant returns (uint256 balance) {\n        return balances[_owner];\n    }\n}\n\n/** \n * @title Standard ERC20 token \n * \n * @dev Implementation of the basic standard token. \n * @dev https://github.com/ethereum/EIPs/issues/20 \n * @dev Based on code by FirstBlood: https://github.com/Firstbloodio/token/blob/master/smart_contract/FirstBloodToken.sol \n */\ncontract StandardToken is ERC20, BasicToken {\n\n    mapping(address => mapping(address => uint256)) internal allowed;\n\n    /**\n     * @dev Transfer tokens from one address to another\n     * @param _from address The address which you want to send tokens from\n     * @param _to address The address which you want to transfer to\n     * @param _value uint256 the amount of tokens to be transferred\n     */\n    function transferFrom(address _from, address _to, uint256 _value) public returns (bool) {\n        require(_to != address(0));\n        require(_value <= balances[_from]);\n        require(_value <= allowed[_from][msg.sender]);\n        balances[_from] = balances[_from].sub(_value);\n        balances[_to] = balances[_to].add(_value);\n        allowed[_from][msg.sender] = allowed[_from][msg.sender].sub(_value);\n        Transfer(_from, _to, _value);\n        return true;\n    }\n\n    /**\n     * @dev Approve the passed address to spend the specified amount of tokens on behalf of msg.sender.\n     *\n     * Beware that changing an allowance with this method brings the risk that someone may use both the old\n     * and the new allowance by unfortunate transaction ordering. One possible solution to mitigate this\n     * race condition is to first reduce the spender's allowance to 0 and set the desired value afterwards:\n     * https://github.com/ethereum/EIPs/issues/20#issuecomment-263524729\n     * @param _spender The address which will spend the funds.\n     * @param _value The amount of tokens to be spent.\n     */\n    function approve(address _spender, uint256 _value) public returns (bool) {\n        allowed[msg.sender][_spender] = _value;\n        Approval(msg.sender, _spender, _value);\n        return true;\n    }\n\n    /**\n     * @dev Function to check the amount of tokens that an owner allowed to a spender.\n     * @param _owner address The address which owns the funds.\n     * @param _spender address The address which will spend the funds.\n     * @return A uint256 specifying the amount of tokens still available for the spender.\n     */\n    function allowance(address _owner, address _spender) public constant returns (uint256 remaining) {\n        return allowed[_owner][_spender];\n    }\n\n    /**\n     * approve should be called when allowed[_spender] == 0. To increment\n     * allowed value is better to use this function to avoid 2 calls (and wait until\n     * the first transaction is mined) * From MonolithDAO Token.sol\n     */\n    function increaseApproval(address _spender, uint _addedValue) public returns (bool success) {\n        allowed[msg.sender][_spender] = allowed[msg.sender][_spender].add(_addedValue);\n        Approval(msg.sender, _spender, allowed[msg.sender][_spender]);\n        return true;\n    }\n\n    function decreaseApproval(address _spender, uint _subtractedValue) public returns (bool success) {\n        uint oldValue = allowed[msg.sender][_spender];\n        if (_subtractedValue > oldValue) {\n            allowed[msg.sender][_spender] = 0;\n        } else {\n            allowed[msg.sender][_spender] = oldValue.sub(_subtractedValue);\n        }\n        Approval(msg.sender, _spender, allowed[msg.sender][_spender]);\n        return true;\n    }\n\n    function() public payable {\n        revert();\n    }\n\n}\n\n\n /*\n  ERC223 additions to ERC20\n\n  Interface wise is ERC20 + data paramenter to transfer and transferFrom.\n */\n\ncontract ERC223 is ERC20 {\n  function transfer(address to, uint value, bytes data) returns (bool ok);\n  function transferFrom(address from, address to, uint value, bytes data) returns (bool ok);\n}\n\n\ncontract Standard223Token is ERC223, StandardToken {\n    //function that is called when a user or another contract wants to transfer funds\n    function transfer(address _to, uint _value, bytes _data) returns (bool success) {\n        //filtering if the target is a contract with bytecode inside it\n        if (!super.transfer(_to, _value)) throw;\n        // do a normal token transfer\n        if (isContract(_to)) return contractFallback(msg.sender, _to, _value, _data);\n        return true;\n    }\n\n    function transferFrom(address _from, address _to, uint _value, bytes _data) returns (bool success) {\n        if (!super.transferFrom(_from, _to, _value)) throw;\n        // do a normal token transfer\n        if (isContract(_to)) return contractFallback(_from, _to, _value, _data);\n        return true;\n    }\n\n    function transfer(address _to, uint _value) returns (bool success) {\n        return transfer(_to, _value, new bytes(0));\n    }\n\n    function transferFrom(address _from, address _to, uint _value) returns (bool success) {\n        return transferFrom(_from, _to, _value, new bytes(0));\n    }\n\n    //function that is called when transaction target is a contract\n    function contractFallback(address _origin, address _to, uint _value, bytes _data) private returns (bool success) {\n        ERC223Receiver reciever = ERC223Receiver(_to);\n        return reciever.tokenFallback(msg.sender, _value, _data);\n    }\n\n    //assemble the given address bytecode. If bytecode exists then the _addr is a contract.\n    function isContract(address _addr) private returns (bool is_contract) {\n        // retrieve the size of the code on target address, this needs assembly\n        uint length;\n        assembly {length := extcodesize(_addr)}\n        return length > 0;\n    }\n\n}\n\n\n/**\n * @title Burnable Token\n * @dev Token that can be irreversibly burned (destroyed).\n */\ncontract BurnableToken is Standard223Token {\n\n    /**\n     * @dev Burns a specific amount of tokens.\n     * @param _value The amount of token to be burned.\n     */\n    function burn(uint _value) public {\n        require(_value > 0);\n        require(_value <= balances[msg.sender]);\n        address burner = msg.sender;\n        balances[burner] = balances[burner].sub(_value);\n        totalSupply = totalSupply.sub(_value);\n        Burn(burner, _value);\n    }\n\n    function burnAll() public {\n        address burner = msg.sender;\n        totalSupply = totalSupply.sub(balances[burner]);\n        Burn(burner, balances[burner]);\n        balances[burner] = 0;\n    }\n\n    event Burn(address indexed burner, uint indexed value);\n\n}\n\n\ncontract MFC_Token is BurnableToken {\n\n    string public constant name = \"MFX Coin Token\";\n\n    string public constant symbol = \"MFX\";\n\n    uint32 public constant decimals = 18;\n\n    uint256 public INITIAL_SUPPLY = 507000000 * 1 ether;\n\n    function MFC_Token() {\n        totalSupply = INITIAL_SUPPLY;\n        balances[msg.sender] = INITIAL_SUPPLY;\n    }\n\n}",
  "sourcePath": "C:\\Workspace\\mfc\\smart-contracts\\contracts\\MFC_coin.sol",
  "compiler": {
    "name": "solc",
    "version": "0.4.19+commit.c4cbbb05.Emscripten.clang"
  },
  "schemaVersion": "2.0.0",
  "updatedAt": "2018-03-19T09:43:16.967Z"
}