{
  "contractName": "TokenHolder",
  "abi": [
    {
      "constant": false,
      "inputs": [
        {
          "name": "_owner",
          "type": "address"
        }
      ],
      "name": "removeOwner",
      "outputs": [],
      "payable": false,
      "stateMutability": "nonpayable",
      "type": "function"
    },
    {
      "constant": true,
      "inputs": [
        {
          "name": "_addr",
          "type": "address"
        }
      ],
      "name": "isOwner",
      "outputs": [
        {
          "name": "",
          "type": "bool"
        }
      ],
      "payable": false,
      "stateMutability": "view",
      "type": "function"
    },
    {
      "constant": true,
      "inputs": [],
      "name": "m_numOwners",
      "outputs": [
        {
          "name": "",
          "type": "uint256"
        }
      ],
      "payable": false,
      "stateMutability": "view",
      "type": "function"
    },
    {
      "constant": true,
      "inputs": [],
      "name": "amIOwner",
      "outputs": [
        {
          "name": "",
          "type": "bool"
        }
      ],
      "payable": false,
      "stateMutability": "view",
      "type": "function"
    },
    {
      "constant": false,
      "inputs": [
        {
          "name": "_owner",
          "type": "address"
        }
      ],
      "name": "addOwner",
      "outputs": [],
      "payable": false,
      "stateMutability": "nonpayable",
      "type": "function"
    },
    {
      "constant": true,
      "inputs": [],
      "name": "m_multiOwnedRequired",
      "outputs": [
        {
          "name": "",
          "type": "uint256"
        }
      ],
      "payable": false,
      "stateMutability": "view",
      "type": "function"
    },
    {
      "constant": true,
      "inputs": [],
      "name": "getOwners",
      "outputs": [
        {
          "name": "",
          "type": "address[]"
        }
      ],
      "payable": false,
      "stateMutability": "view",
      "type": "function"
    },
    {
      "constant": false,
      "inputs": [
        {
          "name": "_operation",
          "type": "bytes32"
        }
      ],
      "name": "revoke",
      "outputs": [],
      "payable": false,
      "stateMutability": "nonpayable",
      "type": "function"
    },
    {
      "constant": false,
      "inputs": [
        {
          "name": "_newRequired",
          "type": "uint256"
        }
      ],
      "name": "changeRequirement",
      "outputs": [],
      "payable": false,
      "stateMutability": "nonpayable",
      "type": "function"
    },
    {
      "constant": true,
      "inputs": [
        {
          "name": "_from",
          "type": "address"
        },
        {
          "name": "_value",
          "type": "uint256"
        },
        {
          "name": "_data",
          "type": "bytes"
        }
      ],
      "name": "tokenFallback",
      "outputs": [
        {
          "name": "ok",
          "type": "bool"
        }
      ],
      "payable": false,
      "stateMutability": "pure",
      "type": "function"
    },
    {
      "constant": true,
      "inputs": [
        {
          "name": "_operation",
          "type": "bytes32"
        },
        {
          "name": "_owner",
          "type": "address"
        }
      ],
      "name": "hasConfirmed",
      "outputs": [
        {
          "name": "",
          "type": "bool"
        }
      ],
      "payable": false,
      "stateMutability": "view",
      "type": "function"
    },
    {
      "constant": true,
      "inputs": [
        {
          "name": "ownerIndex",
          "type": "uint256"
        }
      ],
      "name": "getOwner",
      "outputs": [
        {
          "name": "",
          "type": "address"
        }
      ],
      "payable": false,
      "stateMutability": "view",
      "type": "function"
    },
    {
      "constant": false,
      "inputs": [
        {
          "name": "_from",
          "type": "address"
        },
        {
          "name": "_to",
          "type": "address"
        }
      ],
      "name": "changeOwner",
      "outputs": [],
      "payable": false,
      "stateMutability": "nonpayable",
      "type": "function"
    },
    {
      "constant": true,
      "inputs": [],
      "name": "token",
      "outputs": [
        {
          "name": "",
          "type": "address"
        }
      ],
      "payable": false,
      "stateMutability": "view",
      "type": "function"
    },
    {
      "inputs": [
        {
          "name": "_owners",
          "type": "address[]"
        },
        {
          "name": "_required",
          "type": "uint256"
        },
        {
          "name": "_token",
          "type": "address"
        }
      ],
      "payable": false,
      "stateMutability": "nonpayable",
      "type": "constructor"
    },
    {
      "anonymous": false,
      "inputs": [
        {
          "indexed": false,
          "name": "owner",
          "type": "address"
        },
        {
          "indexed": false,
          "name": "operation",
          "type": "bytes32"
        }
      ],
      "name": "Confirmation",
      "type": "event"
    },
    {
      "anonymous": false,
      "inputs": [
        {
          "indexed": false,
          "name": "owner",
          "type": "address"
        },
        {
          "indexed": false,
          "name": "operation",
          "type": "bytes32"
        }
      ],
      "name": "Revoke",
      "type": "event"
    },
    {
      "anonymous": false,
      "inputs": [
        {
          "indexed": false,
          "name": "owner",
          "type": "address"
        },
        {
          "indexed": false,
          "name": "operation",
          "type": "bytes32"
        }
      ],
      "name": "FinalConfirmation",
      "type": "event"
    },
    {
      "anonymous": false,
      "inputs": [
        {
          "indexed": false,
          "name": "oldOwner",
          "type": "address"
        },
        {
          "indexed": false,
          "name": "newOwner",
          "type": "address"
        }
      ],
      "name": "OwnerChanged",
      "type": "event"
    },
    {
      "anonymous": false,
      "inputs": [
        {
          "indexed": false,
          "name": "newOwner",
          "type": "address"
        }
      ],
      "name": "OwnerAdded",
      "type": "event"
    },
    {
      "anonymous": false,
      "inputs": [
        {
          "indexed": false,
          "name": "oldOwner",
          "type": "address"
        }
      ],
      "name": "OwnerRemoved",
      "type": "event"
    },
    {
      "anonymous": false,
      "inputs": [
        {
          "indexed": false,
          "name": "newRequirement",
          "type": "uint256"
        }
      ],
      "name": "RequirementChanged",
      "type": "event"
    },
    {
      "constant": false,
      "inputs": [
        {
          "name": "escrowAddress",
          "type": "address"
        }
      ],
      "name": "escrowTokensTo",
      "outputs": [
        {
          "name": "success",
          "type": "bool"
        }
      ],
      "payable": false,
      "stateMutability": "nonpayable",
      "type": "function"
    }
  ],
  "bytecode": "0x606060405234156200001057600080fd5b6040516200125438038062001254833981016040528080518201919060200180519190602001805191508390508260008080845160008111801562000056575060fa8111155b15156200006257600080fd5b848651600082118015620000765750808211155b15156200008257600080fd5b8751600155600087815595505b87518610156200015757878681518110620000a657fe5b906020019060200201519450600160a060020a03851615801590620000e15750620000df8564010000000062000476620001a282021704565b155b1515620000ed57600080fd5b620001096001870164010000000062000d3e620001bf82021704565b93508460028561010081106200011b57fe5b018054600160a060020a031916600160a060020a039283161790558516600090815261010260205260409020849055600195909501946200008f565b6200016f64010000000062000c51620001df82021704565b50506101058054600160a060020a031916600160a060020a03989098169790971790965550620002319650505050505050565b600160a060020a0316600090815261010260205260408120541190565b60008115801590620001d2575060fa8211155b1515620001db57fe5b5090565b60015460009011620001ed57fe5b60015460fa901115620001fc57fe5b600254600160a060020a0316156200021057fe5b6000541580159062000226575060015460005411155b15156200022f57fe5b565b61101380620002416000396000f3006060604052600436106100c15763ffffffff60e060020a600035041663173825d981146100c65780632f54bf6e146100e75780634123cb6b1461011a57806345c4db401461013f5780634e4ab8301461015e5780637065cb4814610171578063787d64e414610190578063a0e67e2b146101a3578063b75c7dc614610209578063ba51a6df1461021f578063c0ee0b8a14610235578063c2cf73261461029a578063c41a360a146102bc578063f00d4b5d146102ee578063fc0c546a14610313575b600080fd5b34156100d157600080fd5b6100e5600160a060020a0360043516610326565b005b34156100f257600080fd5b610106600160a060020a0360043516610476565b604051901515815260200160405180910390f35b341561012557600080fd5b61012d610493565b60405190815260200160405180910390f35b341561014a57600080fd5b610106600160a060020a0360043516610499565b341561016957600080fd5b6101066105b0565b341561017c57600080fd5b6100e5600160a060020a03600435166105cd565b341561019b57600080fd5b61012d6106ea565b34156101ae57600080fd5b6101b66106f0565b60405160208082528190810183818151815260200191508051906020019060200280838360005b838110156101f55780820151838201526020016101dd565b505050509050019250505060405180910390f35b341561021457600080fd5b6100e5600435610768565b341561022a57600080fd5b6100e5600435610831565b341561024057600080fd5b61010660048035600160a060020a03169060248035919060649060443590810190830135806020601f820181900481020160405190810160405281815292919060208401838380828437509496506108c295505050505050565b34156102a557600080fd5b610106600435600160a060020a03602435166108cb565b34156102c757600080fd5b6102d2600435610920565b604051600160a060020a03909116815260200160405180910390f35b34156102f957600080fd5b6100e5600160a060020a0360043581169060243516610944565b341561031e57600080fd5b6102d2610a70565b60008161033281610476565b151561033d57600080fd5b6001805403600081118015610353575060fa8111155b151561035e57600080fd5b60005460018054036000821180156103765750808211155b151561038157600080fd5b6000366040518083838082843782019150509250505060405180910390206103a881610a80565b1561046d576103b5610c51565b6103bd610c9e565b600160a060020a038716600090815261010260205260409020546103e090610d3e565b9550600060028761010081106103f257fe5b018054600160a060020a031916600160a060020a03928316179055871660009081526101026020526040812055610427610d5c565b61042f610c51565b7f58619076adf5bb0943d100ef88d52d7c3fd691b19d3a9071b555b651fbf418da87604051600160a060020a03909116815260200160405180910390a15b50505050505050565b600160a060020a0316600090815261010260205260408120541190565b60015481565b600080366040518083838082843782019150509250505060405180910390206104c181610a80565b156105aa5761010554600160a060020a031663a9059cbb84826370a082313060006040516020015260405160e060020a63ffffffff8416028152600160a060020a039091166004820152602401602060405180830381600087803b151561052757600080fd5b6102c65a03f1151561053857600080fd5b5050506040518051905060006040516020015260405160e060020a63ffffffff8516028152600160a060020a0390921660048301526024820152604401602060405180830381600087803b151561058e57600080fd5b6102c65a03f1151561059f57600080fd5b505050604051805150505b50919050565b60006105bb33610476565b15156105c657600080fd5b5060015b90565b806105d781610476565b156105e157600080fd5b6001546001016000811180156105f8575060fa8111155b151561060357600080fd5b60003660405180838380828437820191505092505050604051809103902061062a81610a80565b156106e457610637610c51565b61063f610c9e565b600180548101908190558490600290610100811061065957fe5b018054600160a060020a031916600160a060020a039290921691909117905560015461068490610d3e565b600160a060020a038516600090815261010260205260409020556106a6610c51565b7f994a936646fe87ffe4f1e469d3d6aa417d6b855598397f323de5b449f765f0c384604051600160a060020a03909116815260200160405180910390a15b50505050565b60005481565b6106f8610f78565b610700610f78565b60006001546040518059106107125750595b90808252806020026020018201604052509150600090505b6001548110156105aa5761073d81610920565b82828151811061074957fe5b600160a060020a0390921660209283029091019091015260010161072a565b6000808261077581610ee6565b151561078057600080fd5b61078933610476565b151561079457600080fd5b61079d33610efb565b60008581526101036020526040812060018101549295509350908416116107c357600080fd5b6107cc84610f2a565b8154600190810183558201805484900390556107e784610f2a565b7fc7fb647e59b18047309aa15aad418e5d7ca96d173ad704f1031a2c3d7591734b3385604051600160a060020a03909216825260208201526040908101905180910390a150505050565b806001546000821180156108455750808211155b151561085057600080fd5b60003660405180838380828437820191505092505050604051809103902061087781610a80565b156106e4576000849055610889610c9e565b7facbdb084c721332ac59f9b8e392196c9eb0e4932862da8eb9beaf0dad4f550da8460405190815260200160405180910390a150505050565b60019392505050565b6000826108d781610ee6565b15156108e257600080fd5b826108ec81610476565b15156108f757600080fd5b61090084610efb565b600086815261010360205260409020600101541615159250505092915050565b6000600260018301610100811061093357fe5b0154600160a060020a031692915050565b60008261095081610476565b151561095b57600080fd5b8261096581610476565b1561096f57600080fd5b60003660405180838380828437820191505092505050604051809103902061099681610a80565b15610a68576109a3610c51565b6109ab610c9e565b600160a060020a038616600090815261010260205260409020546109ce90610d3e565b93508460028561010081106109df57fe5b018054600160a060020a031916600160a060020a0392831617905586811660009081526101026020526040808220829055918716815220849055610a21610c51565b7fb532073b38c83145e3e5135377a08bf9aab55bc0fd7c1179cd4fb995d2a5159c8686604051600160a060020a039283168152911660208201526040908101905180910390a15b505050505050565b61010554600160a060020a031681565b6000806000610a8e33610476565b1515610a9957600080fd5b610104546102001415610aae57610aae610c9e565b6000848152610103602052604090209150610ac884610ee6565b1515610b1b57600080548355600180840191909155610104805491610aef91908301610f8a565b6002830181905561010480548692908110610b0657fe5b600091825260209091200155610b1b84610f2a565b610b2433610efb565b90508082600101541660001415610c4a57815460009011610b4157fe5b815460011415610bea576000848152610103602052604090206002015461010480549091908110610b6e57fe5b600091825260208083209091018290558582526101039052604080822082815560018101839055600201919091557f367569357efc39b74a025c4ba1d64068b2b574e3b0d081c48d42f7feeca4cd16903390869051600160a060020a03909216825260208201526040908101905180910390a160019250610c4a565b815460001901825560018201805482179055610c0584610f2a565b7fe1c52dc63b719ade82e8bea94cc41a0d5d28e4aaf536adb5e9cccc9ff8c1aeda3385604051600160a060020a03909216825260208201526040908101905180910390a15b5050919050565b60015460009011610c5e57fe5b60015460fa901115610c6c57fe5b600254600160a060020a031615610c7f57fe5b60005415801590610c94575060015460005411155b1515610c9c57fe5b565b600080610caa33610476565b1515610cb557600080fd5b50506101045460005b81811015610d2d57610104805482908110610cd557fe5b60009182526020909120015415610d2557610103600061010483815481101515610cfb57fe5b60009182526020808320909101548352820192909252604001812081815560018101829055600201555b600101610cbe565b610d3a6101046000610fb3565b5050565b60008115801590610d50575060fa8211155b1515610d5857fe5b5090565b60015b600154811015610ee3575b60015481108015610d9257506002816101008110610d8457fe5b0154600160a060020a031615155b15610d9f57600101610d6a565b60018054118015610dc957506001546002906101008110610dbc57fe5b0154600160a060020a0316155b15610ddd5760018054600019019055610d9f565b60015481108015610e0857506001546002906101008110610dfa57fe5b0154600160a060020a031615155b8015610e2a57506002816101008110610e1d57fe5b0154600160a060020a0316155b15610ede576001546002906101008110610e4057fe5b0154600160a060020a03166002826101008110610e5957fe5b018054600160a060020a031916600160a060020a03929092169190911790558061010260006002836101008110610e8c57fe5b0154600160a060020a0316815260208101919091526040016000908120919091556001546002906101008110610ebe57fe5b018054600160a060020a031916600160a060020a03929092169190911790555b610d5f565b50565b60009081526101036020526040902054151590565b600160a060020a038116600090815261010260205260408120548190610f2090610d3e565b60020a9392505050565b60008181526101036020526040902080541515610f4357fe5b600281015461010480548492908110610f5857fe5b60009182526020909120015414610f6b57fe5b60005481541115610d3a57fe5b60206040519081016040526000815290565b815481835581811511610fae57600083815260209020610fae918101908301610fcd565b505050565b5080546000825590600052602060002090810190610ee391905b6105ca91905b80821115610d585760008155600101610fd35600a165627a7a723058201d176ad39ec7a78d596fc5588ba69ad886e2a6ab261bb8baa31f6eeca0c826470029",
  "source": "pragma solidity ^0.4.19;\n\nimport \"./SafeMath.sol\";\nimport \"./MFC_coin.sol\";\nimport \"./multiowned.sol\";\nimport \"./Receiver_Interface.sol\";\n\n\ncontract TokenHolder is multiowned, ERC223Receiver {\n    using SafeMath for uint256;\n\n    MFC_Token public token;\n\n    function TokenHolder(address[] _owners, uint _required, address _token) multiowned(_owners, _required) {\n        token = MFC_Token(_token);\n    }\n\n    function escrowTokensTo(address escrowAddress) external onlymanyowners(sha3(msg.data)) returns (bool success){\n        token.transfer(escrowAddress, token.balanceOf(address(this)));\n    }\n\n}",
  "sourcePath": "C:\\Workspace\\mfc\\smart-contracts\\contracts\\Token_holder.sol",
  "compiler": {
    "name": "solc",
    "version": "0.4.19+commit.c4cbbb05.Emscripten.clang"
  },
  "schemaVersion": "2.0.0",
  "updatedAt": "2018-03-19T09:44:20.081Z"
}