{
  "contractName": "WhitelistedCrowdsale",
  "abi": [
    {
      "constant": true,
      "inputs": [],
      "name": "rate",
      "outputs": [
        {
          "name": "",
          "type": "uint256"
        }
      ],
      "payable": false,
      "stateMutability": "view",
      "type": "function"
    },
    {
      "constant": true,
      "inputs": [],
      "name": "endTime",
      "outputs": [
        {
          "name": "",
          "type": "uint256"
        }
      ],
      "payable": false,
      "stateMutability": "view",
      "type": "function"
    },
    {
      "constant": true,
      "inputs": [],
      "name": "minPurchase",
      "outputs": [
        {
          "name": "",
          "type": "uint256"
        }
      ],
      "payable": false,
      "stateMutability": "view",
      "type": "function"
    },
    {
      "constant": true,
      "inputs": [],
      "name": "weiRaised",
      "outputs": [
        {
          "name": "",
          "type": "uint256"
        }
      ],
      "payable": false,
      "stateMutability": "view",
      "type": "function"
    },
    {
      "constant": true,
      "inputs": [],
      "name": "wallet",
      "outputs": [
        {
          "name": "",
          "type": "address"
        }
      ],
      "payable": false,
      "stateMutability": "view",
      "type": "function"
    },
    {
      "constant": true,
      "inputs": [],
      "name": "startTime",
      "outputs": [
        {
          "name": "",
          "type": "uint256"
        }
      ],
      "payable": false,
      "stateMutability": "view",
      "type": "function"
    },
    {
      "constant": true,
      "inputs": [],
      "name": "countPurchaseAmount",
      "outputs": [
        {
          "name": "",
          "type": "bool"
        }
      ],
      "payable": false,
      "stateMutability": "view",
      "type": "function"
    },
    {
      "constant": true,
      "inputs": [],
      "name": "owner",
      "outputs": [
        {
          "name": "",
          "type": "address"
        }
      ],
      "payable": false,
      "stateMutability": "view",
      "type": "function"
    },
    {
      "constant": true,
      "inputs": [],
      "name": "maxPurchase",
      "outputs": [
        {
          "name": "",
          "type": "uint256"
        }
      ],
      "payable": false,
      "stateMutability": "view",
      "type": "function"
    },
    {
      "constant": true,
      "inputs": [
        {
          "name": "_from",
          "type": "address"
        },
        {
          "name": "_value",
          "type": "uint256"
        },
        {
          "name": "_data",
          "type": "bytes"
        }
      ],
      "name": "tokenFallback",
      "outputs": [
        {
          "name": "ok",
          "type": "bool"
        }
      ],
      "payable": false,
      "stateMutability": "pure",
      "type": "function"
    },
    {
      "constant": false,
      "inputs": [
        {
          "name": "newOwner",
          "type": "address"
        }
      ],
      "name": "transferOwnership",
      "outputs": [],
      "payable": false,
      "stateMutability": "nonpayable",
      "type": "function"
    },
    {
      "constant": true,
      "inputs": [],
      "name": "token",
      "outputs": [
        {
          "name": "",
          "type": "address"
        }
      ],
      "payable": false,
      "stateMutability": "view",
      "type": "function"
    },
    {
      "inputs": [
        {
          "name": "_startTime",
          "type": "uint256"
        },
        {
          "name": "_endTime",
          "type": "uint256"
        },
        {
          "name": "_rate",
          "type": "uint256"
        },
        {
          "name": "_minPurchase",
          "type": "uint256"
        },
        {
          "name": "_maxPurchase",
          "type": "uint256"
        },
        {
          "name": "_wallet",
          "type": "address"
        },
        {
          "name": "_token",
          "type": "address"
        },
        {
          "name": "_countPurchaseAmount",
          "type": "bool"
        }
      ],
      "payable": false,
      "stateMutability": "nonpayable",
      "type": "constructor"
    },
    {
      "payable": true,
      "stateMutability": "payable",
      "type": "fallback"
    },
    {
      "anonymous": false,
      "inputs": [
        {
          "indexed": true,
          "name": "purchaser",
          "type": "address"
        },
        {
          "indexed": true,
          "name": "beneficiary",
          "type": "address"
        },
        {
          "indexed": false,
          "name": "value",
          "type": "uint256"
        },
        {
          "indexed": false,
          "name": "amount",
          "type": "uint256"
        }
      ],
      "name": "TokenPurchase",
      "type": "event"
    },
    {
      "anonymous": false,
      "inputs": [
        {
          "indexed": true,
          "name": "previousOwner",
          "type": "address"
        },
        {
          "indexed": true,
          "name": "newOwner",
          "type": "address"
        }
      ],
      "name": "OwnershipTransferred",
      "type": "event"
    },
    {
      "constant": false,
      "inputs": [
        {
          "name": "beneficiary",
          "type": "address"
        }
      ],
      "name": "buyTokens",
      "outputs": [],
      "payable": true,
      "stateMutability": "payable",
      "type": "function"
    },
    {
      "constant": true,
      "inputs": [],
      "name": "hasEnded",
      "outputs": [
        {
          "name": "",
          "type": "bool"
        }
      ],
      "payable": false,
      "stateMutability": "view",
      "type": "function"
    },
    {
      "constant": false,
      "inputs": [],
      "name": "burnRemainingTokens",
      "outputs": [],
      "payable": false,
      "stateMutability": "nonpayable",
      "type": "function"
    },
    {
      "constant": false,
      "inputs": [],
      "name": "getWeiRaised",
      "outputs": [
        {
          "name": "",
          "type": "uint256"
        }
      ],
      "payable": false,
      "stateMutability": "nonpayable",
      "type": "function"
    }
  ],
  "bytecode": "0x6060604052341561000f57600080fd5b60405161010080610976833981016040528080519190602001805191906020018051919060200180519190602001805191906020018051919060200180519190602001805160008054600160a060020a03338116600160a060020a0319928316811790935560029c909c5560039a909a5560059890985560048054958b16958a1695909517909455505060018054919097169086161790955560085560095560078054909216179055600a805491151560ff1990921691909117905561089c806100da6000396000f3006060604052600436106100cc5763ffffffff60e060020a6000350416632c4e722e81146100d75780633197cbb6146100fc57806333b5b62e1461010f5780634042b66f1461012257806340582f1314610135578063521eb2731461014857806378e97925146101775780637fa8b5301461018a57806383408d73146101b15780638da5cb5b146101c4578063977b055b146101d7578063c0ee0b8a146101ea578063ec8ac4d81461024f578063ecb70fb714610263578063f2fde38b14610276578063fc0c546a14610295575b6100d5336102a8565b005b34156100e257600080fd5b6100ea6104c9565b60405190815260200160405180910390f35b341561010757600080fd5b6100ea6104cf565b341561011a57600080fd5b6100ea6104d5565b341561012d57600080fd5b6100ea6104db565b341561014057600080fd5b6100ea6104e1565b341561015357600080fd5b61015b6104e7565b604051600160a060020a03909116815260200160405180910390f35b341561018257600080fd5b6100ea6104f6565b341561019557600080fd5b61019d6104fc565b604051901515815260200160405180910390f35b34156101bc57600080fd5b6100d5610505565b34156101cf57600080fd5b61015b610575565b34156101e257600080fd5b6100ea610584565b34156101f557600080fd5b61019d60048035600160a060020a03169060248035919060649060443590810190830135806020601f8201819004810201604051908101604052818152929190602084018383808284375094965061058a95505050505050565b6100d5600160a060020a03600435166102a8565b341561026e57600080fd5b61019d610593565b341561028157600080fd5b6100d5600160a060020a036004351661059b565b34156102a057600080fd5b61015b610636565b60008080600160a060020a03841615156102c157600080fd5b6102c9610645565b15156102d457600080fd5b3492506102e083610721565b600154909250600160a060020a03166370a082313060006040516020015260405160e060020a63ffffffff8416028152600160a060020a039091166004820152602401602060405180830381600087803b151561033c57600080fd5b6102c65a03f1151561034d57600080fd5b50505060405180519150508082111561036557600080fd5b600654610378908463ffffffff6107de16565b600655600154600160a060020a031663a9059cbb858460006040516020015260405160e060020a63ffffffff8516028152600160a060020a0390921660048301526024820152604401602060405180830381600087803b15156103da57600080fd5b6102c65a03f115156103eb57600080fd5b505050604051805190505083600160a060020a031633600160a060020a03167f623b3804fa71d67900d064613da8f94b9617215ee90799290593e1745087ad18858560405191825260208201526040908101905180910390a361044d836107f8565b600a5460ff16156104c357600754600160a060020a03166350c1bdf2338560405160e060020a63ffffffff8516028152600160a060020a0390921660048301526024820152604401600060405180830381600087803b15156104ae57600080fd5b6102c65a03f115156104bf57600080fd5b5050505b50505050565b60055481565b60035481565b60095481565b60065481565b60065490565b600454600160a060020a031681565b60025481565b600a5460ff1681565b60005433600160a060020a0390811691161461052057600080fd5b600154600160a060020a0316639975038c6040518163ffffffff1660e060020a028152600401600060405180830381600087803b151561055f57600080fd5b6102c65a03f1151561057057600080fd5b505050565b600054600160a060020a031681565b60085481565b60019392505050565b600354421190565b60005433600160a060020a039081169116146105b657600080fd5b600160a060020a03811615156105cb57600080fd5b600054600160a060020a0380831691167f8be0079c531659141344cd1fd0a4f28419497f9722a3daafe3b4186f6b6457e060405160405180910390a36000805473ffffffffffffffffffffffffffffffffffffffff1916600160a060020a0392909216919091179055565b600154600160a060020a031681565b600080600080600080600254421015801561066257506003544211155b6008546009546007549297503480151597509182111595509010159250600160a060020a03166313f44d103360006040516020015260405160e060020a63ffffffff8416028152600160a060020a039091166004820152602401602060405180830381600087803b15156106d557600080fd5b6102c65a03f115156106e657600080fd5b5050506040518051905090508480156106fc5750835b80156107055750805b801561070e5750825b80156107175750815b9550505050505090565b600080600061073b6005548561082e90919063ffffffff16565b915060009050678ac7230489e80000841015610756576107c6565b68015af1d78b58c4000084101561077f5761077882600a63ffffffff61085916565b90506107c6565b68056bc75e2d631000008410156107b25761077860646107a684600f63ffffffff61082e16565b9063ffffffff61085916565b6107c382600563ffffffff61085916565b90505b6107d6828263ffffffff6107de16565b949350505050565b6000828201838110156107ed57fe5b8091505b5092915050565b600454600160a060020a031681156108fc0282604051600060405180830381858888f19350505050151561082b57600080fd5b50565b60008083151561084157600091506107f1565b5082820282848281151561085157fe5b04146107ed57fe5b600080828481151561086757fe5b049493505050505600a165627a7a723058208d5ef934645828851da802657e1ab490412c10a079c29cc1a74ac90bffcb296a0029",
  "source": "pragma solidity ^0.4.19;\n\n\nimport \"./MFC_coin.sol\";\nimport \"./ICO_controller.sol\";\nimport \"./SafeMath.sol\";\nimport \"./Ownable.sol\";\nimport \"./Receiver_Interface.sol\";\n\n\n\n/**\n * @title Crowdsale\n * @dev Crowdsale is a base contract for managing a token crowdsale.\n * Crowdsales have a start and end timestamps, where investors can make\n * token purchases and the crowdsale will assign them tokens based\n * on a token per ETH rate. Funds collected are forwarded to a wallet\n * as they arrive. The contract requires a MintableToken that will be\n * minted as contributions arrive, note that the crowdsale contract\n * must be owner of the token in order to be able to mint it.\n */\ncontract WhitelistedCrowdsale is Ownable, ERC223Receiver {\n    using SafeMath for uint256;\n\n    // The token being sold\n    MFC_Token public token;\n\n    // start and end timestamps where investments are allowed (both inclusive)\n    uint256 public startTime;\n    uint256 public endTime;\n\n    // address where funds are collected\n    address public wallet;\n\n    // how many token units a buyer gets per wei\n    uint256 public rate;\n\n    // amount of raised money in wei\n    uint256 public weiRaised;\n\n    ICO_controller private controller;\n\n    uint256 public maxPurchase;\n    uint256 public minPurchase;\n\n    bool public countPurchaseAmount;\n\n    /**\n     * event for token purchase logging\n     * @param purchaser who paid for the tokens\n     * @param beneficiary who got the tokens\n     * @param value weis paid for purchase\n     * @param amount amount of tokens purchased\n     */\n    event TokenPurchase(address indexed purchaser, address indexed beneficiary, uint256 value, uint256 amount);\n\n\n    function WhitelistedCrowdsale(uint256 _startTime, uint256 _endTime, uint256 _rate, uint256 _minPurchase, uint256 _maxPurchase, address _wallet, MFC_Token _token, bool _countPurchaseAmount) public {\n        startTime = _startTime;\n        endTime = _endTime;\n        rate = _rate;\n        wallet = _wallet;\n        token = _token;\n        maxPurchase = _maxPurchase;\n        minPurchase = _minPurchase;\n        controller = ICO_controller(msg.sender);\n        countPurchaseAmount = _countPurchaseAmount;\n    }\n\n    // fallback function can be used to buy tokens\n    function() external payable {\n        buyTokens(msg.sender);\n    }\n\n    // low level token purchase function\n    function buyTokens(address beneficiary) public payable {\n        require(beneficiary != address(0));\n        require(validPurchase());\n\n\n        uint256 weiAmount = msg.value;\n\n        // calculate token amount to be created\n        uint256 tokens = getTokenAmount(weiAmount);\n\n        // get avaible for crowdsale token balance\n        uint256 avaibleTokenToSell = token.balanceOf(address(this));\n        require(tokens <= avaibleTokenToSell);\n\n\n        // update state\n        weiRaised = weiRaised.add(weiAmount);\n\n        token.transfer(beneficiary, tokens);\n        TokenPurchase(msg.sender, beneficiary, weiAmount, tokens);\n        forwardFunds(weiAmount);\n        if (countPurchaseAmount) {\n            controller.addBuyerSpent(msg.sender, weiAmount);\n        }        \n    }\n\n    // @return true if crowdsale event has ended\n    function hasEnded() external view returns (bool) {\n        return now > endTime;\n    }\n\n    // Override this method to have a way to add business logic to your crowdsale when buying\n    function getTokenAmount(uint256 weiAmount) internal view returns (uint256) {\n        uint256 basicAmount = weiAmount.mul(rate);\n        uint256 bonusAmount = 0;\n        if (weiAmount < 10 ether) {\n\n        } else if (weiAmount < 25 ether) {\n            bonusAmount = basicAmount.div(10);\n            // 10%\n        } else if (weiAmount < 100 ether) {\n            bonusAmount = basicAmount.mul(15).div(100);\n            // 15%\n        } else {\n            bonusAmount = basicAmount.div(5);\n            // 20%\n        }\n        return basicAmount.add(bonusAmount);\n\n    }\n\n    // send ether to the fund collection wallet\n    // override to create custom fund forwarding mechanisms\n    function forwardFunds(uint256 weiAmount) internal {\n        wallet.transfer(weiAmount);\n    }\n\n    // @return true if the transaction can buy tokens\n    function validPurchase() internal view returns (bool) {\n        bool withinPeriod = now >= startTime && now <= endTime;\n        bool nonZeroPurchase = msg.value != 0;\n        bool lessThenMaximum = msg.value <= maxPurchase;\n        bool moreThenMinimum = msg.value >= minPurchase;\n        bool isWhitelisted = controller.isAddressWhitelisted(msg.sender);\n        return withinPeriod && nonZeroPurchase && isWhitelisted && lessThenMaximum && moreThenMinimum;\n    }\n\n    function burnRemainingTokens() external onlyOwner {\n        token.burnAll();\n    }\n\n    function getWeiRaised() external returns (uint256){\n        return weiRaised;\n    }\n\n}",
  "sourcePath": "C:\\Workspace\\mfc\\smart-contracts\\contracts\\ICO_crowdsale.sol",
  "compiler": {
    "name": "solc",
    "version": "0.4.19+commit.c4cbbb05.Emscripten.clang"
  },
  "schemaVersion": "2.0.0",
  "updatedAt": "2018-03-19T09:43:16.920Z"
}