{
  "contractName": "WhitelistedCrowdsale",
  "abi": [
    {
      "constant": true,
      "inputs": [],
      "name": "rate",
      "outputs": [
        {
          "name": "",
          "type": "uint256"
        }
      ],
      "payable": false,
      "stateMutability": "view",
      "type": "function"
    },
    {
      "constant": true,
      "inputs": [],
      "name": "endTime",
      "outputs": [
        {
          "name": "",
          "type": "uint256"
        }
      ],
      "payable": false,
      "stateMutability": "view",
      "type": "function"
    },
    {
      "constant": true,
      "inputs": [],
      "name": "weiRaised",
      "outputs": [
        {
          "name": "",
          "type": "uint256"
        }
      ],
      "payable": false,
      "stateMutability": "view",
      "type": "function"
    },
    {
      "constant": false,
      "inputs": [],
      "name": "getWeiRaised",
      "outputs": [
        {
          "name": "weiRaised",
          "type": "uint256"
        }
      ],
      "payable": false,
      "stateMutability": "nonpayable",
      "type": "function"
    },
    {
      "constant": true,
      "inputs": [],
      "name": "wallet",
      "outputs": [
        {
          "name": "",
          "type": "address"
        }
      ],
      "payable": false,
      "stateMutability": "view",
      "type": "function"
    },
    {
      "constant": true,
      "inputs": [],
      "name": "startTime",
      "outputs": [
        {
          "name": "",
          "type": "uint256"
        }
      ],
      "payable": false,
      "stateMutability": "view",
      "type": "function"
    },
    {
      "constant": false,
      "inputs": [],
      "name": "burnRemainingTokens",
      "outputs": [],
      "payable": false,
      "stateMutability": "nonpayable",
      "type": "function"
    },
    {
      "constant": true,
      "inputs": [],
      "name": "owner",
      "outputs": [
        {
          "name": "",
          "type": "address"
        }
      ],
      "payable": false,
      "stateMutability": "view",
      "type": "function"
    },
    {
      "constant": true,
      "inputs": [
        {
          "name": "_from",
          "type": "address"
        },
        {
          "name": "_value",
          "type": "uint256"
        },
        {
          "name": "_data",
          "type": "bytes"
        }
      ],
      "name": "tokenFallback",
      "outputs": [
        {
          "name": "ok",
          "type": "bool"
        }
      ],
      "payable": false,
      "stateMutability": "pure",
      "type": "function"
    },
    {
      "constant": false,
      "inputs": [
        {
          "name": "beneficiary",
          "type": "address"
        }
      ],
      "name": "buyTokens",
      "outputs": [],
      "payable": true,
      "stateMutability": "payable",
      "type": "function"
    },
    {
      "constant": true,
      "inputs": [],
      "name": "hasEnded",
      "outputs": [
        {
          "name": "",
          "type": "bool"
        }
      ],
      "payable": false,
      "stateMutability": "view",
      "type": "function"
    },
    {
      "constant": false,
      "inputs": [
        {
          "name": "newOwner",
          "type": "address"
        }
      ],
      "name": "transferOwnership",
      "outputs": [],
      "payable": false,
      "stateMutability": "nonpayable",
      "type": "function"
    },
    {
      "constant": true,
      "inputs": [],
      "name": "token",
      "outputs": [
        {
          "name": "",
          "type": "address"
        }
      ],
      "payable": false,
      "stateMutability": "view",
      "type": "function"
    },
    {
      "inputs": [
        {
          "name": "_startTime",
          "type": "uint256"
        },
        {
          "name": "_endTime",
          "type": "uint256"
        },
        {
          "name": "_rate",
          "type": "uint256"
        },
        {
          "name": "_wallet",
          "type": "address"
        },
        {
          "name": "_token",
          "type": "address"
        }
      ],
      "payable": false,
      "stateMutability": "nonpayable",
      "type": "constructor"
    },
    {
      "payable": true,
      "stateMutability": "payable",
      "type": "fallback"
    },
    {
      "anonymous": false,
      "inputs": [
        {
          "indexed": true,
          "name": "purchaser",
          "type": "address"
        },
        {
          "indexed": true,
          "name": "beneficiary",
          "type": "address"
        },
        {
          "indexed": false,
          "name": "value",
          "type": "uint256"
        },
        {
          "indexed": false,
          "name": "amount",
          "type": "uint256"
        }
      ],
      "name": "TokenPurchase",
      "type": "event"
    },
    {
      "anonymous": false,
      "inputs": [
        {
          "indexed": true,
          "name": "previousOwner",
          "type": "address"
        },
        {
          "indexed": true,
          "name": "newOwner",
          "type": "address"
        }
      ],
      "name": "OwnershipTransferred",
      "type": "event"
    }
  ],
  "bytecode": "0x6060604052341561000f57600080fd5b60405160a080610925833981016040528080519190602001805191906020018051919060200180519190602001805160008054600160a060020a03191633600160a060020a03161790559150504285101561006957600080fd5b8484101561007657600080fd5b6000831161008357600080fd5b600160a060020a038216151561009857600080fd5b600160a060020a03811615156100ad57600080fd5b60029490945560039290925560055560048054600160a060020a0319908116600160a060020a039384161790915560018054821693831693909317909255600780549092163390911617905561081d806101086000396000f3006060604052600436106100ab5763ffffffff60e060020a6000350416632c4e722e81146100b65780633197cbb6146100db5780634042b66f146100ee57806340582f1314610101578063521eb2731461011457806378e979251461014357806383408d73146101565780638da5cb5b14610169578063c0ee0b8a1461017c578063ec8ac4d8146101f5578063ecb70fb714610209578063f2fde38b1461021c578063fc0c546a1461023b575b6100b43361024e565b005b34156100c157600080fd5b6100c9610463565b60405190815260200160405180910390f35b34156100e657600080fd5b6100c9610469565b34156100f957600080fd5b6100c961046f565b341561010c57600080fd5b6100c9610475565b341561011f57600080fd5b61012761047a565b604051600160a060020a03909116815260200160405180910390f35b341561014e57600080fd5b6100c9610489565b341561016157600080fd5b6100b461048f565b341561017457600080fd5b6101276104ff565b341561018757600080fd5b6101e160048035600160a060020a03169060248035919060649060443590810190830135806020601f8201819004810201604051908101604052818152929190602084018383808284375094965061050e95505050505050565b604051901515815260200160405180910390f35b6100b4600160a060020a036004351661024e565b341561021457600080fd5b6101e1610517565b341561022757600080fd5b6100b4600160a060020a036004351661051f565b341561024657600080fd5b6101276105ba565b60008080600160a060020a038416151561026757600080fd5b61026f6105c9565b151561027a57600080fd5b3492506102868361067c565b600154909250600160a060020a03166370a082313060006040516020015260405160e060020a63ffffffff8416028152600160a060020a039091166004820152602401602060405180830381600087803b15156102e257600080fd5b6102c65a03f115156102f357600080fd5b50505060405180519150508082111561030b57600080fd5b60065461031e908463ffffffff61075f16565b600655600154600160a060020a031663a9059cbb858460006040516020015260405160e060020a63ffffffff8516028152600160a060020a0390921660048301526024820152604401602060405180830381600087803b151561038057600080fd5b6102c65a03f1151561039157600080fd5b505050604051805190505083600160a060020a031633600160a060020a03167f623b3804fa71d67900d064613da8f94b9617215ee90799290593e1745087ad18858560405191825260208201526040908101905180910390a36103f383610779565b600754600160a060020a03166350c1bdf2338560405160e060020a63ffffffff8516028152600160a060020a0390921660048301526024820152604401600060405180830381600087803b151561044957600080fd5b6102c65a03f1151561045a57600080fd5b50505050505050565b60055481565b60035481565b60065481565b600090565b600454600160a060020a031681565b60025481565b60005433600160a060020a039081169116146104aa57600080fd5b600154600160a060020a0316639975038c6040518163ffffffff1660e060020a028152600401600060405180830381600087803b15156104e957600080fd5b6102c65a03f115156104fa57600080fd5b505050565b600054600160a060020a031681565b60019392505050565b600354421190565b60005433600160a060020a0390811691161461053a57600080fd5b600160a060020a038116151561054f57600080fd5b600054600160a060020a0380831691167f8be0079c531659141344cd1fd0a4f28419497f9722a3daafe3b4186f6b6457e060405160405180910390a36000805473ffffffffffffffffffffffffffffffffffffffff1916600160a060020a0392909216919091179055565b600154600160a060020a031681565b60008060008060025442101580156105e357506003544211155b6007549093503415159250600160a060020a03166313f44d103360006040516020015260405160e060020a63ffffffff8416028152600160a060020a039091166004820152602401602060405180830381600087803b151561064457600080fd5b6102c65a03f1151561065557600080fd5b50505060405180519050905082801561066b5750815b80156106745750805b935050505090565b6000806000610696600554856107af90919063ffffffff16565b915060009050674563918244f400008410156106b157610747565b678ac7230489e800008410156106d9576106d282600a63ffffffff6107da16565b9050610747565b68015af1d78b58c4000084101561070c576106d2606461070084600f63ffffffff6107af16565b9063ffffffff6107da16565b68056bc75e2d63100000841015610733576106d2606461070084601163ffffffff6107af16565b61074482600563ffffffff6107da16565b90505b610757828263ffffffff61075f16565b949350505050565b60008282018381101561076e57fe5b8091505b5092915050565b600454600160a060020a031681156108fc0282604051600060405180830381858888f1935050505015156107ac57600080fd5b50565b6000808315156107c25760009150610772565b508282028284828115156107d257fe5b041461076e57fe5b60008082848115156107e857fe5b049493505050505600a165627a7a7230582060f5df61fd2bc523c2a21e1fbed710914cb11793790b37b469d276f34f1a51710029",
  "source": "pragma solidity ^0.4.19;\n\n\nimport \"./MFC_coin.sol\";\nimport \"./ICO_controller.sol\";\nimport \"./SafeMath.sol\";\nimport \"./Ownable.sol\";\nimport \"./Receiver_Interface.sol\";\n\n\n\n/**\n * @title Crowdsale\n * @dev Crowdsale is a base contract for managing a token crowdsale.\n * Crowdsales have a start and end timestamps, where investors can make\n * token purchases and the crowdsale will assign them tokens based\n * on a token per ETH rate. Funds collected are forwarded to a wallet\n * as they arrive. The contract requires a MintableToken that will be\n * minted as contributions arrive, note that the crowdsale contract\n * must be owner of the token in order to be able to mint it.\n */\ncontract WhitelistedCrowdsale is Ownable, ERC223Receiver {\n    using SafeMath for uint256;\n\n    // The token being sold\n    MFC_Token public token;\n\n    // start and end timestamps where investments are allowed (both inclusive)\n    uint256 public startTime;\n    uint256 public endTime;\n\n    // address where funds are collected\n    address public wallet;\n\n    // how many token units a buyer gets per wei\n    uint256 public rate;\n\n    // amount of raised money in wei\n    uint256 public weiRaised;\n\n    ICO_controller private controller;\n\n    /**\n     * event for token purchase logging\n     * @param purchaser who paid for the tokens\n     * @param beneficiary who got the tokens\n     * @param value weis paid for purchase\n     * @param amount amount of tokens purchased\n     */\n    event TokenPurchase(address indexed purchaser, address indexed beneficiary, uint256 value, uint256 amount);\n\n\n    function WhitelistedCrowdsale(uint256 _startTime, uint256 _endTime, uint256 _rate, address _wallet, MFC_Token _token) public {\n        require(_startTime >= now);\n        require(_endTime >= _startTime);\n        require(_rate > 0);\n        require(_wallet != address(0));\n        require(_token != address(0));\n\n        startTime = _startTime;\n        endTime = _endTime;\n        rate = _rate;\n        wallet = _wallet;\n        token = _token;\n        controller = ICO_controller(msg.sender);\n    }\n\n    // fallback function can be used to buy tokens\n    function() external payable {\n        buyTokens(msg.sender);\n    }\n\n    // low level token purchase function\n    function buyTokens(address beneficiary) public payable {\n        require(beneficiary != address(0));\n        require(validPurchase());\n\n\n        uint256 weiAmount = msg.value;\n\n        // calculate token amount to be created\n        uint256 tokens = getTokenAmount(weiAmount);\n\n        // get avaible for crowdsale token balance\n        uint256 avaibleTokenToSell = token.balanceOf(address(this));\n        require(tokens <= avaibleTokenToSell);\n\n\n        // update state\n        weiRaised = weiRaised.add(weiAmount);\n\n        token.transfer(beneficiary, tokens);\n        TokenPurchase(msg.sender, beneficiary, weiAmount, tokens);\n        forwardFunds(weiAmount);\n        controller.addBuyerSpent(msg.sender, weiAmount);\n    }\n\n    // @return true if crowdsale event has ended\n    function hasEnded() external view returns (bool) {\n        return now > endTime;\n    }\n\n    // Override this method to have a way to add business logic to your crowdsale when buying\n    function getTokenAmount(uint256 weiAmount) internal view returns (uint256) {\n        uint256 basicAmount = weiAmount.mul(rate);\n        uint256 bonusAmount = 0;\n        if (weiAmount < 5 ether) {\n\n        } else if (weiAmount < 10 ether) {\n            bonusAmount = basicAmount.div(10);\n            // 10%\n        } else if (weiAmount < 25 ether) {\n            bonusAmount = basicAmount.mul(15).div(100);\n            // 15%\n        } else if (weiAmount < 100 ether) {\n            bonusAmount = basicAmount.mul(17).div(100);\n            // 17%\n        } else {\n            bonusAmount = basicAmount.div(5);\n            // 20%\n        }\n        return basicAmount.add(bonusAmount);\n\n    }\n\n    // send ether to the fund collection wallet\n    // override to create custom fund forwarding mechanisms\n    function forwardFunds(uint256 weiAmount) internal {\n        wallet.transfer(weiAmount);\n    }\n\n    // @return true if the transaction can buy tokens\n    function validPurchase() internal view returns (bool) {\n        bool withinPeriod = now >= startTime && now <= endTime;\n        bool nonZeroPurchase = msg.value != 0;\n        bool isWhitelisted = controller.isAddressWhitelisted(msg.sender);\n        return withinPeriod && nonZeroPurchase && isWhitelisted;\n    }\n\n    function burnRemainingTokens() external onlyOwner {\n        token.burnAll();\n    }\n\n    function getWeiRaised() external returns (uint256 weiRaised){\n        return weiRaised;\n    }\n\n}",
  "sourcePath": "/home/savao/hg/smart-contracts/contracts/ICO_crowdsale.sol",
  "schemaVersion": "1.0.0",
  "updatedAt": "2018-02-16T13:47:57.385Z"
}